{
	"voting.sol": {
		"VotingContract": {
			"abi": [
				{
					"inputs": [],
					"stateMutability": "nonpayable",
					"type": "constructor"
				},
				{
					"anonymous": false,
					"inputs": [
						{
							"indexed": false,
							"internalType": "uint256",
							"name": "winningCandidateId",
							"type": "uint256"
						}
					],
					"name": "ElectionEnded",
					"type": "event"
				},
				{
					"anonymous": false,
					"inputs": [
						{
							"indexed": true,
							"internalType": "address",
							"name": "voter",
							"type": "address"
						},
						{
							"indexed": false,
							"internalType": "uint256",
							"name": "candidateId",
							"type": "uint256"
						}
					],
					"name": "VoteCasted",
					"type": "event"
				},
				{
					"inputs": [
						{
							"internalType": "string",
							"name": "_name",
							"type": "string"
						}
					],
					"name": "addCandidate",
					"outputs": [],
					"stateMutability": "nonpayable",
					"type": "function"
				},
				{
					"inputs": [
						{
							"internalType": "uint256",
							"name": "",
							"type": "uint256"
						}
					],
					"name": "candidates",
					"outputs": [
						{
							"internalType": "uint256",
							"name": "id",
							"type": "uint256"
						},
						{
							"internalType": "string",
							"name": "name",
							"type": "string"
						},
						{
							"internalType": "uint256",
							"name": "voteCount",
							"type": "uint256"
						}
					],
					"stateMutability": "view",
					"type": "function"
				},
				{
					"inputs": [],
					"name": "candidatesCount",
					"outputs": [
						{
							"internalType": "uint256",
							"name": "",
							"type": "uint256"
						}
					],
					"stateMutability": "view",
					"type": "function"
				},
				{
					"inputs": [],
					"name": "currentState",
					"outputs": [
						{
							"internalType": "enum VotingContract.State",
							"name": "",
							"type": "uint8"
						}
					],
					"stateMutability": "view",
					"type": "function"
				},
				{
					"inputs": [],
					"name": "endTime",
					"outputs": [
						{
							"internalType": "uint256",
							"name": "",
							"type": "uint256"
						}
					],
					"stateMutability": "view",
					"type": "function"
				},
				{
					"inputs": [],
					"name": "endVoting",
					"outputs": [],
					"stateMutability": "nonpayable",
					"type": "function"
				},
				{
					"inputs": [],
					"name": "getWinner",
					"outputs": [
						{
							"internalType": "string",
							"name": "winnerName",
							"type": "string"
						},
						{
							"internalType": "uint256",
							"name": "winnerVotes",
							"type": "uint256"
						}
					],
					"stateMutability": "view",
					"type": "function"
				},
				{
					"inputs": [],
					"name": "owner",
					"outputs": [
						{
							"internalType": "address",
							"name": "",
							"type": "address"
						}
					],
					"stateMutability": "view",
					"type": "function"
				},
				{
					"inputs": [],
					"name": "startTime",
					"outputs": [
						{
							"internalType": "uint256",
							"name": "",
							"type": "uint256"
						}
					],
					"stateMutability": "view",
					"type": "function"
				},
				{
					"inputs": [],
					"name": "startVoting",
					"outputs": [],
					"stateMutability": "nonpayable",
					"type": "function"
				},
				{
					"inputs": [
						{
							"internalType": "uint256",
							"name": "_candidateId",
							"type": "uint256"
						}
					],
					"name": "vote",
					"outputs": [],
					"stateMutability": "nonpayable",
					"type": "function"
				},
				{
					"inputs": [
						{
							"internalType": "address",
							"name": "",
							"type": "address"
						}
					],
					"name": "voters",
					"outputs": [
						{
							"internalType": "bool",
							"name": "hasVoted",
							"type": "bool"
						}
					],
					"stateMutability": "view",
					"type": "function"
				}
			],
			"devdoc": {
				"kind": "dev",
				"methods": {},
				"version": 1
			},
			"evm": {
				"assembly": "    /* \"voting.sol\":59:3238  contract VotingContract {... */\n  mstore(0x40, 0x80)\n    /* \"voting.sol\":1336:1588  constructor() {... */\n  callvalue\n  dup1\n  iszero\n  tag_1\n  jumpi\n  0x00\n  dup1\n  revert\ntag_1:\n  pop\n    /* \"voting.sol\":1363:1373  msg.sender */\n  caller\n    /* \"voting.sol\":1355:1360  owner */\n  0x00\n  dup1\n    /* \"voting.sol\":1355:1373  owner = msg.sender */\n  0x0100\n  exp\n  dup2\n  sload\n  dup2\n  0xffffffffffffffffffffffffffffffffffffffff\n  mul\n  not\n  and\n  swap1\n  dup4\n  0xffffffffffffffffffffffffffffffffffffffff\n  and\n  mul\n  or\n  swap1\n  sstore\n  pop\n    /* \"voting.sol\":1390:1405  block.timestamp */\n  timestamp\n    /* \"voting.sol\":1378:1387  startTime */\n  0x01\n    /* \"voting.sol\":1378:1405  startTime = block.timestamp */\n  dup2\n  swap1\n  sstore\n  pop\n    /* \"voting.sol\":1485:1494  5 minutes */\n  0x012c\n    /* \"voting.sol\":1473:1482  startTime */\n  sload(0x01)\n    /* \"voting.sol\":1473:1494  startTime + 5 minutes */\n  tag_4\n  swap2\n  swap1\n  tag_5\n  jump\t// in\ntag_4:\n    /* \"voting.sol\":1463:1470  endTime */\n  0x02\n    /* \"voting.sol\":1463:1494  endTime = startTime + 5 minutes */\n  dup2\n  swap1\n  sstore\n  pop\n    /* \"voting.sol\":1569:1585  State.NotStarted */\n  0x00\n    /* \"voting.sol\":1554:1566  currentState */\n  dup1\n  0x14\n    /* \"voting.sol\":1554:1585  currentState = State.NotStarted */\n  0x0100\n  exp\n  dup2\n  sload\n  dup2\n  0xff\n  mul\n  not\n  and\n  swap1\n  dup4\n  0x02\n  dup2\n  gt\n  iszero\n  tag_6\n  jumpi\n  tag_7\n  tag_8\n  jump\t// in\ntag_7:\ntag_6:\n  mul\n  or\n  swap1\n  sstore\n  pop\n    /* \"voting.sol\":59:3238  contract VotingContract {... */\n  jump(tag_9)\n    /* \"#utility.yul\":7:84   */\ntag_10:\n    /* \"#utility.yul\":44:51   */\n  0x00\n    /* \"#utility.yul\":73:78   */\n  dup2\n    /* \"#utility.yul\":62:78   */\n  swap1\n  pop\n    /* \"#utility.yul\":7:84   */\n  swap2\n  swap1\n  pop\n  jump\t// out\n    /* \"#utility.yul\":90:270   */\ntag_11:\n    /* \"#utility.yul\":138:215   */\n  0x4e487b7100000000000000000000000000000000000000000000000000000000\n    /* \"#utility.yul\":135:136   */\n  0x00\n    /* \"#utility.yul\":128:216   */\n  mstore\n    /* \"#utility.yul\":235:239   */\n  0x11\n    /* \"#utility.yul\":232:233   */\n  0x04\n    /* \"#utility.yul\":225:240   */\n  mstore\n    /* \"#utility.yul\":259:263   */\n  0x24\n    /* \"#utility.yul\":256:257   */\n  0x00\n    /* \"#utility.yul\":249:264   */\n  revert\n    /* \"#utility.yul\":276:467   */\ntag_5:\n    /* \"#utility.yul\":316:319   */\n  0x00\n    /* \"#utility.yul\":335:355   */\n  tag_16\n    /* \"#utility.yul\":353:354   */\n  dup3\n    /* \"#utility.yul\":335:355   */\n  tag_10\n  jump\t// in\ntag_16:\n    /* \"#utility.yul\":330:355   */\n  swap2\n  pop\n    /* \"#utility.yul\":369:389   */\n  tag_17\n    /* \"#utility.yul\":387:388   */\n  dup4\n    /* \"#utility.yul\":369:389   */\n  tag_10\n  jump\t// in\ntag_17:\n    /* \"#utility.yul\":364:389   */\n  swap3\n  pop\n    /* \"#utility.yul\":412:413   */\n  dup3\n    /* \"#utility.yul\":409:410   */\n  dup3\n    /* \"#utility.yul\":405:414   */\n  add\n    /* \"#utility.yul\":398:414   */\n  swap1\n  pop\n    /* \"#utility.yul\":433:436   */\n  dup1\n    /* \"#utility.yul\":430:431   */\n  dup3\n    /* \"#utility.yul\":427:437   */\n  gt\n    /* \"#utility.yul\":424:460   */\n  iszero\n  tag_18\n  jumpi\n    /* \"#utility.yul\":440:458   */\n  tag_19\n  tag_11\n  jump\t// in\ntag_19:\n    /* \"#utility.yul\":424:460   */\ntag_18:\n    /* \"#utility.yul\":276:467   */\n  swap3\n  swap2\n  pop\n  pop\n  jump\t// out\n    /* \"#utility.yul\":473:653   */\ntag_8:\n    /* \"#utility.yul\":521:598   */\n  0x4e487b7100000000000000000000000000000000000000000000000000000000\n    /* \"#utility.yul\":518:519   */\n  0x00\n    /* \"#utility.yul\":511:599   */\n  mstore\n    /* \"#utility.yul\":618:622   */\n  0x21\n    /* \"#utility.yul\":615:616   */\n  0x04\n    /* \"#utility.yul\":608:623   */\n  mstore\n    /* \"#utility.yul\":642:646   */\n  0x24\n    /* \"#utility.yul\":639:640   */\n  0x00\n    /* \"#utility.yul\":632:647   */\n  revert\n    /* \"voting.sol\":59:3238  contract VotingContract {... */\ntag_9:\n  dataSize(sub_0)\n  dup1\n  dataOffset(sub_0)\n  0x00\n  codecopy\n  0x00\n  return\nstop\n\nsub_0: assembly {\n        /* \"voting.sol\":59:3238  contract VotingContract {... */\n      mstore(0x40, 0x80)\n      callvalue\n      dup1\n      iszero\n      tag_1\n      jumpi\n      0x00\n      dup1\n      revert\n    tag_1:\n      pop\n      jumpi(tag_2, lt(calldatasize, 0x04))\n      shr(0xe0, calldataload(0x00))\n      dup1\n      0x462e91ec\n      gt\n      tag_15\n      jumpi\n      dup1\n      0x462e91ec\n      eq\n      tag_9\n      jumpi\n      dup1\n      0x78e97925\n      eq\n      tag_10\n      jumpi\n      dup1\n      0x8da5cb5b\n      eq\n      tag_11\n      jumpi\n      dup1\n      0x8e7ea5b2\n      eq\n      tag_12\n      jumpi\n      dup1\n      0xa3ec138d\n      eq\n      tag_13\n      jumpi\n      dup1\n      0xc3403ddf\n      eq\n      tag_14\n      jumpi\n      jump(tag_2)\n    tag_15:\n      dup1\n      0x0121b93f\n      eq\n      tag_3\n      jumpi\n      dup1\n      0x0c3f6acf\n      eq\n      tag_4\n      jumpi\n      dup1\n      0x1ec6b60a\n      eq\n      tag_5\n      jumpi\n      dup1\n      0x2d35a8a2\n      eq\n      tag_6\n      jumpi\n      dup1\n      0x3197cbb6\n      eq\n      tag_7\n      jumpi\n      dup1\n      0x3477ee2e\n      eq\n      tag_8\n      jumpi\n    tag_2:\n      0x00\n      dup1\n      revert\n        /* \"voting.sol\":2193:2510  function vote(uint256 _candidateId) external onlyDuringVotingPeriod hasNotVoted {... */\n    tag_3:\n      tag_16\n      0x04\n      dup1\n      calldatasize\n      sub\n      dup2\n      add\n      swap1\n      tag_17\n      swap2\n      swap1\n      tag_18\n      jump\t// in\n    tag_17:\n      tag_19\n      jump\t// in\n    tag_16:\n      stop\n        /* \"voting.sol\":164:189  State public currentState */\n    tag_4:\n      tag_20\n      tag_21\n      jump\t// in\n    tag_20:\n      mload(0x40)\n      tag_22\n      swap2\n      swap1\n      tag_23\n      jump\t// in\n    tag_22:\n      mload(0x40)\n      dup1\n      swap2\n      sub\n      swap1\n      return\n        /* \"voting.sol\":1596:1773  function startVoting() external onlyOwner {... */\n    tag_5:\n      tag_24\n      tag_25\n      jump\t// in\n    tag_24:\n      stop\n        /* \"voting.sol\":427:457  uint256 public candidatesCount */\n    tag_6:\n      tag_26\n      tag_27\n      jump\t// in\n    tag_26:\n      mload(0x40)\n      tag_28\n      swap2\n      swap1\n      tag_29\n      jump\t// in\n    tag_28:\n      mload(0x40)\n      dup1\n      swap2\n      sub\n      swap1\n      return\n        /* \"voting.sol\":226:248  uint256 public endTime */\n    tag_7:\n      tag_30\n      tag_31\n      jump\t// in\n    tag_30:\n      mload(0x40)\n      tag_32\n      swap2\n      swap1\n      tag_29\n      jump\t// in\n    tag_32:\n      mload(0x40)\n      dup1\n      swap2\n      sub\n      swap1\n      return\n        /* \"voting.sol\":375:422  mapping(uint256 => Candidate) public candidates */\n    tag_8:\n      tag_33\n      0x04\n      dup1\n      calldatasize\n      sub\n      dup2\n      add\n      swap1\n      tag_34\n      swap2\n      swap1\n      tag_18\n      jump\t// in\n    tag_34:\n      tag_35\n      jump\t// in\n    tag_33:\n      mload(0x40)\n      tag_36\n      swap4\n      swap3\n      swap2\n      swap1\n      tag_37\n      jump\t// in\n    tag_36:\n      mload(0x40)\n      dup1\n      swap2\n      sub\n      swap1\n      return\n        /* \"voting.sol\":1995:2187  function addCandidate(string memory _name) external onlyOwner onlyDuringVotingPeriod {... */\n    tag_9:\n      tag_38\n      0x04\n      dup1\n      calldatasize\n      sub\n      dup2\n      add\n      swap1\n      tag_39\n      swap2\n      swap1\n      tag_40\n      jump\t// in\n    tag_39:\n      tag_41\n      jump\t// in\n    tag_38:\n      stop\n        /* \"voting.sol\":197:221  uint256 public startTime */\n    tag_10:\n      tag_42\n      tag_43\n      jump\t// in\n    tag_42:\n      mload(0x40)\n      tag_44\n      swap2\n      swap1\n      tag_29\n      jump\t// in\n    tag_44:\n      mload(0x40)\n      dup1\n      swap2\n      sub\n      swap1\n      return\n        /* \"voting.sol\":88:108  address public owner */\n    tag_11:\n      tag_45\n      tag_46\n      jump\t// in\n    tag_45:\n      mload(0x40)\n      tag_47\n      swap2\n      swap1\n      tag_48\n      jump\t// in\n    tag_47:\n      mload(0x40)\n      dup1\n      swap2\n      sub\n      swap1\n      return\n        /* \"voting.sol\":2516:2814  function getWinner() external view onlyAfterVotingPeriod returns (string memory winnerName, uint256 winnerVotes) {... */\n    tag_12:\n      tag_49\n      tag_50\n      jump\t// in\n    tag_49:\n      mload(0x40)\n      tag_51\n      swap3\n      swap2\n      swap1\n      tag_52\n      jump\t// in\n    tag_51:\n      mload(0x40)\n      dup1\n      swap2\n      sub\n      swap1\n      return\n        /* \"voting.sol\":533:572  mapping(address => Voter) public voters */\n    tag_13:\n      tag_53\n      0x04\n      dup1\n      calldatasize\n      sub\n      dup2\n      add\n      swap1\n      tag_54\n      swap2\n      swap1\n      tag_55\n      jump\t// in\n    tag_54:\n      tag_56\n      jump\t// in\n    tag_53:\n      mload(0x40)\n      tag_57\n      swap2\n      swap1\n      tag_58\n      jump\t// in\n    tag_57:\n      mload(0x40)\n      dup1\n      swap2\n      sub\n      swap1\n      return\n        /* \"voting.sol\":1779:1989  function endVoting() external onlyOwner onlyDuringVotingPeriod {... */\n    tag_14:\n      tag_59\n      tag_60\n      jump\t// in\n    tag_59:\n      stop\n        /* \"voting.sol\":2193:2510  function vote(uint256 _candidateId) external onlyDuringVotingPeriod hasNotVoted {... */\n    tag_19:\n        /* \"voting.sol\":905:921  State.InProgress */\n      0x01\n        /* \"voting.sol\":889:921  currentState == State.InProgress */\n      0x02\n      dup2\n      gt\n      iszero\n      tag_62\n      jumpi\n      tag_63\n      tag_64\n      jump\t// in\n    tag_63:\n    tag_62:\n        /* \"voting.sol\":889:901  currentState */\n      0x00\n      0x14\n      swap1\n      sload\n      swap1\n      0x0100\n      exp\n      swap1\n      div\n      0xff\n      and\n        /* \"voting.sol\":889:921  currentState == State.InProgress */\n      0x02\n      dup2\n      gt\n      iszero\n      tag_65\n      jumpi\n      tag_66\n      tag_64\n      jump\t// in\n    tag_66:\n    tag_65:\n      eq\n        /* \"voting.sol\":889:953  currentState == State.InProgress && block.timestamp >= startTime */\n      dup1\n      iszero\n      tag_67\n      jumpi\n      pop\n        /* \"voting.sol\":944:953  startTime */\n      sload(0x01)\n        /* \"voting.sol\":925:940  block.timestamp */\n      timestamp\n        /* \"voting.sol\":925:953  block.timestamp >= startTime */\n      lt\n      iszero\n        /* \"voting.sol\":889:953  currentState == State.InProgress && block.timestamp >= startTime */\n    tag_67:\n        /* \"voting.sol\":889:983  currentState == State.InProgress && block.timestamp >= startTime && block.timestamp <= endTime */\n      dup1\n      iszero\n      tag_68\n      jumpi\n      pop\n        /* \"voting.sol\":976:983  endTime */\n      sload(0x02)\n        /* \"voting.sol\":957:972  block.timestamp */\n      timestamp\n        /* \"voting.sol\":957:983  block.timestamp <= endTime */\n      gt\n      iszero\n        /* \"voting.sol\":889:983  currentState == State.InProgress && block.timestamp >= startTime && block.timestamp <= endTime */\n    tag_68:\n        /* \"voting.sol\":869:1038  require(... */\n      tag_69\n      jumpi\n      mload(0x40)\n      0x08c379a000000000000000000000000000000000000000000000000000000000\n      dup2\n      mstore\n      0x04\n      add\n      tag_70\n      swap1\n      tag_71\n      jump\t// in\n    tag_70:\n      mload(0x40)\n      dup1\n      swap2\n      sub\n      swap1\n      revert\n    tag_69:\n        /* \"voting.sol\":1261:1267  voters */\n      0x05\n        /* \"voting.sol\":1261:1279  voters[msg.sender] */\n      0x00\n        /* \"voting.sol\":1268:1278  msg.sender */\n      caller\n        /* \"voting.sol\":1261:1279  voters[msg.sender] */\n      0xffffffffffffffffffffffffffffffffffffffff\n      and\n      0xffffffffffffffffffffffffffffffffffffffff\n      and\n      dup2\n      mstore\n      0x20\n      add\n      swap1\n      dup2\n      mstore\n      0x20\n      add\n      0x00\n      keccak256\n        /* \"voting.sol\":1261:1288  voters[msg.sender].hasVoted */\n      0x00\n      add\n      0x00\n      swap1\n      sload\n      swap1\n      0x0100\n      exp\n      swap1\n      div\n      0xff\n      and\n        /* \"voting.sol\":1260:1288  !voters[msg.sender].hasVoted */\n      iszero\n        /* \"voting.sol\":1252:1315  require(!voters[msg.sender].hasVoted, \"You have already voted\") */\n      tag_73\n      jumpi\n      mload(0x40)\n      0x08c379a000000000000000000000000000000000000000000000000000000000\n      dup2\n      mstore\n      0x04\n      add\n      tag_74\n      swap1\n      tag_75\n      jump\t// in\n    tag_74:\n      mload(0x40)\n      dup1\n      swap2\n      sub\n      swap1\n      revert\n    tag_73:\n        /* \"voting.sol\":2305:2306  0 */\n      0x00\n        /* \"voting.sol\":2290:2302  _candidateId */\n      dup2\n        /* \"voting.sol\":2290:2306  _candidateId > 0 */\n      gt\n        /* \"voting.sol\":2290:2341  _candidateId > 0 && _candidateId <= candidatesCount */\n      dup1\n      iszero\n      tag_77\n      jumpi\n      pop\n        /* \"voting.sol\":2326:2341  candidatesCount */\n      sload(0x04)\n        /* \"voting.sol\":2310:2322  _candidateId */\n      dup2\n        /* \"voting.sol\":2310:2341  _candidateId <= candidatesCount */\n      gt\n      iszero\n        /* \"voting.sol\":2290:2341  _candidateId > 0 && _candidateId <= candidatesCount */\n    tag_77:\n        /* \"voting.sol\":2282:2366  require(_candidateId > 0 && _candidateId <= candidatesCount, \"Invalid candidate ID\") */\n      tag_78\n      jumpi\n      mload(0x40)\n      0x08c379a000000000000000000000000000000000000000000000000000000000\n      dup2\n      mstore\n      0x04\n      add\n      tag_79\n      swap1\n      tag_80\n      jump\t// in\n    tag_79:\n      mload(0x40)\n      dup1\n      swap2\n      sub\n      swap1\n      revert\n    tag_78:\n        /* \"voting.sol\":2405:2409  true */\n      0x01\n        /* \"voting.sol\":2375:2381  voters */\n      0x05\n        /* \"voting.sol\":2375:2393  voters[msg.sender] */\n      0x00\n        /* \"voting.sol\":2382:2392  msg.sender */\n      caller\n        /* \"voting.sol\":2375:2393  voters[msg.sender] */\n      0xffffffffffffffffffffffffffffffffffffffff\n      and\n      0xffffffffffffffffffffffffffffffffffffffff\n      and\n      dup2\n      mstore\n      0x20\n      add\n      swap1\n      dup2\n      mstore\n      0x20\n      add\n      0x00\n      keccak256\n        /* \"voting.sol\":2375:2402  voters[msg.sender].hasVoted */\n      0x00\n      add\n      0x00\n        /* \"voting.sol\":2375:2409  voters[msg.sender].hasVoted = true */\n      0x0100\n      exp\n      dup2\n      sload\n      dup2\n      0xff\n      mul\n      not\n      and\n      swap1\n      dup4\n      iszero\n      iszero\n      mul\n      or\n      swap1\n      sstore\n      pop\n        /* \"voting.sol\":2418:2428  candidates */\n      0x03\n        /* \"voting.sol\":2418:2442  candidates[_candidateId] */\n      0x00\n        /* \"voting.sol\":2429:2441  _candidateId */\n      dup3\n        /* \"voting.sol\":2418:2442  candidates[_candidateId] */\n      dup2\n      mstore\n      0x20\n      add\n      swap1\n      dup2\n      mstore\n      0x20\n      add\n      0x00\n      keccak256\n        /* \"voting.sol\":2418:2452  candidates[_candidateId].voteCount */\n      0x02\n      add\n      0x00\n        /* \"voting.sol\":2418:2454  candidates[_candidateId].voteCount++ */\n      dup2\n      sload\n      dup1\n      swap3\n      swap2\n      swap1\n      tag_81\n      swap1\n      tag_82\n      jump\t// in\n    tag_81:\n      swap2\n      swap1\n      pop\n      sstore\n      pop\n        /* \"voting.sol\":2479:2489  msg.sender */\n      caller\n        /* \"voting.sol\":2468:2504  VoteCasted(msg.sender, _candidateId) */\n      0xffffffffffffffffffffffffffffffffffffffff\n      and\n      0xd0e6c39f2e086dc49f1524b47725526a56945cd1ff661f37976f1725a1e56986\n        /* \"voting.sol\":2491:2503  _candidateId */\n      dup3\n        /* \"voting.sol\":2468:2504  VoteCasted(msg.sender, _candidateId) */\n      mload(0x40)\n      tag_83\n      swap2\n      swap1\n      tag_29\n      jump\t// in\n    tag_83:\n      mload(0x40)\n      dup1\n      swap2\n      sub\n      swap1\n      log2\n        /* \"voting.sol\":2193:2510  function vote(uint256 _candidateId) external onlyDuringVotingPeriod hasNotVoted {... */\n      pop\n      jump\t// out\n        /* \"voting.sol\":164:189  State public currentState */\n    tag_21:\n      0x00\n      0x14\n      swap1\n      sload\n      swap1\n      0x0100\n      exp\n      swap1\n      div\n      0xff\n      and\n      dup2\n      jump\t// out\n        /* \"voting.sol\":1596:1773  function startVoting() external onlyOwner {... */\n    tag_25:\n        /* \"voting.sol\":763:768  owner */\n      0x00\n      dup1\n      sload\n      swap1\n      0x0100\n      exp\n      swap1\n      div\n      0xffffffffffffffffffffffffffffffffffffffff\n      and\n        /* \"voting.sol\":749:768  msg.sender == owner */\n      0xffffffffffffffffffffffffffffffffffffffff\n      and\n        /* \"voting.sol\":749:759  msg.sender */\n      caller\n        /* \"voting.sol\":749:768  msg.sender == owner */\n      0xffffffffffffffffffffffffffffffffffffffff\n      and\n      eq\n        /* \"voting.sol\":741:804  require(msg.sender == owner, \"Only the owner can execute this\") */\n      tag_85\n      jumpi\n      mload(0x40)\n      0x08c379a000000000000000000000000000000000000000000000000000000000\n      dup2\n      mstore\n      0x04\n      add\n      tag_86\n      swap1\n      tag_87\n      jump\t// in\n    tag_86:\n      mload(0x40)\n      dup1\n      swap2\n      sub\n      swap1\n      revert\n    tag_85:\n        /* \"voting.sol\":1671:1687  State.NotStarted */\n      0x00\n        /* \"voting.sol\":1655:1687  currentState == State.NotStarted */\n      0x02\n      dup2\n      gt\n      iszero\n      tag_89\n      jumpi\n      tag_90\n      tag_64\n      jump\t// in\n    tag_90:\n    tag_89:\n        /* \"voting.sol\":1655:1667  currentState */\n      0x00\n      0x14\n      swap1\n      sload\n      swap1\n      0x0100\n      exp\n      swap1\n      div\n      0xff\n      and\n        /* \"voting.sol\":1655:1687  currentState == State.NotStarted */\n      0x02\n      dup2\n      gt\n      iszero\n      tag_91\n      jumpi\n      tag_92\n      tag_64\n      jump\t// in\n    tag_92:\n    tag_91:\n      eq\n        /* \"voting.sol\":1647:1727  require(currentState == State.NotStarted, \"Voting has already started or ended\") */\n      tag_93\n      jumpi\n      mload(0x40)\n      0x08c379a000000000000000000000000000000000000000000000000000000000\n      dup2\n      mstore\n      0x04\n      add\n      tag_94\n      swap1\n      tag_95\n      jump\t// in\n    tag_94:\n      mload(0x40)\n      dup1\n      swap2\n      sub\n      swap1\n      revert\n    tag_93:\n        /* \"voting.sol\":1751:1767  State.InProgress */\n      0x01\n        /* \"voting.sol\":1736:1748  currentState */\n      0x00\n      0x14\n        /* \"voting.sol\":1736:1767  currentState = State.InProgress */\n      0x0100\n      exp\n      dup2\n      sload\n      dup2\n      0xff\n      mul\n      not\n      and\n      swap1\n      dup4\n      0x02\n      dup2\n      gt\n      iszero\n      tag_96\n      jumpi\n      tag_97\n      tag_64\n      jump\t// in\n    tag_97:\n    tag_96:\n      mul\n      or\n      swap1\n      sstore\n      pop\n        /* \"voting.sol\":1596:1773  function startVoting() external onlyOwner {... */\n      jump\t// out\n        /* \"voting.sol\":427:457  uint256 public candidatesCount */\n    tag_27:\n      sload(0x04)\n      dup2\n      jump\t// out\n        /* \"voting.sol\":226:248  uint256 public endTime */\n    tag_31:\n      sload(0x02)\n      dup2\n      jump\t// out\n        /* \"voting.sol\":375:422  mapping(uint256 => Candidate) public candidates */\n    tag_35:\n      mstore(0x20, 0x03)\n      dup1\n      0x00\n      mstore\n      keccak256(0x00, 0x40)\n      0x00\n      swap2\n      pop\n      swap1\n      pop\n      dup1\n      0x00\n      add\n      sload\n      swap1\n      dup1\n      0x01\n      add\n      dup1\n      sload\n      tag_98\n      swap1\n      tag_99\n      jump\t// in\n    tag_98:\n      dup1\n      0x1f\n      add\n      0x20\n      dup1\n      swap2\n      div\n      mul\n      0x20\n      add\n      mload(0x40)\n      swap1\n      dup2\n      add\n      0x40\n      mstore\n      dup1\n      swap3\n      swap2\n      swap1\n      dup2\n      dup2\n      mstore\n      0x20\n      add\n      dup3\n      dup1\n      sload\n      tag_100\n      swap1\n      tag_99\n      jump\t// in\n    tag_100:\n      dup1\n      iszero\n      tag_101\n      jumpi\n      dup1\n      0x1f\n      lt\n      tag_102\n      jumpi\n      0x0100\n      dup1\n      dup4\n      sload\n      div\n      mul\n      dup4\n      mstore\n      swap2\n      0x20\n      add\n      swap2\n      jump(tag_101)\n    tag_102:\n      dup3\n      add\n      swap2\n      swap1\n      0x00\n      mstore\n      keccak256(0x00, 0x20)\n      swap1\n    tag_103:\n      dup2\n      sload\n      dup2\n      mstore\n      swap1\n      0x01\n      add\n      swap1\n      0x20\n      add\n      dup1\n      dup4\n      gt\n      tag_103\n      jumpi\n      dup3\n      swap1\n      sub\n      0x1f\n      and\n      dup3\n      add\n      swap2\n    tag_101:\n      pop\n      pop\n      pop\n      pop\n      pop\n      swap1\n      dup1\n      0x02\n      add\n      sload\n      swap1\n      pop\n      dup4\n      jump\t// out\n        /* \"voting.sol\":1995:2187  function addCandidate(string memory _name) external onlyOwner onlyDuringVotingPeriod {... */\n    tag_41:\n        /* \"voting.sol\":763:768  owner */\n      0x00\n      dup1\n      sload\n      swap1\n      0x0100\n      exp\n      swap1\n      div\n      0xffffffffffffffffffffffffffffffffffffffff\n      and\n        /* \"voting.sol\":749:768  msg.sender == owner */\n      0xffffffffffffffffffffffffffffffffffffffff\n      and\n        /* \"voting.sol\":749:759  msg.sender */\n      caller\n        /* \"voting.sol\":749:768  msg.sender == owner */\n      0xffffffffffffffffffffffffffffffffffffffff\n      and\n      eq\n        /* \"voting.sol\":741:804  require(msg.sender == owner, \"Only the owner can execute this\") */\n      tag_105\n      jumpi\n      mload(0x40)\n      0x08c379a000000000000000000000000000000000000000000000000000000000\n      dup2\n      mstore\n      0x04\n      add\n      tag_106\n      swap1\n      tag_87\n      jump\t// in\n    tag_106:\n      mload(0x40)\n      dup1\n      swap2\n      sub\n      swap1\n      revert\n    tag_105:\n        /* \"voting.sol\":905:921  State.InProgress */\n      0x01\n        /* \"voting.sol\":889:921  currentState == State.InProgress */\n      0x02\n      dup2\n      gt\n      iszero\n      tag_108\n      jumpi\n      tag_109\n      tag_64\n      jump\t// in\n    tag_109:\n    tag_108:\n        /* \"voting.sol\":889:901  currentState */\n      0x00\n      0x14\n      swap1\n      sload\n      swap1\n      0x0100\n      exp\n      swap1\n      div\n      0xff\n      and\n        /* \"voting.sol\":889:921  currentState == State.InProgress */\n      0x02\n      dup2\n      gt\n      iszero\n      tag_110\n      jumpi\n      tag_111\n      tag_64\n      jump\t// in\n    tag_111:\n    tag_110:\n      eq\n        /* \"voting.sol\":889:953  currentState == State.InProgress && block.timestamp >= startTime */\n      dup1\n      iszero\n      tag_112\n      jumpi\n      pop\n        /* \"voting.sol\":944:953  startTime */\n      sload(0x01)\n        /* \"voting.sol\":925:940  block.timestamp */\n      timestamp\n        /* \"voting.sol\":925:953  block.timestamp >= startTime */\n      lt\n      iszero\n        /* \"voting.sol\":889:953  currentState == State.InProgress && block.timestamp >= startTime */\n    tag_112:\n        /* \"voting.sol\":889:983  currentState == State.InProgress && block.timestamp >= startTime && block.timestamp <= endTime */\n      dup1\n      iszero\n      tag_113\n      jumpi\n      pop\n        /* \"voting.sol\":976:983  endTime */\n      sload(0x02)\n        /* \"voting.sol\":957:972  block.timestamp */\n      timestamp\n        /* \"voting.sol\":957:983  block.timestamp <= endTime */\n      gt\n      iszero\n        /* \"voting.sol\":889:983  currentState == State.InProgress && block.timestamp >= startTime && block.timestamp <= endTime */\n    tag_113:\n        /* \"voting.sol\":869:1038  require(... */\n      tag_114\n      jumpi\n      mload(0x40)\n      0x08c379a000000000000000000000000000000000000000000000000000000000\n      dup2\n      mstore\n      0x04\n      add\n      tag_115\n      swap1\n      tag_71\n      jump\t// in\n    tag_115:\n      mload(0x40)\n      dup1\n      swap2\n      sub\n      swap1\n      revert\n    tag_114:\n        /* \"voting.sol\":2089:2104  candidatesCount */\n      0x04\n      0x00\n        /* \"voting.sol\":2089:2106  candidatesCount++ */\n      dup2\n      sload\n      dup1\n      swap3\n      swap2\n      swap1\n      tag_117\n      swap1\n      tag_82\n      jump\t// in\n    tag_117:\n      swap2\n      swap1\n      pop\n      sstore\n      pop\n        /* \"voting.sol\":2145:2181  Candidate(candidatesCount, _name, 0) */\n      mload(0x40)\n      dup1\n      0x60\n      add\n      0x40\n      mstore\n      dup1\n        /* \"voting.sol\":2155:2170  candidatesCount */\n      sload(0x04)\n        /* \"voting.sol\":2145:2181  Candidate(candidatesCount, _name, 0) */\n      dup2\n      mstore\n      0x20\n      add\n        /* \"voting.sol\":2172:2177  _name */\n      dup3\n        /* \"voting.sol\":2145:2181  Candidate(candidatesCount, _name, 0) */\n      dup2\n      mstore\n      0x20\n      add\n        /* \"voting.sol\":2179:2180  0 */\n      0x00\n        /* \"voting.sol\":2145:2181  Candidate(candidatesCount, _name, 0) */\n      dup2\n      mstore\n      pop\n        /* \"voting.sol\":2115:2125  candidates */\n      0x03\n        /* \"voting.sol\":2115:2142  candidates[candidatesCount] */\n      0x00\n        /* \"voting.sol\":2126:2141  candidatesCount */\n      sload(0x04)\n        /* \"voting.sol\":2115:2142  candidates[candidatesCount] */\n      dup2\n      mstore\n      0x20\n      add\n      swap1\n      dup2\n      mstore\n      0x20\n      add\n      0x00\n      keccak256\n        /* \"voting.sol\":2115:2181  candidates[candidatesCount] = Candidate(candidatesCount, _name, 0) */\n      0x00\n      dup3\n      add\n      mload\n      dup2\n      0x00\n      add\n      sstore\n      0x20\n      dup3\n      add\n      mload\n      dup2\n      0x01\n      add\n      swap1\n      dup2\n      tag_118\n      swap2\n      swap1\n      tag_119\n      jump\t// in\n    tag_118:\n      pop\n      0x40\n      dup3\n      add\n      mload\n      dup2\n      0x02\n      add\n      sstore\n      swap1\n      pop\n      pop\n        /* \"voting.sol\":1995:2187  function addCandidate(string memory _name) external onlyOwner onlyDuringVotingPeriod {... */\n      pop\n      jump\t// out\n        /* \"voting.sol\":197:221  uint256 public startTime */\n    tag_43:\n      sload(0x01)\n      dup2\n      jump\t// out\n        /* \"voting.sol\":88:108  address public owner */\n    tag_46:\n      0x00\n      dup1\n      sload\n      swap1\n      0x0100\n      exp\n      swap1\n      div\n      0xffffffffffffffffffffffffffffffffffffffff\n      and\n      dup2\n      jump\t// out\n        /* \"voting.sol\":2516:2814  function getWinner() external view onlyAfterVotingPeriod returns (string memory winnerName, uint256 winnerVotes) {... */\n    tag_50:\n        /* \"voting.sol\":2582:2606  string memory winnerName */\n      0x60\n        /* \"voting.sol\":2608:2627  uint256 winnerVotes */\n      0x00\n        /* \"voting.sol\":1126:1137  State.Ended */\n      0x02\n        /* \"voting.sol\":1110:1137  currentState == State.Ended */\n      dup1\n      dup2\n      gt\n      iszero\n      tag_121\n      jumpi\n      tag_122\n      tag_64\n      jump\t// in\n    tag_122:\n    tag_121:\n        /* \"voting.sol\":1110:1122  currentState */\n      0x00\n      0x14\n      swap1\n      sload\n      swap1\n      0x0100\n      exp\n      swap1\n      div\n      0xff\n      and\n        /* \"voting.sol\":1110:1137  currentState == State.Ended */\n      0x02\n      dup2\n      gt\n      iszero\n      tag_123\n      jumpi\n      tag_124\n      tag_64\n      jump\t// in\n    tag_124:\n    tag_123:\n      eq\n        /* \"voting.sol\":1110:1166  currentState == State.Ended && block.timestamp > endTime */\n      dup1\n      iszero\n      tag_125\n      jumpi\n      pop\n        /* \"voting.sol\":1159:1166  endTime */\n      sload(0x02)\n        /* \"voting.sol\":1141:1156  block.timestamp */\n      timestamp\n        /* \"voting.sol\":1141:1166  block.timestamp > endTime */\n      gt\n        /* \"voting.sol\":1110:1166  currentState == State.Ended && block.timestamp > endTime */\n    tag_125:\n        /* \"voting.sol\":1102:1198  require(currentState == State.Ended && block.timestamp > endTime, \"Voting period has not ended\") */\n      tag_126\n      jumpi\n      mload(0x40)\n      0x08c379a000000000000000000000000000000000000000000000000000000000\n      dup2\n      mstore\n      0x04\n      add\n      tag_127\n      swap1\n      tag_128\n      jump\t// in\n    tag_127:\n      mload(0x40)\n      dup1\n      swap2\n      sub\n      swap1\n      revert\n    tag_126:\n        /* \"voting.sol\":2638:2664  uint256 winningCandidateId */\n      0x00\n        /* \"voting.sol\":2667:2688  getWinningCandidate() */\n      tag_130\n        /* \"voting.sol\":2667:2686  getWinningCandidate */\n      tag_131\n        /* \"voting.sol\":2667:2688  getWinningCandidate() */\n      jump\t// in\n    tag_130:\n        /* \"voting.sol\":2638:2688  uint256 winningCandidateId = getWinningCandidate() */\n      swap1\n      pop\n        /* \"voting.sol\":2710:2720  candidates */\n      0x03\n        /* \"voting.sol\":2710:2740  candidates[winningCandidateId] */\n      0x00\n        /* \"voting.sol\":2721:2739  winningCandidateId */\n      dup3\n        /* \"voting.sol\":2710:2740  candidates[winningCandidateId] */\n      dup2\n      mstore\n      0x20\n      add\n      swap1\n      dup2\n      mstore\n      0x20\n      add\n      0x00\n      keccak256\n        /* \"voting.sol\":2710:2745  candidates[winningCandidateId].name */\n      0x01\n      add\n        /* \"voting.sol\":2697:2745  winnerName = candidates[winningCandidateId].name */\n      dup1\n      sload\n      tag_132\n      swap1\n      tag_99\n      jump\t// in\n    tag_132:\n      dup1\n      0x1f\n      add\n      0x20\n      dup1\n      swap2\n      div\n      mul\n      0x20\n      add\n      mload(0x40)\n      swap1\n      dup2\n      add\n      0x40\n      mstore\n      dup1\n      swap3\n      swap2\n      swap1\n      dup2\n      dup2\n      mstore\n      0x20\n      add\n      dup3\n      dup1\n      sload\n      tag_133\n      swap1\n      tag_99\n      jump\t// in\n    tag_133:\n      dup1\n      iszero\n      tag_134\n      jumpi\n      dup1\n      0x1f\n      lt\n      tag_135\n      jumpi\n      0x0100\n      dup1\n      dup4\n      sload\n      div\n      mul\n      dup4\n      mstore\n      swap2\n      0x20\n      add\n      swap2\n      jump(tag_134)\n    tag_135:\n      dup3\n      add\n      swap2\n      swap1\n      0x00\n      mstore\n      keccak256(0x00, 0x20)\n      swap1\n    tag_136:\n      dup2\n      sload\n      dup2\n      mstore\n      swap1\n      0x01\n      add\n      swap1\n      0x20\n      add\n      dup1\n      dup4\n      gt\n      tag_136\n      jumpi\n      dup3\n      swap1\n      sub\n      0x1f\n      and\n      dup3\n      add\n      swap2\n    tag_134:\n      pop\n      pop\n      pop\n      pop\n      pop\n      swap3\n      pop\n        /* \"voting.sol\":2768:2778  candidates */\n      0x03\n        /* \"voting.sol\":2768:2798  candidates[winningCandidateId] */\n      0x00\n        /* \"voting.sol\":2779:2797  winningCandidateId */\n      dup3\n        /* \"voting.sol\":2768:2798  candidates[winningCandidateId] */\n      dup2\n      mstore\n      0x20\n      add\n      swap1\n      dup2\n      mstore\n      0x20\n      add\n      0x00\n      keccak256\n        /* \"voting.sol\":2768:2808  candidates[winningCandidateId].voteCount */\n      0x02\n      add\n      sload\n        /* \"voting.sol\":2754:2808  winnerVotes = candidates[winningCandidateId].voteCount */\n      swap2\n      pop\n        /* \"voting.sol\":2629:2814  {... */\n      pop\n        /* \"voting.sol\":2516:2814  function getWinner() external view onlyAfterVotingPeriod returns (string memory winnerName, uint256 winnerVotes) {... */\n      swap1\n      swap2\n      jump\t// out\n        /* \"voting.sol\":533:572  mapping(address => Voter) public voters */\n    tag_56:\n      mstore(0x20, 0x05)\n      dup1\n      0x00\n      mstore\n      keccak256(0x00, 0x40)\n      0x00\n      swap2\n      pop\n      swap1\n      pop\n      dup1\n      0x00\n      add\n      0x00\n      swap1\n      sload\n      swap1\n      0x0100\n      exp\n      swap1\n      div\n      0xff\n      and\n      swap1\n      pop\n      dup2\n      jump\t// out\n        /* \"voting.sol\":1779:1989  function endVoting() external onlyOwner onlyDuringVotingPeriod {... */\n    tag_60:\n        /* \"voting.sol\":763:768  owner */\n      0x00\n      dup1\n      sload\n      swap1\n      0x0100\n      exp\n      swap1\n      div\n      0xffffffffffffffffffffffffffffffffffffffff\n      and\n        /* \"voting.sol\":749:768  msg.sender == owner */\n      0xffffffffffffffffffffffffffffffffffffffff\n      and\n        /* \"voting.sol\":749:759  msg.sender */\n      caller\n        /* \"voting.sol\":749:768  msg.sender == owner */\n      0xffffffffffffffffffffffffffffffffffffffff\n      and\n      eq\n        /* \"voting.sol\":741:804  require(msg.sender == owner, \"Only the owner can execute this\") */\n      tag_138\n      jumpi\n      mload(0x40)\n      0x08c379a000000000000000000000000000000000000000000000000000000000\n      dup2\n      mstore\n      0x04\n      add\n      tag_139\n      swap1\n      tag_87\n      jump\t// in\n    tag_139:\n      mload(0x40)\n      dup1\n      swap2\n      sub\n      swap1\n      revert\n    tag_138:\n        /* \"voting.sol\":905:921  State.InProgress */\n      0x01\n        /* \"voting.sol\":889:921  currentState == State.InProgress */\n      0x02\n      dup2\n      gt\n      iszero\n      tag_141\n      jumpi\n      tag_142\n      tag_64\n      jump\t// in\n    tag_142:\n    tag_141:\n        /* \"voting.sol\":889:901  currentState */\n      0x00\n      0x14\n      swap1\n      sload\n      swap1\n      0x0100\n      exp\n      swap1\n      div\n      0xff\n      and\n        /* \"voting.sol\":889:921  currentState == State.InProgress */\n      0x02\n      dup2\n      gt\n      iszero\n      tag_143\n      jumpi\n      tag_144\n      tag_64\n      jump\t// in\n    tag_144:\n    tag_143:\n      eq\n        /* \"voting.sol\":889:953  currentState == State.InProgress && block.timestamp >= startTime */\n      dup1\n      iszero\n      tag_145\n      jumpi\n      pop\n        /* \"voting.sol\":944:953  startTime */\n      sload(0x01)\n        /* \"voting.sol\":925:940  block.timestamp */\n      timestamp\n        /* \"voting.sol\":925:953  block.timestamp >= startTime */\n      lt\n      iszero\n        /* \"voting.sol\":889:953  currentState == State.InProgress && block.timestamp >= startTime */\n    tag_145:\n        /* \"voting.sol\":889:983  currentState == State.InProgress && block.timestamp >= startTime && block.timestamp <= endTime */\n      dup1\n      iszero\n      tag_146\n      jumpi\n      pop\n        /* \"voting.sol\":976:983  endTime */\n      sload(0x02)\n        /* \"voting.sol\":957:972  block.timestamp */\n      timestamp\n        /* \"voting.sol\":957:983  block.timestamp <= endTime */\n      gt\n      iszero\n        /* \"voting.sol\":889:983  currentState == State.InProgress && block.timestamp >= startTime && block.timestamp <= endTime */\n    tag_146:\n        /* \"voting.sol\":869:1038  require(... */\n      tag_147\n      jumpi\n      mload(0x40)\n      0x08c379a000000000000000000000000000000000000000000000000000000000\n      dup2\n      mstore\n      0x04\n      add\n      tag_148\n      swap1\n      tag_71\n      jump\t// in\n    tag_148:\n      mload(0x40)\n      dup1\n      swap2\n      sub\n      swap1\n      revert\n    tag_147:\n        /* \"voting.sol\":1866:1877  State.Ended */\n      0x02\n        /* \"voting.sol\":1851:1863  currentState */\n      0x00\n      0x14\n        /* \"voting.sol\":1851:1877  currentState = State.Ended */\n      0x0100\n      exp\n      dup2\n      sload\n      dup2\n      0xff\n      mul\n      not\n      and\n      swap1\n      dup4\n      0x02\n      dup2\n      gt\n      iszero\n      tag_150\n      jumpi\n      tag_151\n      tag_64\n      jump\t// in\n    tag_151:\n    tag_150:\n      mul\n      or\n      swap1\n      sstore\n      pop\n        /* \"voting.sol\":1886:1912  uint256 winningCandidateId */\n      0x00\n        /* \"voting.sol\":1915:1936  getWinningCandidate() */\n      tag_152\n        /* \"voting.sol\":1915:1934  getWinningCandidate */\n      tag_131\n        /* \"voting.sol\":1915:1936  getWinningCandidate() */\n      jump\t// in\n    tag_152:\n        /* \"voting.sol\":1886:1936  uint256 winningCandidateId = getWinningCandidate() */\n      swap1\n      pop\n        /* \"voting.sol\":1950:1983  ElectionEnded(winningCandidateId) */\n      0x562cd572b2ba3b666cd989fc4ca98419ec81e75f04528df9d9d76fdb7807ee71\n        /* \"voting.sol\":1964:1982  winningCandidateId */\n      dup2\n        /* \"voting.sol\":1950:1983  ElectionEnded(winningCandidateId) */\n      mload(0x40)\n      tag_153\n      swap2\n      swap1\n      tag_29\n      jump\t// in\n    tag_153:\n      mload(0x40)\n      dup1\n      swap2\n      sub\n      swap1\n      log1\n        /* \"voting.sol\":1842:1989  {... */\n      pop\n        /* \"voting.sol\":1779:1989  function endVoting() external onlyOwner onlyDuringVotingPeriod {... */\n      jump\t// out\n        /* \"voting.sol\":2820:3236  function getWinningCandidate() internal view returns (uint256) {... */\n    tag_131:\n        /* \"voting.sol\":2874:2881  uint256 */\n      0x00\n        /* \"voting.sol\":2892:2916  uint256 winningVoteCount */\n      dup1\n        /* \"voting.sol\":2919:2920  0 */\n      0x00\n        /* \"voting.sol\":2892:2920  uint256 winningVoteCount = 0 */\n      swap1\n      pop\n        /* \"voting.sol\":2929:2955  uint256 winningCandidateId */\n      0x00\n        /* \"voting.sol\":2971:2980  uint256 i */\n      dup1\n        /* \"voting.sol\":2983:2984  1 */\n      0x01\n        /* \"voting.sol\":2971:2984  uint256 i = 1 */\n      swap1\n      pop\n        /* \"voting.sol\":2966:3195  for (uint256 i = 1; i <= candidatesCount; i++) {... */\n    tag_155:\n        /* \"voting.sol\":2991:3006  candidatesCount */\n      sload(0x04)\n        /* \"voting.sol\":2986:2987  i */\n      dup2\n        /* \"voting.sol\":2986:3006  i <= candidatesCount */\n      gt\n        /* \"voting.sol\":2966:3195  for (uint256 i = 1; i <= candidatesCount; i++) {... */\n      tag_156\n      jumpi\n        /* \"voting.sol\":3056:3072  winningVoteCount */\n      dup3\n        /* \"voting.sol\":3030:3040  candidates */\n      0x03\n        /* \"voting.sol\":3030:3043  candidates[i] */\n      0x00\n        /* \"voting.sol\":3041:3042  i */\n      dup4\n        /* \"voting.sol\":3030:3043  candidates[i] */\n      dup2\n      mstore\n      0x20\n      add\n      swap1\n      dup2\n      mstore\n      0x20\n      add\n      0x00\n      keccak256\n        /* \"voting.sol\":3030:3053  candidates[i].voteCount */\n      0x02\n      add\n      sload\n        /* \"voting.sol\":3030:3072  candidates[i].voteCount > winningVoteCount */\n      gt\n        /* \"voting.sol\":3026:3186  if (candidates[i].voteCount > winningVoteCount) {... */\n      iszero\n      tag_158\n      jumpi\n        /* \"voting.sol\":3110:3120  candidates */\n      0x03\n        /* \"voting.sol\":3110:3123  candidates[i] */\n      0x00\n        /* \"voting.sol\":3121:3122  i */\n      dup3\n        /* \"voting.sol\":3110:3123  candidates[i] */\n      dup2\n      mstore\n      0x20\n      add\n      swap1\n      dup2\n      mstore\n      0x20\n      add\n      0x00\n      keccak256\n        /* \"voting.sol\":3110:3133  candidates[i].voteCount */\n      0x02\n      add\n      sload\n        /* \"voting.sol\":3091:3133  winningVoteCount = candidates[i].voteCount */\n      swap3\n      pop\n        /* \"voting.sol\":3171:3172  i */\n      dup1\n        /* \"voting.sol\":3150:3172  winningCandidateId = i */\n      swap2\n      pop\n        /* \"voting.sol\":3026:3186  if (candidates[i].voteCount > winningVoteCount) {... */\n    tag_158:\n        /* \"voting.sol\":3008:3011  i++ */\n      dup1\n      dup1\n      tag_159\n      swap1\n      tag_82\n      jump\t// in\n    tag_159:\n      swap2\n      pop\n      pop\n        /* \"voting.sol\":2966:3195  for (uint256 i = 1; i <= candidatesCount; i++) {... */\n      jump(tag_155)\n    tag_156:\n      pop\n        /* \"voting.sol\":3212:3230  winningCandidateId */\n      dup1\n        /* \"voting.sol\":3205:3230  return winningCandidateId */\n      swap3\n      pop\n      pop\n      pop\n        /* \"voting.sol\":2820:3236  function getWinningCandidate() internal view returns (uint256) {... */\n      swap1\n      jump\t// out\n        /* \"#utility.yul\":7:82   */\n    tag_160:\n        /* \"#utility.yul\":40:46   */\n      0x00\n        /* \"#utility.yul\":73:75   */\n      0x40\n        /* \"#utility.yul\":67:76   */\n      mload\n        /* \"#utility.yul\":57:76   */\n      swap1\n      pop\n        /* \"#utility.yul\":7:82   */\n      swap1\n      jump\t// out\n        /* \"#utility.yul\":88:205   */\n    tag_161:\n        /* \"#utility.yul\":197:198   */\n      0x00\n        /* \"#utility.yul\":194:195   */\n      dup1\n        /* \"#utility.yul\":187:199   */\n      revert\n        /* \"#utility.yul\":211:328   */\n    tag_162:\n        /* \"#utility.yul\":320:321   */\n      0x00\n        /* \"#utility.yul\":317:318   */\n      dup1\n        /* \"#utility.yul\":310:322   */\n      revert\n        /* \"#utility.yul\":334:411   */\n    tag_163:\n        /* \"#utility.yul\":371:378   */\n      0x00\n        /* \"#utility.yul\":400:405   */\n      dup2\n        /* \"#utility.yul\":389:405   */\n      swap1\n      pop\n        /* \"#utility.yul\":334:411   */\n      swap2\n      swap1\n      pop\n      jump\t// out\n        /* \"#utility.yul\":417:539   */\n    tag_164:\n        /* \"#utility.yul\":490:514   */\n      tag_227\n        /* \"#utility.yul\":508:513   */\n      dup2\n        /* \"#utility.yul\":490:514   */\n      tag_163\n      jump\t// in\n    tag_227:\n        /* \"#utility.yul\":483:488   */\n      dup2\n        /* \"#utility.yul\":480:515   */\n      eq\n        /* \"#utility.yul\":470:533   */\n      tag_228\n      jumpi\n        /* \"#utility.yul\":529:530   */\n      0x00\n        /* \"#utility.yul\":526:527   */\n      dup1\n        /* \"#utility.yul\":519:531   */\n      revert\n        /* \"#utility.yul\":470:533   */\n    tag_228:\n        /* \"#utility.yul\":417:539   */\n      pop\n      jump\t// out\n        /* \"#utility.yul\":545:684   */\n    tag_165:\n        /* \"#utility.yul\":591:596   */\n      0x00\n        /* \"#utility.yul\":629:635   */\n      dup2\n        /* \"#utility.yul\":616:636   */\n      calldataload\n        /* \"#utility.yul\":607:636   */\n      swap1\n      pop\n        /* \"#utility.yul\":645:678   */\n      tag_230\n        /* \"#utility.yul\":672:677   */\n      dup2\n        /* \"#utility.yul\":645:678   */\n      tag_164\n      jump\t// in\n    tag_230:\n        /* \"#utility.yul\":545:684   */\n      swap3\n      swap2\n      pop\n      pop\n      jump\t// out\n        /* \"#utility.yul\":690:1019   */\n    tag_18:\n        /* \"#utility.yul\":749:755   */\n      0x00\n        /* \"#utility.yul\":798:800   */\n      0x20\n        /* \"#utility.yul\":786:795   */\n      dup3\n        /* \"#utility.yul\":777:784   */\n      dup5\n        /* \"#utility.yul\":773:796   */\n      sub\n        /* \"#utility.yul\":769:801   */\n      slt\n        /* \"#utility.yul\":766:885   */\n      iszero\n      tag_232\n      jumpi\n        /* \"#utility.yul\":804:883   */\n      tag_233\n      tag_161\n      jump\t// in\n    tag_233:\n        /* \"#utility.yul\":766:885   */\n    tag_232:\n        /* \"#utility.yul\":924:925   */\n      0x00\n        /* \"#utility.yul\":949:1002   */\n      tag_234\n        /* \"#utility.yul\":994:1001   */\n      dup5\n        /* \"#utility.yul\":985:991   */\n      dup3\n        /* \"#utility.yul\":974:983   */\n      dup6\n        /* \"#utility.yul\":970:992   */\n      add\n        /* \"#utility.yul\":949:1002   */\n      tag_165\n      jump\t// in\n    tag_234:\n        /* \"#utility.yul\":939:1002   */\n      swap2\n      pop\n        /* \"#utility.yul\":895:1012   */\n      pop\n        /* \"#utility.yul\":690:1019   */\n      swap3\n      swap2\n      pop\n      pop\n      jump\t// out\n        /* \"#utility.yul\":1025:1205   */\n    tag_64:\n        /* \"#utility.yul\":1073:1150   */\n      0x4e487b7100000000000000000000000000000000000000000000000000000000\n        /* \"#utility.yul\":1070:1071   */\n      0x00\n        /* \"#utility.yul\":1063:1151   */\n      mstore\n        /* \"#utility.yul\":1170:1174   */\n      0x21\n        /* \"#utility.yul\":1167:1168   */\n      0x04\n        /* \"#utility.yul\":1160:1175   */\n      mstore\n        /* \"#utility.yul\":1194:1198   */\n      0x24\n        /* \"#utility.yul\":1191:1192   */\n      0x00\n        /* \"#utility.yul\":1184:1199   */\n      revert\n        /* \"#utility.yul\":1211:1323   */\n    tag_166:\n        /* \"#utility.yul\":1291:1292   */\n      0x03\n        /* \"#utility.yul\":1284:1289   */\n      dup2\n        /* \"#utility.yul\":1281:1293   */\n      lt\n        /* \"#utility.yul\":1271:1317   */\n      tag_237\n      jumpi\n        /* \"#utility.yul\":1297:1315   */\n      tag_238\n      tag_64\n      jump\t// in\n    tag_238:\n        /* \"#utility.yul\":1271:1317   */\n    tag_237:\n        /* \"#utility.yul\":1211:1323   */\n      pop\n      jump\t// out\n        /* \"#utility.yul\":1329:1454   */\n    tag_167:\n        /* \"#utility.yul\":1373:1380   */\n      0x00\n        /* \"#utility.yul\":1402:1407   */\n      dup2\n        /* \"#utility.yul\":1391:1407   */\n      swap1\n      pop\n        /* \"#utility.yul\":1408:1448   */\n      tag_240\n        /* \"#utility.yul\":1442:1447   */\n      dup3\n        /* \"#utility.yul\":1408:1448   */\n      tag_166\n      jump\t// in\n    tag_240:\n        /* \"#utility.yul\":1329:1454   */\n      swap2\n      swap1\n      pop\n      jump\t// out\n        /* \"#utility.yul\":1460:1585   */\n    tag_168:\n        /* \"#utility.yul\":1515:1524   */\n      0x00\n        /* \"#utility.yul\":1548:1579   */\n      tag_242\n        /* \"#utility.yul\":1573:1578   */\n      dup3\n        /* \"#utility.yul\":1548:1579   */\n      tag_167\n      jump\t// in\n    tag_242:\n        /* \"#utility.yul\":1535:1579   */\n      swap1\n      pop\n        /* \"#utility.yul\":1460:1585   */\n      swap2\n      swap1\n      pop\n      jump\t// out\n        /* \"#utility.yul\":1591:1732   */\n    tag_169:\n        /* \"#utility.yul\":1683:1725   */\n      tag_244\n        /* \"#utility.yul\":1719:1724   */\n      dup2\n        /* \"#utility.yul\":1683:1725   */\n      tag_168\n      jump\t// in\n    tag_244:\n        /* \"#utility.yul\":1678:1681   */\n      dup3\n        /* \"#utility.yul\":1671:1726   */\n      mstore\n        /* \"#utility.yul\":1591:1732   */\n      pop\n      pop\n      jump\t// out\n        /* \"#utility.yul\":1738:1970   */\n    tag_23:\n        /* \"#utility.yul\":1836:1840   */\n      0x00\n        /* \"#utility.yul\":1874:1876   */\n      0x20\n        /* \"#utility.yul\":1863:1872   */\n      dup3\n        /* \"#utility.yul\":1859:1877   */\n      add\n        /* \"#utility.yul\":1851:1877   */\n      swap1\n      pop\n        /* \"#utility.yul\":1887:1963   */\n      tag_246\n        /* \"#utility.yul\":1960:1961   */\n      0x00\n        /* \"#utility.yul\":1949:1958   */\n      dup4\n        /* \"#utility.yul\":1945:1962   */\n      add\n        /* \"#utility.yul\":1936:1942   */\n      dup5\n        /* \"#utility.yul\":1887:1963   */\n      tag_169\n      jump\t// in\n    tag_246:\n        /* \"#utility.yul\":1738:1970   */\n      swap3\n      swap2\n      pop\n      pop\n      jump\t// out\n        /* \"#utility.yul\":1976:2094   */\n    tag_170:\n        /* \"#utility.yul\":2063:2087   */\n      tag_248\n        /* \"#utility.yul\":2081:2086   */\n      dup2\n        /* \"#utility.yul\":2063:2087   */\n      tag_163\n      jump\t// in\n    tag_248:\n        /* \"#utility.yul\":2058:2061   */\n      dup3\n        /* \"#utility.yul\":2051:2088   */\n      mstore\n        /* \"#utility.yul\":1976:2094   */\n      pop\n      pop\n      jump\t// out\n        /* \"#utility.yul\":2100:2322   */\n    tag_29:\n        /* \"#utility.yul\":2193:2197   */\n      0x00\n        /* \"#utility.yul\":2231:2233   */\n      0x20\n        /* \"#utility.yul\":2220:2229   */\n      dup3\n        /* \"#utility.yul\":2216:2234   */\n      add\n        /* \"#utility.yul\":2208:2234   */\n      swap1\n      pop\n        /* \"#utility.yul\":2244:2315   */\n      tag_250\n        /* \"#utility.yul\":2312:2313   */\n      0x00\n        /* \"#utility.yul\":2301:2310   */\n      dup4\n        /* \"#utility.yul\":2297:2314   */\n      add\n        /* \"#utility.yul\":2288:2294   */\n      dup5\n        /* \"#utility.yul\":2244:2315   */\n      tag_170\n      jump\t// in\n    tag_250:\n        /* \"#utility.yul\":2100:2322   */\n      swap3\n      swap2\n      pop\n      pop\n      jump\t// out\n        /* \"#utility.yul\":2328:2427   */\n    tag_171:\n        /* \"#utility.yul\":2380:2386   */\n      0x00\n        /* \"#utility.yul\":2414:2419   */\n      dup2\n        /* \"#utility.yul\":2408:2420   */\n      mload\n        /* \"#utility.yul\":2398:2420   */\n      swap1\n      pop\n        /* \"#utility.yul\":2328:2427   */\n      swap2\n      swap1\n      pop\n      jump\t// out\n        /* \"#utility.yul\":2433:2602   */\n    tag_172:\n        /* \"#utility.yul\":2517:2528   */\n      0x00\n        /* \"#utility.yul\":2551:2557   */\n      dup3\n        /* \"#utility.yul\":2546:2549   */\n      dup3\n        /* \"#utility.yul\":2539:2558   */\n      mstore\n        /* \"#utility.yul\":2591:2595   */\n      0x20\n        /* \"#utility.yul\":2586:2589   */\n      dup3\n        /* \"#utility.yul\":2582:2596   */\n      add\n        /* \"#utility.yul\":2567:2596   */\n      swap1\n      pop\n        /* \"#utility.yul\":2433:2602   */\n      swap3\n      swap2\n      pop\n      pop\n      jump\t// out\n        /* \"#utility.yul\":2608:2854   */\n    tag_173:\n        /* \"#utility.yul\":2689:2690   */\n      0x00\n        /* \"#utility.yul\":2699:2812   */\n    tag_254:\n        /* \"#utility.yul\":2713:2719   */\n      dup4\n        /* \"#utility.yul\":2710:2711   */\n      dup2\n        /* \"#utility.yul\":2707:2720   */\n      lt\n        /* \"#utility.yul\":2699:2812   */\n      iszero\n      tag_256\n      jumpi\n        /* \"#utility.yul\":2798:2799   */\n      dup1\n        /* \"#utility.yul\":2793:2796   */\n      dup3\n        /* \"#utility.yul\":2789:2800   */\n      add\n        /* \"#utility.yul\":2783:2801   */\n      mload\n        /* \"#utility.yul\":2779:2780   */\n      dup2\n        /* \"#utility.yul\":2774:2777   */\n      dup5\n        /* \"#utility.yul\":2770:2781   */\n      add\n        /* \"#utility.yul\":2763:2802   */\n      mstore\n        /* \"#utility.yul\":2735:2737   */\n      0x20\n        /* \"#utility.yul\":2732:2733   */\n      dup2\n        /* \"#utility.yul\":2728:2738   */\n      add\n        /* \"#utility.yul\":2723:2738   */\n      swap1\n      pop\n        /* \"#utility.yul\":2699:2812   */\n      jump(tag_254)\n    tag_256:\n        /* \"#utility.yul\":2846:2847   */\n      0x00\n        /* \"#utility.yul\":2837:2843   */\n      dup5\n        /* \"#utility.yul\":2832:2835   */\n      dup5\n        /* \"#utility.yul\":2828:2844   */\n      add\n        /* \"#utility.yul\":2821:2848   */\n      mstore\n        /* \"#utility.yul\":2670:2854   */\n      pop\n        /* \"#utility.yul\":2608:2854   */\n      pop\n      pop\n      pop\n      jump\t// out\n        /* \"#utility.yul\":2860:2962   */\n    tag_174:\n        /* \"#utility.yul\":2901:2907   */\n      0x00\n        /* \"#utility.yul\":2952:2954   */\n      0x1f\n        /* \"#utility.yul\":2948:2955   */\n      not\n        /* \"#utility.yul\":2943:2945   */\n      0x1f\n        /* \"#utility.yul\":2936:2941   */\n      dup4\n        /* \"#utility.yul\":2932:2946   */\n      add\n        /* \"#utility.yul\":2928:2956   */\n      and\n        /* \"#utility.yul\":2918:2956   */\n      swap1\n      pop\n        /* \"#utility.yul\":2860:2962   */\n      swap2\n      swap1\n      pop\n      jump\t// out\n        /* \"#utility.yul\":2968:3345   */\n    tag_175:\n        /* \"#utility.yul\":3056:3059   */\n      0x00\n        /* \"#utility.yul\":3084:3123   */\n      tag_259\n        /* \"#utility.yul\":3117:3122   */\n      dup3\n        /* \"#utility.yul\":3084:3123   */\n      tag_171\n      jump\t// in\n    tag_259:\n        /* \"#utility.yul\":3139:3210   */\n      tag_260\n        /* \"#utility.yul\":3203:3209   */\n      dup2\n        /* \"#utility.yul\":3198:3201   */\n      dup6\n        /* \"#utility.yul\":3139:3210   */\n      tag_172\n      jump\t// in\n    tag_260:\n        /* \"#utility.yul\":3132:3210   */\n      swap4\n      pop\n        /* \"#utility.yul\":3219:3284   */\n      tag_261\n        /* \"#utility.yul\":3277:3283   */\n      dup2\n        /* \"#utility.yul\":3272:3275   */\n      dup6\n        /* \"#utility.yul\":3265:3269   */\n      0x20\n        /* \"#utility.yul\":3258:3263   */\n      dup7\n        /* \"#utility.yul\":3254:3270   */\n      add\n        /* \"#utility.yul\":3219:3284   */\n      tag_173\n      jump\t// in\n    tag_261:\n        /* \"#utility.yul\":3309:3338   */\n      tag_262\n        /* \"#utility.yul\":3331:3337   */\n      dup2\n        /* \"#utility.yul\":3309:3338   */\n      tag_174\n      jump\t// in\n    tag_262:\n        /* \"#utility.yul\":3304:3307   */\n      dup5\n        /* \"#utility.yul\":3300:3339   */\n      add\n        /* \"#utility.yul\":3293:3339   */\n      swap2\n      pop\n        /* \"#utility.yul\":3060:3345   */\n      pop\n        /* \"#utility.yul\":2968:3345   */\n      swap3\n      swap2\n      pop\n      pop\n      jump\t// out\n        /* \"#utility.yul\":3351:3884   */\n    tag_37:\n        /* \"#utility.yul\":3520:3524   */\n      0x00\n        /* \"#utility.yul\":3558:3560   */\n      0x60\n        /* \"#utility.yul\":3547:3556   */\n      dup3\n        /* \"#utility.yul\":3543:3561   */\n      add\n        /* \"#utility.yul\":3535:3561   */\n      swap1\n      pop\n        /* \"#utility.yul\":3571:3642   */\n      tag_264\n        /* \"#utility.yul\":3639:3640   */\n      0x00\n        /* \"#utility.yul\":3628:3637   */\n      dup4\n        /* \"#utility.yul\":3624:3641   */\n      add\n        /* \"#utility.yul\":3615:3621   */\n      dup7\n        /* \"#utility.yul\":3571:3642   */\n      tag_170\n      jump\t// in\n    tag_264:\n        /* \"#utility.yul\":3689:3698   */\n      dup2\n        /* \"#utility.yul\":3683:3687   */\n      dup2\n        /* \"#utility.yul\":3679:3699   */\n      sub\n        /* \"#utility.yul\":3674:3676   */\n      0x20\n        /* \"#utility.yul\":3663:3672   */\n      dup4\n        /* \"#utility.yul\":3659:3677   */\n      add\n        /* \"#utility.yul\":3652:3700   */\n      mstore\n        /* \"#utility.yul\":3717:3795   */\n      tag_265\n        /* \"#utility.yul\":3790:3794   */\n      dup2\n        /* \"#utility.yul\":3781:3787   */\n      dup6\n        /* \"#utility.yul\":3717:3795   */\n      tag_175\n      jump\t// in\n    tag_265:\n        /* \"#utility.yul\":3709:3795   */\n      swap1\n      pop\n        /* \"#utility.yul\":3805:3877   */\n      tag_266\n        /* \"#utility.yul\":3873:3875   */\n      0x40\n        /* \"#utility.yul\":3862:3871   */\n      dup4\n        /* \"#utility.yul\":3858:3876   */\n      add\n        /* \"#utility.yul\":3849:3855   */\n      dup5\n        /* \"#utility.yul\":3805:3877   */\n      tag_170\n      jump\t// in\n    tag_266:\n        /* \"#utility.yul\":3351:3884   */\n      swap5\n      swap4\n      pop\n      pop\n      pop\n      pop\n      jump\t// out\n        /* \"#utility.yul\":3890:4007   */\n    tag_176:\n        /* \"#utility.yul\":3999:4000   */\n      0x00\n        /* \"#utility.yul\":3996:3997   */\n      dup1\n        /* \"#utility.yul\":3989:4001   */\n      revert\n        /* \"#utility.yul\":4013:4130   */\n    tag_177:\n        /* \"#utility.yul\":4122:4123   */\n      0x00\n        /* \"#utility.yul\":4119:4120   */\n      dup1\n        /* \"#utility.yul\":4112:4124   */\n      revert\n        /* \"#utility.yul\":4136:4316   */\n    tag_178:\n        /* \"#utility.yul\":4184:4261   */\n      0x4e487b7100000000000000000000000000000000000000000000000000000000\n        /* \"#utility.yul\":4181:4182   */\n      0x00\n        /* \"#utility.yul\":4174:4262   */\n      mstore\n        /* \"#utility.yul\":4281:4285   */\n      0x41\n        /* \"#utility.yul\":4278:4279   */\n      0x04\n        /* \"#utility.yul\":4271:4286   */\n      mstore\n        /* \"#utility.yul\":4305:4309   */\n      0x24\n        /* \"#utility.yul\":4302:4303   */\n      0x00\n        /* \"#utility.yul\":4295:4310   */\n      revert\n        /* \"#utility.yul\":4322:4603   */\n    tag_179:\n        /* \"#utility.yul\":4405:4432   */\n      tag_271\n        /* \"#utility.yul\":4427:4431   */\n      dup3\n        /* \"#utility.yul\":4405:4432   */\n      tag_174\n      jump\t// in\n    tag_271:\n        /* \"#utility.yul\":4397:4403   */\n      dup2\n        /* \"#utility.yul\":4393:4433   */\n      add\n        /* \"#utility.yul\":4535:4541   */\n      dup2\n        /* \"#utility.yul\":4523:4533   */\n      dup2\n        /* \"#utility.yul\":4520:4542   */\n      lt\n        /* \"#utility.yul\":4499:4517   */\n      0xffffffffffffffff\n        /* \"#utility.yul\":4487:4497   */\n      dup3\n        /* \"#utility.yul\":4484:4518   */\n      gt\n        /* \"#utility.yul\":4481:4543   */\n      or\n        /* \"#utility.yul\":4478:4566   */\n      iszero\n      tag_272\n      jumpi\n        /* \"#utility.yul\":4546:4564   */\n      tag_273\n      tag_178\n      jump\t// in\n    tag_273:\n        /* \"#utility.yul\":4478:4566   */\n    tag_272:\n        /* \"#utility.yul\":4586:4596   */\n      dup1\n        /* \"#utility.yul\":4582:4584   */\n      0x40\n        /* \"#utility.yul\":4575:4597   */\n      mstore\n        /* \"#utility.yul\":4365:4603   */\n      pop\n        /* \"#utility.yul\":4322:4603   */\n      pop\n      pop\n      jump\t// out\n        /* \"#utility.yul\":4609:4738   */\n    tag_180:\n        /* \"#utility.yul\":4643:4649   */\n      0x00\n        /* \"#utility.yul\":4670:4690   */\n      tag_275\n      tag_160\n      jump\t// in\n    tag_275:\n        /* \"#utility.yul\":4660:4690   */\n      swap1\n      pop\n        /* \"#utility.yul\":4699:4732   */\n      tag_276\n        /* \"#utility.yul\":4727:4731   */\n      dup3\n        /* \"#utility.yul\":4719:4725   */\n      dup3\n        /* \"#utility.yul\":4699:4732   */\n      tag_179\n      jump\t// in\n    tag_276:\n        /* \"#utility.yul\":4609:4738   */\n      swap2\n      swap1\n      pop\n      jump\t// out\n        /* \"#utility.yul\":4744:5052   */\n    tag_181:\n        /* \"#utility.yul\":4806:4810   */\n      0x00\n        /* \"#utility.yul\":4896:4914   */\n      0xffffffffffffffff\n        /* \"#utility.yul\":4888:4894   */\n      dup3\n        /* \"#utility.yul\":4885:4915   */\n      gt\n        /* \"#utility.yul\":4882:4938   */\n      iszero\n      tag_278\n      jumpi\n        /* \"#utility.yul\":4918:4936   */\n      tag_279\n      tag_178\n      jump\t// in\n    tag_279:\n        /* \"#utility.yul\":4882:4938   */\n    tag_278:\n        /* \"#utility.yul\":4956:4985   */\n      tag_280\n        /* \"#utility.yul\":4978:4984   */\n      dup3\n        /* \"#utility.yul\":4956:4985   */\n      tag_174\n      jump\t// in\n    tag_280:\n        /* \"#utility.yul\":4948:4985   */\n      swap1\n      pop\n        /* \"#utility.yul\":5040:5044   */\n      0x20\n        /* \"#utility.yul\":5034:5038   */\n      dup2\n        /* \"#utility.yul\":5030:5045   */\n      add\n        /* \"#utility.yul\":5022:5045   */\n      swap1\n      pop\n        /* \"#utility.yul\":4744:5052   */\n      swap2\n      swap1\n      pop\n      jump\t// out\n        /* \"#utility.yul\":5058:5204   */\n    tag_182:\n        /* \"#utility.yul\":5155:5161   */\n      dup3\n        /* \"#utility.yul\":5150:5153   */\n      dup2\n        /* \"#utility.yul\":5145:5148   */\n      dup4\n        /* \"#utility.yul\":5132:5162   */\n      calldatacopy\n        /* \"#utility.yul\":5196:5197   */\n      0x00\n        /* \"#utility.yul\":5187:5193   */\n      dup4\n        /* \"#utility.yul\":5182:5185   */\n      dup4\n        /* \"#utility.yul\":5178:5194   */\n      add\n        /* \"#utility.yul\":5171:5198   */\n      mstore\n        /* \"#utility.yul\":5058:5204   */\n      pop\n      pop\n      pop\n      jump\t// out\n        /* \"#utility.yul\":5210:5635   */\n    tag_183:\n        /* \"#utility.yul\":5288:5293   */\n      0x00\n        /* \"#utility.yul\":5313:5379   */\n      tag_283\n        /* \"#utility.yul\":5329:5378   */\n      tag_284\n        /* \"#utility.yul\":5371:5377   */\n      dup5\n        /* \"#utility.yul\":5329:5378   */\n      tag_181\n      jump\t// in\n    tag_284:\n        /* \"#utility.yul\":5313:5379   */\n      tag_180\n      jump\t// in\n    tag_283:\n        /* \"#utility.yul\":5304:5379   */\n      swap1\n      pop\n        /* \"#utility.yul\":5402:5408   */\n      dup3\n        /* \"#utility.yul\":5395:5400   */\n      dup2\n        /* \"#utility.yul\":5388:5409   */\n      mstore\n        /* \"#utility.yul\":5440:5444   */\n      0x20\n        /* \"#utility.yul\":5433:5438   */\n      dup2\n        /* \"#utility.yul\":5429:5445   */\n      add\n        /* \"#utility.yul\":5478:5481   */\n      dup5\n        /* \"#utility.yul\":5469:5475   */\n      dup5\n        /* \"#utility.yul\":5464:5467   */\n      dup5\n        /* \"#utility.yul\":5460:5476   */\n      add\n        /* \"#utility.yul\":5457:5482   */\n      gt\n        /* \"#utility.yul\":5454:5566   */\n      iszero\n      tag_285\n      jumpi\n        /* \"#utility.yul\":5485:5564   */\n      tag_286\n      tag_177\n      jump\t// in\n    tag_286:\n        /* \"#utility.yul\":5454:5566   */\n    tag_285:\n        /* \"#utility.yul\":5575:5629   */\n      tag_287\n        /* \"#utility.yul\":5622:5628   */\n      dup5\n        /* \"#utility.yul\":5617:5620   */\n      dup3\n        /* \"#utility.yul\":5612:5615   */\n      dup6\n        /* \"#utility.yul\":5575:5629   */\n      tag_182\n      jump\t// in\n    tag_287:\n        /* \"#utility.yul\":5294:5635   */\n      pop\n        /* \"#utility.yul\":5210:5635   */\n      swap4\n      swap3\n      pop\n      pop\n      pop\n      jump\t// out\n        /* \"#utility.yul\":5655:5995   */\n    tag_184:\n        /* \"#utility.yul\":5711:5716   */\n      0x00\n        /* \"#utility.yul\":5760:5763   */\n      dup3\n        /* \"#utility.yul\":5753:5757   */\n      0x1f\n        /* \"#utility.yul\":5745:5751   */\n      dup4\n        /* \"#utility.yul\":5741:5758   */\n      add\n        /* \"#utility.yul\":5737:5764   */\n      slt\n        /* \"#utility.yul\":5727:5849   */\n      tag_289\n      jumpi\n        /* \"#utility.yul\":5768:5847   */\n      tag_290\n      tag_176\n      jump\t// in\n    tag_290:\n        /* \"#utility.yul\":5727:5849   */\n    tag_289:\n        /* \"#utility.yul\":5885:5891   */\n      dup2\n        /* \"#utility.yul\":5872:5892   */\n      calldataload\n        /* \"#utility.yul\":5910:5989   */\n      tag_291\n        /* \"#utility.yul\":5985:5988   */\n      dup5\n        /* \"#utility.yul\":5977:5983   */\n      dup3\n        /* \"#utility.yul\":5970:5974   */\n      0x20\n        /* \"#utility.yul\":5962:5968   */\n      dup7\n        /* \"#utility.yul\":5958:5975   */\n      add\n        /* \"#utility.yul\":5910:5989   */\n      tag_183\n      jump\t// in\n    tag_291:\n        /* \"#utility.yul\":5901:5989   */\n      swap2\n      pop\n        /* \"#utility.yul\":5717:5995   */\n      pop\n        /* \"#utility.yul\":5655:5995   */\n      swap3\n      swap2\n      pop\n      pop\n      jump\t// out\n        /* \"#utility.yul\":6001:6510   */\n    tag_40:\n        /* \"#utility.yul\":6070:6076   */\n      0x00\n        /* \"#utility.yul\":6119:6121   */\n      0x20\n        /* \"#utility.yul\":6107:6116   */\n      dup3\n        /* \"#utility.yul\":6098:6105   */\n      dup5\n        /* \"#utility.yul\":6094:6117   */\n      sub\n        /* \"#utility.yul\":6090:6122   */\n      slt\n        /* \"#utility.yul\":6087:6206   */\n      iszero\n      tag_293\n      jumpi\n        /* \"#utility.yul\":6125:6204   */\n      tag_294\n      tag_161\n      jump\t// in\n    tag_294:\n        /* \"#utility.yul\":6087:6206   */\n    tag_293:\n        /* \"#utility.yul\":6273:6274   */\n      0x00\n        /* \"#utility.yul\":6262:6271   */\n      dup3\n        /* \"#utility.yul\":6258:6275   */\n      add\n        /* \"#utility.yul\":6245:6276   */\n      calldataload\n        /* \"#utility.yul\":6303:6321   */\n      0xffffffffffffffff\n        /* \"#utility.yul\":6295:6301   */\n      dup2\n        /* \"#utility.yul\":6292:6322   */\n      gt\n        /* \"#utility.yul\":6289:6406   */\n      iszero\n      tag_295\n      jumpi\n        /* \"#utility.yul\":6325:6404   */\n      tag_296\n      tag_162\n      jump\t// in\n    tag_296:\n        /* \"#utility.yul\":6289:6406   */\n    tag_295:\n        /* \"#utility.yul\":6430:6493   */\n      tag_297\n        /* \"#utility.yul\":6485:6492   */\n      dup5\n        /* \"#utility.yul\":6476:6482   */\n      dup3\n        /* \"#utility.yul\":6465:6474   */\n      dup6\n        /* \"#utility.yul\":6461:6483   */\n      add\n        /* \"#utility.yul\":6430:6493   */\n      tag_184\n      jump\t// in\n    tag_297:\n        /* \"#utility.yul\":6420:6493   */\n      swap2\n      pop\n        /* \"#utility.yul\":6216:6503   */\n      pop\n        /* \"#utility.yul\":6001:6510   */\n      swap3\n      swap2\n      pop\n      pop\n      jump\t// out\n        /* \"#utility.yul\":6516:6642   */\n    tag_185:\n        /* \"#utility.yul\":6553:6560   */\n      0x00\n        /* \"#utility.yul\":6593:6635   */\n      0xffffffffffffffffffffffffffffffffffffffff\n        /* \"#utility.yul\":6586:6591   */\n      dup3\n        /* \"#utility.yul\":6582:6636   */\n      and\n        /* \"#utility.yul\":6571:6636   */\n      swap1\n      pop\n        /* \"#utility.yul\":6516:6642   */\n      swap2\n      swap1\n      pop\n      jump\t// out\n        /* \"#utility.yul\":6648:6744   */\n    tag_186:\n        /* \"#utility.yul\":6685:6692   */\n      0x00\n        /* \"#utility.yul\":6714:6738   */\n      tag_300\n        /* \"#utility.yul\":6732:6737   */\n      dup3\n        /* \"#utility.yul\":6714:6738   */\n      tag_185\n      jump\t// in\n    tag_300:\n        /* \"#utility.yul\":6703:6738   */\n      swap1\n      pop\n        /* \"#utility.yul\":6648:6744   */\n      swap2\n      swap1\n      pop\n      jump\t// out\n        /* \"#utility.yul\":6750:6868   */\n    tag_187:\n        /* \"#utility.yul\":6837:6861   */\n      tag_302\n        /* \"#utility.yul\":6855:6860   */\n      dup2\n        /* \"#utility.yul\":6837:6861   */\n      tag_186\n      jump\t// in\n    tag_302:\n        /* \"#utility.yul\":6832:6835   */\n      dup3\n        /* \"#utility.yul\":6825:6862   */\n      mstore\n        /* \"#utility.yul\":6750:6868   */\n      pop\n      pop\n      jump\t// out\n        /* \"#utility.yul\":6874:7096   */\n    tag_48:\n        /* \"#utility.yul\":6967:6971   */\n      0x00\n        /* \"#utility.yul\":7005:7007   */\n      0x20\n        /* \"#utility.yul\":6994:7003   */\n      dup3\n        /* \"#utility.yul\":6990:7008   */\n      add\n        /* \"#utility.yul\":6982:7008   */\n      swap1\n      pop\n        /* \"#utility.yul\":7018:7089   */\n      tag_304\n        /* \"#utility.yul\":7086:7087   */\n      0x00\n        /* \"#utility.yul\":7075:7084   */\n      dup4\n        /* \"#utility.yul\":7071:7088   */\n      add\n        /* \"#utility.yul\":7062:7068   */\n      dup5\n        /* \"#utility.yul\":7018:7089   */\n      tag_187\n      jump\t// in\n    tag_304:\n        /* \"#utility.yul\":6874:7096   */\n      swap3\n      swap2\n      pop\n      pop\n      jump\t// out\n        /* \"#utility.yul\":7102:7525   */\n    tag_52:\n        /* \"#utility.yul\":7243:7247   */\n      0x00\n        /* \"#utility.yul\":7281:7283   */\n      0x40\n        /* \"#utility.yul\":7270:7279   */\n      dup3\n        /* \"#utility.yul\":7266:7284   */\n      add\n        /* \"#utility.yul\":7258:7284   */\n      swap1\n      pop\n        /* \"#utility.yul\":7330:7339   */\n      dup2\n        /* \"#utility.yul\":7324:7328   */\n      dup2\n        /* \"#utility.yul\":7320:7340   */\n      sub\n        /* \"#utility.yul\":7316:7317   */\n      0x00\n        /* \"#utility.yul\":7305:7314   */\n      dup4\n        /* \"#utility.yul\":7301:7318   */\n      add\n        /* \"#utility.yul\":7294:7341   */\n      mstore\n        /* \"#utility.yul\":7358:7436   */\n      tag_306\n        /* \"#utility.yul\":7431:7435   */\n      dup2\n        /* \"#utility.yul\":7422:7428   */\n      dup6\n        /* \"#utility.yul\":7358:7436   */\n      tag_175\n      jump\t// in\n    tag_306:\n        /* \"#utility.yul\":7350:7436   */\n      swap1\n      pop\n        /* \"#utility.yul\":7446:7518   */\n      tag_307\n        /* \"#utility.yul\":7514:7516   */\n      0x20\n        /* \"#utility.yul\":7503:7512   */\n      dup4\n        /* \"#utility.yul\":7499:7517   */\n      add\n        /* \"#utility.yul\":7490:7496   */\n      dup5\n        /* \"#utility.yul\":7446:7518   */\n      tag_170\n      jump\t// in\n    tag_307:\n        /* \"#utility.yul\":7102:7525   */\n      swap4\n      swap3\n      pop\n      pop\n      pop\n      jump\t// out\n        /* \"#utility.yul\":7531:7653   */\n    tag_188:\n        /* \"#utility.yul\":7604:7628   */\n      tag_309\n        /* \"#utility.yul\":7622:7627   */\n      dup2\n        /* \"#utility.yul\":7604:7628   */\n      tag_186\n      jump\t// in\n    tag_309:\n        /* \"#utility.yul\":7597:7602   */\n      dup2\n        /* \"#utility.yul\":7594:7629   */\n      eq\n        /* \"#utility.yul\":7584:7647   */\n      tag_310\n      jumpi\n        /* \"#utility.yul\":7643:7644   */\n      0x00\n        /* \"#utility.yul\":7640:7641   */\n      dup1\n        /* \"#utility.yul\":7633:7645   */\n      revert\n        /* \"#utility.yul\":7584:7647   */\n    tag_310:\n        /* \"#utility.yul\":7531:7653   */\n      pop\n      jump\t// out\n        /* \"#utility.yul\":7659:7798   */\n    tag_189:\n        /* \"#utility.yul\":7705:7710   */\n      0x00\n        /* \"#utility.yul\":7743:7749   */\n      dup2\n        /* \"#utility.yul\":7730:7750   */\n      calldataload\n        /* \"#utility.yul\":7721:7750   */\n      swap1\n      pop\n        /* \"#utility.yul\":7759:7792   */\n      tag_312\n        /* \"#utility.yul\":7786:7791   */\n      dup2\n        /* \"#utility.yul\":7759:7792   */\n      tag_188\n      jump\t// in\n    tag_312:\n        /* \"#utility.yul\":7659:7798   */\n      swap3\n      swap2\n      pop\n      pop\n      jump\t// out\n        /* \"#utility.yul\":7804:8133   */\n    tag_55:\n        /* \"#utility.yul\":7863:7869   */\n      0x00\n        /* \"#utility.yul\":7912:7914   */\n      0x20\n        /* \"#utility.yul\":7900:7909   */\n      dup3\n        /* \"#utility.yul\":7891:7898   */\n      dup5\n        /* \"#utility.yul\":7887:7910   */\n      sub\n        /* \"#utility.yul\":7883:7915   */\n      slt\n        /* \"#utility.yul\":7880:7999   */\n      iszero\n      tag_314\n      jumpi\n        /* \"#utility.yul\":7918:7997   */\n      tag_315\n      tag_161\n      jump\t// in\n    tag_315:\n        /* \"#utility.yul\":7880:7999   */\n    tag_314:\n        /* \"#utility.yul\":8038:8039   */\n      0x00\n        /* \"#utility.yul\":8063:8116   */\n      tag_316\n        /* \"#utility.yul\":8108:8115   */\n      dup5\n        /* \"#utility.yul\":8099:8105   */\n      dup3\n        /* \"#utility.yul\":8088:8097   */\n      dup6\n        /* \"#utility.yul\":8084:8106   */\n      add\n        /* \"#utility.yul\":8063:8116   */\n      tag_189\n      jump\t// in\n    tag_316:\n        /* \"#utility.yul\":8053:8116   */\n      swap2\n      pop\n        /* \"#utility.yul\":8009:8126   */\n      pop\n        /* \"#utility.yul\":7804:8133   */\n      swap3\n      swap2\n      pop\n      pop\n      jump\t// out\n        /* \"#utility.yul\":8139:8229   */\n    tag_190:\n        /* \"#utility.yul\":8173:8180   */\n      0x00\n        /* \"#utility.yul\":8216:8221   */\n      dup2\n        /* \"#utility.yul\":8209:8222   */\n      iszero\n        /* \"#utility.yul\":8202:8223   */\n      iszero\n        /* \"#utility.yul\":8191:8223   */\n      swap1\n      pop\n        /* \"#utility.yul\":8139:8229   */\n      swap2\n      swap1\n      pop\n      jump\t// out\n        /* \"#utility.yul\":8235:8344   */\n    tag_191:\n        /* \"#utility.yul\":8316:8337   */\n      tag_319\n        /* \"#utility.yul\":8331:8336   */\n      dup2\n        /* \"#utility.yul\":8316:8337   */\n      tag_190\n      jump\t// in\n    tag_319:\n        /* \"#utility.yul\":8311:8314   */\n      dup3\n        /* \"#utility.yul\":8304:8338   */\n      mstore\n        /* \"#utility.yul\":8235:8344   */\n      pop\n      pop\n      jump\t// out\n        /* \"#utility.yul\":8350:8560   */\n    tag_58:\n        /* \"#utility.yul\":8437:8441   */\n      0x00\n        /* \"#utility.yul\":8475:8477   */\n      0x20\n        /* \"#utility.yul\":8464:8473   */\n      dup3\n        /* \"#utility.yul\":8460:8478   */\n      add\n        /* \"#utility.yul\":8452:8478   */\n      swap1\n      pop\n        /* \"#utility.yul\":8488:8553   */\n      tag_321\n        /* \"#utility.yul\":8550:8551   */\n      0x00\n        /* \"#utility.yul\":8539:8548   */\n      dup4\n        /* \"#utility.yul\":8535:8552   */\n      add\n        /* \"#utility.yul\":8526:8532   */\n      dup5\n        /* \"#utility.yul\":8488:8553   */\n      tag_191\n      jump\t// in\n    tag_321:\n        /* \"#utility.yul\":8350:8560   */\n      swap3\n      swap2\n      pop\n      pop\n      jump\t// out\n        /* \"#utility.yul\":8566:8747   */\n    tag_192:\n        /* \"#utility.yul\":8706:8739   */\n      0x566f74696e67206973206e6f742063757272656e746c7920616c6c6f77656400\n        /* \"#utility.yul\":8702:8703   */\n      0x00\n        /* \"#utility.yul\":8694:8700   */\n      dup3\n        /* \"#utility.yul\":8690:8704   */\n      add\n        /* \"#utility.yul\":8683:8740   */\n      mstore\n        /* \"#utility.yul\":8566:8747   */\n      pop\n      jump\t// out\n        /* \"#utility.yul\":8753:9119   */\n    tag_193:\n        /* \"#utility.yul\":8895:8898   */\n      0x00\n        /* \"#utility.yul\":8916:8983   */\n      tag_324\n        /* \"#utility.yul\":8980:8982   */\n      0x1f\n        /* \"#utility.yul\":8975:8978   */\n      dup4\n        /* \"#utility.yul\":8916:8983   */\n      tag_172\n      jump\t// in\n    tag_324:\n        /* \"#utility.yul\":8909:8983   */\n      swap2\n      pop\n        /* \"#utility.yul\":8992:9085   */\n      tag_325\n        /* \"#utility.yul\":9081:9084   */\n      dup3\n        /* \"#utility.yul\":8992:9085   */\n      tag_192\n      jump\t// in\n    tag_325:\n        /* \"#utility.yul\":9110:9112   */\n      0x20\n        /* \"#utility.yul\":9105:9108   */\n      dup3\n        /* \"#utility.yul\":9101:9113   */\n      add\n        /* \"#utility.yul\":9094:9113   */\n      swap1\n      pop\n        /* \"#utility.yul\":8753:9119   */\n      swap2\n      swap1\n      pop\n      jump\t// out\n        /* \"#utility.yul\":9125:9544   */\n    tag_71:\n        /* \"#utility.yul\":9291:9295   */\n      0x00\n        /* \"#utility.yul\":9329:9331   */\n      0x20\n        /* \"#utility.yul\":9318:9327   */\n      dup3\n        /* \"#utility.yul\":9314:9332   */\n      add\n        /* \"#utility.yul\":9306:9332   */\n      swap1\n      pop\n        /* \"#utility.yul\":9378:9387   */\n      dup2\n        /* \"#utility.yul\":9372:9376   */\n      dup2\n        /* \"#utility.yul\":9368:9388   */\n      sub\n        /* \"#utility.yul\":9364:9365   */\n      0x00\n        /* \"#utility.yul\":9353:9362   */\n      dup4\n        /* \"#utility.yul\":9349:9366   */\n      add\n        /* \"#utility.yul\":9342:9389   */\n      mstore\n        /* \"#utility.yul\":9406:9537   */\n      tag_327\n        /* \"#utility.yul\":9532:9536   */\n      dup2\n        /* \"#utility.yul\":9406:9537   */\n      tag_193\n      jump\t// in\n    tag_327:\n        /* \"#utility.yul\":9398:9537   */\n      swap1\n      pop\n        /* \"#utility.yul\":9125:9544   */\n      swap2\n      swap1\n      pop\n      jump\t// out\n        /* \"#utility.yul\":9550:9722   */\n    tag_194:\n        /* \"#utility.yul\":9690:9714   */\n      0x596f75206861766520616c726561647920766f74656400000000000000000000\n        /* \"#utility.yul\":9686:9687   */\n      0x00\n        /* \"#utility.yul\":9678:9684   */\n      dup3\n        /* \"#utility.yul\":9674:9688   */\n      add\n        /* \"#utility.yul\":9667:9715   */\n      mstore\n        /* \"#utility.yul\":9550:9722   */\n      pop\n      jump\t// out\n        /* \"#utility.yul\":9728:10094   */\n    tag_195:\n        /* \"#utility.yul\":9870:9873   */\n      0x00\n        /* \"#utility.yul\":9891:9958   */\n      tag_330\n        /* \"#utility.yul\":9955:9957   */\n      0x16\n        /* \"#utility.yul\":9950:9953   */\n      dup4\n        /* \"#utility.yul\":9891:9958   */\n      tag_172\n      jump\t// in\n    tag_330:\n        /* \"#utility.yul\":9884:9958   */\n      swap2\n      pop\n        /* \"#utility.yul\":9967:10060   */\n      tag_331\n        /* \"#utility.yul\":10056:10059   */\n      dup3\n        /* \"#utility.yul\":9967:10060   */\n      tag_194\n      jump\t// in\n    tag_331:\n        /* \"#utility.yul\":10085:10087   */\n      0x20\n        /* \"#utility.yul\":10080:10083   */\n      dup3\n        /* \"#utility.yul\":10076:10088   */\n      add\n        /* \"#utility.yul\":10069:10088   */\n      swap1\n      pop\n        /* \"#utility.yul\":9728:10094   */\n      swap2\n      swap1\n      pop\n      jump\t// out\n        /* \"#utility.yul\":10100:10519   */\n    tag_75:\n        /* \"#utility.yul\":10266:10270   */\n      0x00\n        /* \"#utility.yul\":10304:10306   */\n      0x20\n        /* \"#utility.yul\":10293:10302   */\n      dup3\n        /* \"#utility.yul\":10289:10307   */\n      add\n        /* \"#utility.yul\":10281:10307   */\n      swap1\n      pop\n        /* \"#utility.yul\":10353:10362   */\n      dup2\n        /* \"#utility.yul\":10347:10351   */\n      dup2\n        /* \"#utility.yul\":10343:10363   */\n      sub\n        /* \"#utility.yul\":10339:10340   */\n      0x00\n        /* \"#utility.yul\":10328:10337   */\n      dup4\n        /* \"#utility.yul\":10324:10341   */\n      add\n        /* \"#utility.yul\":10317:10364   */\n      mstore\n        /* \"#utility.yul\":10381:10512   */\n      tag_333\n        /* \"#utility.yul\":10507:10511   */\n      dup2\n        /* \"#utility.yul\":10381:10512   */\n      tag_195\n      jump\t// in\n    tag_333:\n        /* \"#utility.yul\":10373:10512   */\n      swap1\n      pop\n        /* \"#utility.yul\":10100:10519   */\n      swap2\n      swap1\n      pop\n      jump\t// out\n        /* \"#utility.yul\":10525:10695   */\n    tag_196:\n        /* \"#utility.yul\":10665:10687   */\n      0x496e76616c69642063616e646964617465204944000000000000000000000000\n        /* \"#utility.yul\":10661:10662   */\n      0x00\n        /* \"#utility.yul\":10653:10659   */\n      dup3\n        /* \"#utility.yul\":10649:10663   */\n      add\n        /* \"#utility.yul\":10642:10688   */\n      mstore\n        /* \"#utility.yul\":10525:10695   */\n      pop\n      jump\t// out\n        /* \"#utility.yul\":10701:11067   */\n    tag_197:\n        /* \"#utility.yul\":10843:10846   */\n      0x00\n        /* \"#utility.yul\":10864:10931   */\n      tag_336\n        /* \"#utility.yul\":10928:10930   */\n      0x14\n        /* \"#utility.yul\":10923:10926   */\n      dup4\n        /* \"#utility.yul\":10864:10931   */\n      tag_172\n      jump\t// in\n    tag_336:\n        /* \"#utility.yul\":10857:10931   */\n      swap2\n      pop\n        /* \"#utility.yul\":10940:11033   */\n      tag_337\n        /* \"#utility.yul\":11029:11032   */\n      dup3\n        /* \"#utility.yul\":10940:11033   */\n      tag_196\n      jump\t// in\n    tag_337:\n        /* \"#utility.yul\":11058:11060   */\n      0x20\n        /* \"#utility.yul\":11053:11056   */\n      dup3\n        /* \"#utility.yul\":11049:11061   */\n      add\n        /* \"#utility.yul\":11042:11061   */\n      swap1\n      pop\n        /* \"#utility.yul\":10701:11067   */\n      swap2\n      swap1\n      pop\n      jump\t// out\n        /* \"#utility.yul\":11073:11492   */\n    tag_80:\n        /* \"#utility.yul\":11239:11243   */\n      0x00\n        /* \"#utility.yul\":11277:11279   */\n      0x20\n        /* \"#utility.yul\":11266:11275   */\n      dup3\n        /* \"#utility.yul\":11262:11280   */\n      add\n        /* \"#utility.yul\":11254:11280   */\n      swap1\n      pop\n        /* \"#utility.yul\":11326:11335   */\n      dup2\n        /* \"#utility.yul\":11320:11324   */\n      dup2\n        /* \"#utility.yul\":11316:11336   */\n      sub\n        /* \"#utility.yul\":11312:11313   */\n      0x00\n        /* \"#utility.yul\":11301:11310   */\n      dup4\n        /* \"#utility.yul\":11297:11314   */\n      add\n        /* \"#utility.yul\":11290:11337   */\n      mstore\n        /* \"#utility.yul\":11354:11485   */\n      tag_339\n        /* \"#utility.yul\":11480:11484   */\n      dup2\n        /* \"#utility.yul\":11354:11485   */\n      tag_197\n      jump\t// in\n    tag_339:\n        /* \"#utility.yul\":11346:11485   */\n      swap1\n      pop\n        /* \"#utility.yul\":11073:11492   */\n      swap2\n      swap1\n      pop\n      jump\t// out\n        /* \"#utility.yul\":11498:11678   */\n    tag_198:\n        /* \"#utility.yul\":11546:11623   */\n      0x4e487b7100000000000000000000000000000000000000000000000000000000\n        /* \"#utility.yul\":11543:11544   */\n      0x00\n        /* \"#utility.yul\":11536:11624   */\n      mstore\n        /* \"#utility.yul\":11643:11647   */\n      0x11\n        /* \"#utility.yul\":11640:11641   */\n      0x04\n        /* \"#utility.yul\":11633:11648   */\n      mstore\n        /* \"#utility.yul\":11667:11671   */\n      0x24\n        /* \"#utility.yul\":11664:11665   */\n      0x00\n        /* \"#utility.yul\":11657:11672   */\n      revert\n        /* \"#utility.yul\":11684:11917   */\n    tag_82:\n        /* \"#utility.yul\":11723:11726   */\n      0x00\n        /* \"#utility.yul\":11746:11770   */\n      tag_342\n        /* \"#utility.yul\":11764:11769   */\n      dup3\n        /* \"#utility.yul\":11746:11770   */\n      tag_163\n      jump\t// in\n    tag_342:\n        /* \"#utility.yul\":11737:11770   */\n      swap2\n      pop\n        /* \"#utility.yul\":11792:11858   */\n      0xffffffffffffffffffffffffffffffffffffffffffffffffffffffffffffffff\n        /* \"#utility.yul\":11785:11790   */\n      dup3\n        /* \"#utility.yul\":11782:11859   */\n      sub\n        /* \"#utility.yul\":11779:11882   */\n      tag_343\n      jumpi\n        /* \"#utility.yul\":11862:11880   */\n      tag_344\n      tag_198\n      jump\t// in\n    tag_344:\n        /* \"#utility.yul\":11779:11882   */\n    tag_343:\n        /* \"#utility.yul\":11909:11910   */\n      0x01\n        /* \"#utility.yul\":11902:11907   */\n      dup3\n        /* \"#utility.yul\":11898:11911   */\n      add\n        /* \"#utility.yul\":11891:11911   */\n      swap1\n      pop\n        /* \"#utility.yul\":11684:11917   */\n      swap2\n      swap1\n      pop\n      jump\t// out\n        /* \"#utility.yul\":11923:12104   */\n    tag_199:\n        /* \"#utility.yul\":12063:12096   */\n      0x4f6e6c7920746865206f776e65722063616e2065786563757465207468697300\n        /* \"#utility.yul\":12059:12060   */\n      0x00\n        /* \"#utility.yul\":12051:12057   */\n      dup3\n        /* \"#utility.yul\":12047:12061   */\n      add\n        /* \"#utility.yul\":12040:12097   */\n      mstore\n        /* \"#utility.yul\":11923:12104   */\n      pop\n      jump\t// out\n        /* \"#utility.yul\":12110:12476   */\n    tag_200:\n        /* \"#utility.yul\":12252:12255   */\n      0x00\n        /* \"#utility.yul\":12273:12340   */\n      tag_347\n        /* \"#utility.yul\":12337:12339   */\n      0x1f\n        /* \"#utility.yul\":12332:12335   */\n      dup4\n        /* \"#utility.yul\":12273:12340   */\n      tag_172\n      jump\t// in\n    tag_347:\n        /* \"#utility.yul\":12266:12340   */\n      swap2\n      pop\n        /* \"#utility.yul\":12349:12442   */\n      tag_348\n        /* \"#utility.yul\":12438:12441   */\n      dup3\n        /* \"#utility.yul\":12349:12442   */\n      tag_199\n      jump\t// in\n    tag_348:\n        /* \"#utility.yul\":12467:12469   */\n      0x20\n        /* \"#utility.yul\":12462:12465   */\n      dup3\n        /* \"#utility.yul\":12458:12470   */\n      add\n        /* \"#utility.yul\":12451:12470   */\n      swap1\n      pop\n        /* \"#utility.yul\":12110:12476   */\n      swap2\n      swap1\n      pop\n      jump\t// out\n        /* \"#utility.yul\":12482:12901   */\n    tag_87:\n        /* \"#utility.yul\":12648:12652   */\n      0x00\n        /* \"#utility.yul\":12686:12688   */\n      0x20\n        /* \"#utility.yul\":12675:12684   */\n      dup3\n        /* \"#utility.yul\":12671:12689   */\n      add\n        /* \"#utility.yul\":12663:12689   */\n      swap1\n      pop\n        /* \"#utility.yul\":12735:12744   */\n      dup2\n        /* \"#utility.yul\":12729:12733   */\n      dup2\n        /* \"#utility.yul\":12725:12745   */\n      sub\n        /* \"#utility.yul\":12721:12722   */\n      0x00\n        /* \"#utility.yul\":12710:12719   */\n      dup4\n        /* \"#utility.yul\":12706:12723   */\n      add\n        /* \"#utility.yul\":12699:12746   */\n      mstore\n        /* \"#utility.yul\":12763:12894   */\n      tag_350\n        /* \"#utility.yul\":12889:12893   */\n      dup2\n        /* \"#utility.yul\":12763:12894   */\n      tag_200\n      jump\t// in\n    tag_350:\n        /* \"#utility.yul\":12755:12894   */\n      swap1\n      pop\n        /* \"#utility.yul\":12482:12901   */\n      swap2\n      swap1\n      pop\n      jump\t// out\n        /* \"#utility.yul\":12907:13129   */\n    tag_201:\n        /* \"#utility.yul\":13047:13081   */\n      0x566f74696e672068617320616c72656164792073746172746564206f7220656e\n        /* \"#utility.yul\":13043:13044   */\n      0x00\n        /* \"#utility.yul\":13035:13041   */\n      dup3\n        /* \"#utility.yul\":13031:13045   */\n      add\n        /* \"#utility.yul\":13024:13082   */\n      mstore\n        /* \"#utility.yul\":13116:13121   */\n      0x6465640000000000000000000000000000000000000000000000000000000000\n        /* \"#utility.yul\":13111:13113   */\n      0x20\n        /* \"#utility.yul\":13103:13109   */\n      dup3\n        /* \"#utility.yul\":13099:13114   */\n      add\n        /* \"#utility.yul\":13092:13122   */\n      mstore\n        /* \"#utility.yul\":12907:13129   */\n      pop\n      jump\t// out\n        /* \"#utility.yul\":13135:13501   */\n    tag_202:\n        /* \"#utility.yul\":13277:13280   */\n      0x00\n        /* \"#utility.yul\":13298:13365   */\n      tag_353\n        /* \"#utility.yul\":13362:13364   */\n      0x23\n        /* \"#utility.yul\":13357:13360   */\n      dup4\n        /* \"#utility.yul\":13298:13365   */\n      tag_172\n      jump\t// in\n    tag_353:\n        /* \"#utility.yul\":13291:13365   */\n      swap2\n      pop\n        /* \"#utility.yul\":13374:13467   */\n      tag_354\n        /* \"#utility.yul\":13463:13466   */\n      dup3\n        /* \"#utility.yul\":13374:13467   */\n      tag_201\n      jump\t// in\n    tag_354:\n        /* \"#utility.yul\":13492:13494   */\n      0x40\n        /* \"#utility.yul\":13487:13490   */\n      dup3\n        /* \"#utility.yul\":13483:13495   */\n      add\n        /* \"#utility.yul\":13476:13495   */\n      swap1\n      pop\n        /* \"#utility.yul\":13135:13501   */\n      swap2\n      swap1\n      pop\n      jump\t// out\n        /* \"#utility.yul\":13507:13926   */\n    tag_95:\n        /* \"#utility.yul\":13673:13677   */\n      0x00\n        /* \"#utility.yul\":13711:13713   */\n      0x20\n        /* \"#utility.yul\":13700:13709   */\n      dup3\n        /* \"#utility.yul\":13696:13714   */\n      add\n        /* \"#utility.yul\":13688:13714   */\n      swap1\n      pop\n        /* \"#utility.yul\":13760:13769   */\n      dup2\n        /* \"#utility.yul\":13754:13758   */\n      dup2\n        /* \"#utility.yul\":13750:13770   */\n      sub\n        /* \"#utility.yul\":13746:13747   */\n      0x00\n        /* \"#utility.yul\":13735:13744   */\n      dup4\n        /* \"#utility.yul\":13731:13748   */\n      add\n        /* \"#utility.yul\":13724:13771   */\n      mstore\n        /* \"#utility.yul\":13788:13919   */\n      tag_356\n        /* \"#utility.yul\":13914:13918   */\n      dup2\n        /* \"#utility.yul\":13788:13919   */\n      tag_202\n      jump\t// in\n    tag_356:\n        /* \"#utility.yul\":13780:13919   */\n      swap1\n      pop\n        /* \"#utility.yul\":13507:13926   */\n      swap2\n      swap1\n      pop\n      jump\t// out\n        /* \"#utility.yul\":13932:14112   */\n    tag_203:\n        /* \"#utility.yul\":13980:14057   */\n      0x4e487b7100000000000000000000000000000000000000000000000000000000\n        /* \"#utility.yul\":13977:13978   */\n      0x00\n        /* \"#utility.yul\":13970:14058   */\n      mstore\n        /* \"#utility.yul\":14077:14081   */\n      0x22\n        /* \"#utility.yul\":14074:14075   */\n      0x04\n        /* \"#utility.yul\":14067:14082   */\n      mstore\n        /* \"#utility.yul\":14101:14105   */\n      0x24\n        /* \"#utility.yul\":14098:14099   */\n      0x00\n        /* \"#utility.yul\":14091:14106   */\n      revert\n        /* \"#utility.yul\":14118:14438   */\n    tag_99:\n        /* \"#utility.yul\":14162:14168   */\n      0x00\n        /* \"#utility.yul\":14199:14200   */\n      0x02\n        /* \"#utility.yul\":14193:14197   */\n      dup3\n        /* \"#utility.yul\":14189:14201   */\n      div\n        /* \"#utility.yul\":14179:14201   */\n      swap1\n      pop\n        /* \"#utility.yul\":14246:14247   */\n      0x01\n        /* \"#utility.yul\":14240:14244   */\n      dup3\n        /* \"#utility.yul\":14236:14248   */\n      and\n        /* \"#utility.yul\":14267:14285   */\n      dup1\n        /* \"#utility.yul\":14257:14338   */\n      tag_359\n      jumpi\n        /* \"#utility.yul\":14323:14327   */\n      0x7f\n        /* \"#utility.yul\":14315:14321   */\n      dup3\n        /* \"#utility.yul\":14311:14328   */\n      and\n        /* \"#utility.yul\":14301:14328   */\n      swap2\n      pop\n        /* \"#utility.yul\":14257:14338   */\n    tag_359:\n        /* \"#utility.yul\":14385:14387   */\n      0x20\n        /* \"#utility.yul\":14377:14383   */\n      dup3\n        /* \"#utility.yul\":14374:14388   */\n      lt\n        /* \"#utility.yul\":14354:14372   */\n      dup2\n        /* \"#utility.yul\":14351:14389   */\n      sub\n        /* \"#utility.yul\":14348:14432   */\n      tag_360\n      jumpi\n        /* \"#utility.yul\":14404:14422   */\n      tag_361\n      tag_203\n      jump\t// in\n    tag_361:\n        /* \"#utility.yul\":14348:14432   */\n    tag_360:\n        /* \"#utility.yul\":14169:14438   */\n      pop\n        /* \"#utility.yul\":14118:14438   */\n      swap2\n      swap1\n      pop\n      jump\t// out\n        /* \"#utility.yul\":14444:14585   */\n    tag_204:\n        /* \"#utility.yul\":14493:14497   */\n      0x00\n        /* \"#utility.yul\":14516:14519   */\n      dup2\n        /* \"#utility.yul\":14508:14519   */\n      swap1\n      pop\n        /* \"#utility.yul\":14539:14542   */\n      dup2\n        /* \"#utility.yul\":14536:14537   */\n      0x00\n        /* \"#utility.yul\":14529:14543   */\n      mstore\n        /* \"#utility.yul\":14573:14577   */\n      0x20\n        /* \"#utility.yul\":14570:14571   */\n      0x00\n        /* \"#utility.yul\":14560:14578   */\n      keccak256\n        /* \"#utility.yul\":14552:14578   */\n      swap1\n      pop\n        /* \"#utility.yul\":14444:14585   */\n      swap2\n      swap1\n      pop\n      jump\t// out\n        /* \"#utility.yul\":14591:14684   */\n    tag_205:\n        /* \"#utility.yul\":14628:14634   */\n      0x00\n        /* \"#utility.yul\":14675:14677   */\n      0x20\n        /* \"#utility.yul\":14670:14672   */\n      0x1f\n        /* \"#utility.yul\":14663:14668   */\n      dup4\n        /* \"#utility.yul\":14659:14673   */\n      add\n        /* \"#utility.yul\":14655:14678   */\n      div\n        /* \"#utility.yul\":14645:14678   */\n      swap1\n      pop\n        /* \"#utility.yul\":14591:14684   */\n      swap2\n      swap1\n      pop\n      jump\t// out\n        /* \"#utility.yul\":14690:14797   */\n    tag_206:\n        /* \"#utility.yul\":14734:14742   */\n      0x00\n        /* \"#utility.yul\":14784:14789   */\n      dup3\n        /* \"#utility.yul\":14778:14782   */\n      dup3\n        /* \"#utility.yul\":14774:14790   */\n      shl\n        /* \"#utility.yul\":14753:14790   */\n      swap1\n      pop\n        /* \"#utility.yul\":14690:14797   */\n      swap3\n      swap2\n      pop\n      pop\n      jump\t// out\n        /* \"#utility.yul\":14803:15196   */\n    tag_207:\n        /* \"#utility.yul\":14872:14878   */\n      0x00\n        /* \"#utility.yul\":14922:14923   */\n      0x08\n        /* \"#utility.yul\":14910:14920   */\n      dup4\n        /* \"#utility.yul\":14906:14924   */\n      mul\n        /* \"#utility.yul\":14945:15042   */\n      tag_366\n        /* \"#utility.yul\":14975:15041   */\n      0xffffffffffffffffffffffffffffffffffffffffffffffffffffffffffffffff\n        /* \"#utility.yul\":14964:14973   */\n      dup3\n        /* \"#utility.yul\":14945:15042   */\n      tag_206\n      jump\t// in\n    tag_366:\n        /* \"#utility.yul\":15063:15102   */\n      tag_367\n        /* \"#utility.yul\":15093:15101   */\n      dup7\n        /* \"#utility.yul\":15082:15091   */\n      dup4\n        /* \"#utility.yul\":15063:15102   */\n      tag_206\n      jump\t// in\n    tag_367:\n        /* \"#utility.yul\":15051:15102   */\n      swap6\n      pop\n        /* \"#utility.yul\":15135:15139   */\n      dup1\n        /* \"#utility.yul\":15131:15140   */\n      not\n        /* \"#utility.yul\":15124:15129   */\n      dup5\n        /* \"#utility.yul\":15120:15141   */\n      and\n        /* \"#utility.yul\":15111:15141   */\n      swap4\n      pop\n        /* \"#utility.yul\":15184:15188   */\n      dup1\n        /* \"#utility.yul\":15174:15182   */\n      dup7\n        /* \"#utility.yul\":15170:15189   */\n      and\n        /* \"#utility.yul\":15163:15168   */\n      dup5\n        /* \"#utility.yul\":15160:15190   */\n      or\n        /* \"#utility.yul\":15150:15190   */\n      swap3\n      pop\n        /* \"#utility.yul\":14879:15196   */\n      pop\n      pop\n        /* \"#utility.yul\":14803:15196   */\n      swap4\n      swap3\n      pop\n      pop\n      pop\n      jump\t// out\n        /* \"#utility.yul\":15202:15262   */\n    tag_208:\n        /* \"#utility.yul\":15230:15233   */\n      0x00\n        /* \"#utility.yul\":15251:15256   */\n      dup2\n        /* \"#utility.yul\":15244:15256   */\n      swap1\n      pop\n        /* \"#utility.yul\":15202:15262   */\n      swap2\n      swap1\n      pop\n      jump\t// out\n        /* \"#utility.yul\":15268:15410   */\n    tag_209:\n        /* \"#utility.yul\":15318:15327   */\n      0x00\n        /* \"#utility.yul\":15351:15404   */\n      tag_370\n        /* \"#utility.yul\":15369:15403   */\n      tag_371\n        /* \"#utility.yul\":15378:15402   */\n      tag_372\n        /* \"#utility.yul\":15396:15401   */\n      dup5\n        /* \"#utility.yul\":15378:15402   */\n      tag_163\n      jump\t// in\n    tag_372:\n        /* \"#utility.yul\":15369:15403   */\n      tag_208\n      jump\t// in\n    tag_371:\n        /* \"#utility.yul\":15351:15404   */\n      tag_163\n      jump\t// in\n    tag_370:\n        /* \"#utility.yul\":15338:15404   */\n      swap1\n      pop\n        /* \"#utility.yul\":15268:15410   */\n      swap2\n      swap1\n      pop\n      jump\t// out\n        /* \"#utility.yul\":15416:15491   */\n    tag_210:\n        /* \"#utility.yul\":15459:15462   */\n      0x00\n        /* \"#utility.yul\":15480:15485   */\n      dup2\n        /* \"#utility.yul\":15473:15485   */\n      swap1\n      pop\n        /* \"#utility.yul\":15416:15491   */\n      swap2\n      swap1\n      pop\n      jump\t// out\n        /* \"#utility.yul\":15497:15766   */\n    tag_211:\n        /* \"#utility.yul\":15607:15646   */\n      tag_375\n        /* \"#utility.yul\":15638:15645   */\n      dup4\n        /* \"#utility.yul\":15607:15646   */\n      tag_209\n      jump\t// in\n    tag_375:\n        /* \"#utility.yul\":15668:15759   */\n      tag_376\n        /* \"#utility.yul\":15717:15758   */\n      tag_377\n        /* \"#utility.yul\":15741:15757   */\n      dup3\n        /* \"#utility.yul\":15717:15758   */\n      tag_210\n      jump\t// in\n    tag_377:\n        /* \"#utility.yul\":15709:15715   */\n      dup5\n        /* \"#utility.yul\":15702:15706   */\n      dup5\n        /* \"#utility.yul\":15696:15707   */\n      sload\n        /* \"#utility.yul\":15668:15759   */\n      tag_207\n      jump\t// in\n    tag_376:\n        /* \"#utility.yul\":15662:15666   */\n      dup3\n        /* \"#utility.yul\":15655:15760   */\n      sstore\n        /* \"#utility.yul\":15573:15766   */\n      pop\n        /* \"#utility.yul\":15497:15766   */\n      pop\n      pop\n      pop\n      jump\t// out\n        /* \"#utility.yul\":15772:15845   */\n    tag_212:\n        /* \"#utility.yul\":15817:15820   */\n      0x00\n        /* \"#utility.yul\":15772:15845   */\n      swap1\n      jump\t// out\n        /* \"#utility.yul\":15851:16040   */\n    tag_213:\n        /* \"#utility.yul\":15928:15960   */\n      tag_380\n      tag_212\n      jump\t// in\n    tag_380:\n        /* \"#utility.yul\":15969:16034   */\n      tag_381\n        /* \"#utility.yul\":16027:16033   */\n      dup2\n        /* \"#utility.yul\":16019:16025   */\n      dup5\n        /* \"#utility.yul\":16013:16017   */\n      dup5\n        /* \"#utility.yul\":15969:16034   */\n      tag_211\n      jump\t// in\n    tag_381:\n        /* \"#utility.yul\":15904:16040   */\n      pop\n        /* \"#utility.yul\":15851:16040   */\n      pop\n      pop\n      jump\t// out\n        /* \"#utility.yul\":16046:16232   */\n    tag_214:\n        /* \"#utility.yul\":16106:16226   */\n    tag_383:\n        /* \"#utility.yul\":16123:16126   */\n      dup2\n        /* \"#utility.yul\":16116:16121   */\n      dup2\n        /* \"#utility.yul\":16113:16127   */\n      lt\n        /* \"#utility.yul\":16106:16226   */\n      iszero\n      tag_385\n      jumpi\n        /* \"#utility.yul\":16177:16216   */\n      tag_386\n        /* \"#utility.yul\":16214:16215   */\n      0x00\n        /* \"#utility.yul\":16207:16212   */\n      dup3\n        /* \"#utility.yul\":16177:16216   */\n      tag_213\n      jump\t// in\n    tag_386:\n        /* \"#utility.yul\":16150:16151   */\n      0x01\n        /* \"#utility.yul\":16143:16148   */\n      dup2\n        /* \"#utility.yul\":16139:16152   */\n      add\n        /* \"#utility.yul\":16130:16152   */\n      swap1\n      pop\n        /* \"#utility.yul\":16106:16226   */\n      jump(tag_383)\n    tag_385:\n        /* \"#utility.yul\":16046:16232   */\n      pop\n      pop\n      jump\t// out\n        /* \"#utility.yul\":16238:16781   */\n    tag_215:\n        /* \"#utility.yul\":16339:16341   */\n      0x1f\n        /* \"#utility.yul\":16334:16337   */\n      dup3\n        /* \"#utility.yul\":16331:16342   */\n      gt\n        /* \"#utility.yul\":16328:16774   */\n      iszero\n      tag_388\n      jumpi\n        /* \"#utility.yul\":16373:16411   */\n      tag_389\n        /* \"#utility.yul\":16405:16410   */\n      dup2\n        /* \"#utility.yul\":16373:16411   */\n      tag_204\n      jump\t// in\n    tag_389:\n        /* \"#utility.yul\":16457:16486   */\n      tag_390\n        /* \"#utility.yul\":16475:16485   */\n      dup5\n        /* \"#utility.yul\":16457:16486   */\n      tag_205\n      jump\t// in\n    tag_390:\n        /* \"#utility.yul\":16447:16455   */\n      dup2\n        /* \"#utility.yul\":16443:16487   */\n      add\n        /* \"#utility.yul\":16640:16642   */\n      0x20\n        /* \"#utility.yul\":16628:16638   */\n      dup6\n        /* \"#utility.yul\":16625:16643   */\n      lt\n        /* \"#utility.yul\":16622:16671   */\n      iszero\n      tag_391\n      jumpi\n        /* \"#utility.yul\":16661:16669   */\n      dup2\n        /* \"#utility.yul\":16646:16669   */\n      swap1\n      pop\n        /* \"#utility.yul\":16622:16671   */\n    tag_391:\n        /* \"#utility.yul\":16684:16764   */\n      tag_392\n        /* \"#utility.yul\":16740:16762   */\n      tag_393\n        /* \"#utility.yul\":16758:16761   */\n      dup6\n        /* \"#utility.yul\":16740:16762   */\n      tag_205\n      jump\t// in\n    tag_393:\n        /* \"#utility.yul\":16730:16738   */\n      dup4\n        /* \"#utility.yul\":16726:16763   */\n      add\n        /* \"#utility.yul\":16713:16724   */\n      dup3\n        /* \"#utility.yul\":16684:16764   */\n      tag_214\n      jump\t// in\n    tag_392:\n        /* \"#utility.yul\":16343:16774   */\n      pop\n      pop\n        /* \"#utility.yul\":16328:16774   */\n    tag_388:\n        /* \"#utility.yul\":16238:16781   */\n      pop\n      pop\n      pop\n      jump\t// out\n        /* \"#utility.yul\":16787:16904   */\n    tag_216:\n        /* \"#utility.yul\":16841:16849   */\n      0x00\n        /* \"#utility.yul\":16891:16896   */\n      dup3\n        /* \"#utility.yul\":16885:16889   */\n      dup3\n        /* \"#utility.yul\":16881:16897   */\n      shr\n        /* \"#utility.yul\":16860:16897   */\n      swap1\n      pop\n        /* \"#utility.yul\":16787:16904   */\n      swap3\n      swap2\n      pop\n      pop\n      jump\t// out\n        /* \"#utility.yul\":16910:17079   */\n    tag_217:\n        /* \"#utility.yul\":16954:16960   */\n      0x00\n        /* \"#utility.yul\":16987:17038   */\n      tag_396\n        /* \"#utility.yul\":17035:17036   */\n      0x00\n        /* \"#utility.yul\":17031:17037   */\n      not\n        /* \"#utility.yul\":17023:17028   */\n      dup5\n        /* \"#utility.yul\":17020:17021   */\n      0x08\n        /* \"#utility.yul\":17016:17029   */\n      mul\n        /* \"#utility.yul\":16987:17038   */\n      tag_216\n      jump\t// in\n    tag_396:\n        /* \"#utility.yul\":16983:17039   */\n      not\n        /* \"#utility.yul\":17068:17072   */\n      dup1\n        /* \"#utility.yul\":17062:17066   */\n      dup4\n        /* \"#utility.yul\":17058:17073   */\n      and\n        /* \"#utility.yul\":17048:17073   */\n      swap2\n      pop\n        /* \"#utility.yul\":16961:17079   */\n      pop\n        /* \"#utility.yul\":16910:17079   */\n      swap3\n      swap2\n      pop\n      pop\n      jump\t// out\n        /* \"#utility.yul\":17084:17379   */\n    tag_218:\n        /* \"#utility.yul\":17160:17164   */\n      0x00\n        /* \"#utility.yul\":17306:17335   */\n      tag_398\n        /* \"#utility.yul\":17331:17334   */\n      dup4\n        /* \"#utility.yul\":17325:17329   */\n      dup4\n        /* \"#utility.yul\":17306:17335   */\n      tag_217\n      jump\t// in\n    tag_398:\n        /* \"#utility.yul\":17298:17335   */\n      swap2\n      pop\n        /* \"#utility.yul\":17368:17371   */\n      dup3\n        /* \"#utility.yul\":17365:17366   */\n      0x02\n        /* \"#utility.yul\":17361:17372   */\n      mul\n        /* \"#utility.yul\":17355:17359   */\n      dup3\n        /* \"#utility.yul\":17352:17373   */\n      or\n        /* \"#utility.yul\":17344:17373   */\n      swap1\n      pop\n        /* \"#utility.yul\":17084:17379   */\n      swap3\n      swap2\n      pop\n      pop\n      jump\t// out\n        /* \"#utility.yul\":17384:18779   */\n    tag_119:\n        /* \"#utility.yul\":17501:17538   */\n      tag_400\n        /* \"#utility.yul\":17534:17537   */\n      dup3\n        /* \"#utility.yul\":17501:17538   */\n      tag_171\n      jump\t// in\n    tag_400:\n        /* \"#utility.yul\":17603:17621   */\n      0xffffffffffffffff\n        /* \"#utility.yul\":17595:17601   */\n      dup2\n        /* \"#utility.yul\":17592:17622   */\n      gt\n        /* \"#utility.yul\":17589:17645   */\n      iszero\n      tag_401\n      jumpi\n        /* \"#utility.yul\":17625:17643   */\n      tag_402\n      tag_178\n      jump\t// in\n    tag_402:\n        /* \"#utility.yul\":17589:17645   */\n    tag_401:\n        /* \"#utility.yul\":17669:17707   */\n      tag_403\n        /* \"#utility.yul\":17701:17705   */\n      dup3\n        /* \"#utility.yul\":17695:17706   */\n      sload\n        /* \"#utility.yul\":17669:17707   */\n      tag_99\n      jump\t// in\n    tag_403:\n        /* \"#utility.yul\":17754:17821   */\n      tag_404\n        /* \"#utility.yul\":17814:17820   */\n      dup3\n        /* \"#utility.yul\":17806:17812   */\n      dup3\n        /* \"#utility.yul\":17800:17804   */\n      dup6\n        /* \"#utility.yul\":17754:17821   */\n      tag_215\n      jump\t// in\n    tag_404:\n        /* \"#utility.yul\":17848:17849   */\n      0x00\n        /* \"#utility.yul\":17872:17876   */\n      0x20\n        /* \"#utility.yul\":17859:17876   */\n      swap1\n      pop\n        /* \"#utility.yul\":17904:17906   */\n      0x1f\n        /* \"#utility.yul\":17896:17902   */\n      dup4\n        /* \"#utility.yul\":17893:17907   */\n      gt\n        /* \"#utility.yul\":17921:17922   */\n      0x01\n        /* \"#utility.yul\":17916:18534   */\n      dup2\n      eq\n      tag_406\n      jumpi\n        /* \"#utility.yul\":18578:18579   */\n      0x00\n        /* \"#utility.yul\":18595:18601   */\n      dup5\n        /* \"#utility.yul\":18592:18669   */\n      iszero\n      tag_407\n      jumpi\n        /* \"#utility.yul\":18644:18653   */\n      dup3\n        /* \"#utility.yul\":18639:18642   */\n      dup8\n        /* \"#utility.yul\":18635:18654   */\n      add\n        /* \"#utility.yul\":18629:18655   */\n      mload\n        /* \"#utility.yul\":18620:18655   */\n      swap1\n      pop\n        /* \"#utility.yul\":18592:18669   */\n    tag_407:\n        /* \"#utility.yul\":18695:18762   */\n      tag_408\n        /* \"#utility.yul\":18755:18761   */\n      dup6\n        /* \"#utility.yul\":18748:18753   */\n      dup3\n        /* \"#utility.yul\":18695:18762   */\n      tag_218\n      jump\t// in\n    tag_408:\n        /* \"#utility.yul\":18689:18693   */\n      dup7\n        /* \"#utility.yul\":18682:18763   */\n      sstore\n        /* \"#utility.yul\":18551:18773   */\n      pop\n        /* \"#utility.yul\":17886:18773   */\n      jump(tag_405)\n        /* \"#utility.yul\":17916:18534   */\n    tag_406:\n        /* \"#utility.yul\":17968:17972   */\n      0x1f\n        /* \"#utility.yul\":17964:17973   */\n      not\n        /* \"#utility.yul\":17956:17962   */\n      dup5\n        /* \"#utility.yul\":17952:17974   */\n      and\n        /* \"#utility.yul\":18002:18039   */\n      tag_409\n        /* \"#utility.yul\":18034:18038   */\n      dup7\n        /* \"#utility.yul\":18002:18039   */\n      tag_204\n      jump\t// in\n    tag_409:\n        /* \"#utility.yul\":18061:18062   */\n      0x00\n        /* \"#utility.yul\":18075:18283   */\n    tag_410:\n        /* \"#utility.yul\":18089:18096   */\n      dup3\n        /* \"#utility.yul\":18086:18087   */\n      dup2\n        /* \"#utility.yul\":18083:18097   */\n      lt\n        /* \"#utility.yul\":18075:18283   */\n      iszero\n      tag_412\n      jumpi\n        /* \"#utility.yul\":18168:18177   */\n      dup5\n        /* \"#utility.yul\":18163:18166   */\n      dup10\n        /* \"#utility.yul\":18159:18178   */\n      add\n        /* \"#utility.yul\":18153:18179   */\n      mload\n        /* \"#utility.yul\":18145:18151   */\n      dup3\n        /* \"#utility.yul\":18138:18180   */\n      sstore\n        /* \"#utility.yul\":18219:18220   */\n      0x01\n        /* \"#utility.yul\":18211:18217   */\n      dup3\n        /* \"#utility.yul\":18207:18221   */\n      add\n        /* \"#utility.yul\":18197:18221   */\n      swap2\n      pop\n        /* \"#utility.yul\":18266:18268   */\n      0x20\n        /* \"#utility.yul\":18255:18264   */\n      dup6\n        /* \"#utility.yul\":18251:18269   */\n      add\n        /* \"#utility.yul\":18238:18269   */\n      swap5\n      pop\n        /* \"#utility.yul\":18112:18116   */\n      0x20\n        /* \"#utility.yul\":18109:18110   */\n      dup2\n        /* \"#utility.yul\":18105:18117   */\n      add\n        /* \"#utility.yul\":18100:18117   */\n      swap1\n      pop\n        /* \"#utility.yul\":18075:18283   */\n      jump(tag_410)\n    tag_412:\n        /* \"#utility.yul\":18311:18317   */\n      dup7\n        /* \"#utility.yul\":18302:18309   */\n      dup4\n        /* \"#utility.yul\":18299:18318   */\n      lt\n        /* \"#utility.yul\":18296:18475   */\n      iszero\n      tag_413\n      jumpi\n        /* \"#utility.yul\":18369:18378   */\n      dup5\n        /* \"#utility.yul\":18364:18367   */\n      dup10\n        /* \"#utility.yul\":18360:18379   */\n      add\n        /* \"#utility.yul\":18354:18380   */\n      mload\n        /* \"#utility.yul\":18412:18460   */\n      tag_414\n        /* \"#utility.yul\":18454:18458   */\n      0x1f\n        /* \"#utility.yul\":18446:18452   */\n      dup10\n        /* \"#utility.yul\":18442:18459   */\n      and\n        /* \"#utility.yul\":18431:18440   */\n      dup3\n        /* \"#utility.yul\":18412:18460   */\n      tag_217\n      jump\t// in\n    tag_414:\n        /* \"#utility.yul\":18404:18410   */\n      dup4\n        /* \"#utility.yul\":18397:18461   */\n      sstore\n        /* \"#utility.yul\":18319:18475   */\n      pop\n        /* \"#utility.yul\":18296:18475   */\n    tag_413:\n        /* \"#utility.yul\":18521:18522   */\n      0x01\n        /* \"#utility.yul\":18517:18518   */\n      0x02\n        /* \"#utility.yul\":18509:18515   */\n      dup9\n        /* \"#utility.yul\":18505:18519   */\n      mul\n        /* \"#utility.yul\":18501:18523   */\n      add\n        /* \"#utility.yul\":18495:18499   */\n      dup9\n        /* \"#utility.yul\":18488:18524   */\n      sstore\n        /* \"#utility.yul\":17923:18534   */\n      pop\n      pop\n      pop\n        /* \"#utility.yul\":17886:18773   */\n    tag_405:\n      pop\n        /* \"#utility.yul\":17476:18779   */\n      pop\n      pop\n      pop\n        /* \"#utility.yul\":17384:18779   */\n      pop\n      pop\n      jump\t// out\n        /* \"#utility.yul\":18785:18962   */\n    tag_219:\n        /* \"#utility.yul\":18925:18954   */\n      0x566f74696e6720706572696f6420686173206e6f7420656e6465640000000000\n        /* \"#utility.yul\":18921:18922   */\n      0x00\n        /* \"#utility.yul\":18913:18919   */\n      dup3\n        /* \"#utility.yul\":18909:18923   */\n      add\n        /* \"#utility.yul\":18902:18955   */\n      mstore\n        /* \"#utility.yul\":18785:18962   */\n      pop\n      jump\t// out\n        /* \"#utility.yul\":18968:19334   */\n    tag_220:\n        /* \"#utility.yul\":19110:19113   */\n      0x00\n        /* \"#utility.yul\":19131:19198   */\n      tag_417\n        /* \"#utility.yul\":19195:19197   */\n      0x1b\n        /* \"#utility.yul\":19190:19193   */\n      dup4\n        /* \"#utility.yul\":19131:19198   */\n      tag_172\n      jump\t// in\n    tag_417:\n        /* \"#utility.yul\":19124:19198   */\n      swap2\n      pop\n        /* \"#utility.yul\":19207:19300   */\n      tag_418\n        /* \"#utility.yul\":19296:19299   */\n      dup3\n        /* \"#utility.yul\":19207:19300   */\n      tag_219\n      jump\t// in\n    tag_418:\n        /* \"#utility.yul\":19325:19327   */\n      0x20\n        /* \"#utility.yul\":19320:19323   */\n      dup3\n        /* \"#utility.yul\":19316:19328   */\n      add\n        /* \"#utility.yul\":19309:19328   */\n      swap1\n      pop\n        /* \"#utility.yul\":18968:19334   */\n      swap2\n      swap1\n      pop\n      jump\t// out\n        /* \"#utility.yul\":19340:19759   */\n    tag_128:\n        /* \"#utility.yul\":19506:19510   */\n      0x00\n        /* \"#utility.yul\":19544:19546   */\n      0x20\n        /* \"#utility.yul\":19533:19542   */\n      dup3\n        /* \"#utility.yul\":19529:19547   */\n      add\n        /* \"#utility.yul\":19521:19547   */\n      swap1\n      pop\n        /* \"#utility.yul\":19593:19602   */\n      dup2\n        /* \"#utility.yul\":19587:19591   */\n      dup2\n        /* \"#utility.yul\":19583:19603   */\n      sub\n        /* \"#utility.yul\":19579:19580   */\n      0x00\n        /* \"#utility.yul\":19568:19577   */\n      dup4\n        /* \"#utility.yul\":19564:19581   */\n      add\n        /* \"#utility.yul\":19557:19604   */\n      mstore\n        /* \"#utility.yul\":19621:19752   */\n      tag_420\n        /* \"#utility.yul\":19747:19751   */\n      dup2\n        /* \"#utility.yul\":19621:19752   */\n      tag_220\n      jump\t// in\n    tag_420:\n        /* \"#utility.yul\":19613:19752   */\n      swap1\n      pop\n        /* \"#utility.yul\":19340:19759   */\n      swap2\n      swap1\n      pop\n      jump\t// out\n\n    auxdata: 0xa2646970667358221220c01f2a3aa948b40af989b790c4f93f10bc325dba115472f76be5776821eacab764736f6c63430008140033\n}\n",
				"bytecode": {
					"linkReferences": {},
					"object": "608060405234801562000010575f80fd5b50335f806101000a81548173ffffffffffffffffffffffffffffffffffffffff021916908373ffffffffffffffffffffffffffffffffffffffff1602179055504260018190555061012c600154620000699190620000d7565b6002819055505f8060146101000a81548160ff0219169083600281111562000096576200009562000111565b5b02179055506200013e565b5f819050919050565b7f4e487b71000000000000000000000000000000000000000000000000000000005f52601160045260245ffd5b5f620000e382620000a1565b9150620000f083620000a1565b92508282019050808211156200010b576200010a620000aa565b5b92915050565b7f4e487b71000000000000000000000000000000000000000000000000000000005f52602160045260245ffd5b6115e0806200014c5f395ff3fe608060405234801561000f575f80fd5b50600436106100b2575f3560e01c8063462e91ec1161006f578063462e91ec1461016857806378e97925146101845780638da5cb5b146101a25780638e7ea5b2146101c0578063a3ec138d146101df578063c3403ddf1461020f576100b2565b80630121b93f146100b65780630c3f6acf146100d25780631ec6b60a146100f05780632d35a8a2146100fa5780633197cbb6146101185780633477ee2e14610136575b5f80fd5b6100d060048036038101906100cb9190610bb1565b610219565b005b6100da610457565b6040516100e79190610c4f565b60405180910390f35b6100f8610469565b005b610102610596565b60405161010f9190610c77565b60405180910390f35b61012061059c565b60405161012d9190610c77565b60405180910390f35b610150600480360381019061014b9190610bb1565b6105a2565b60405161015f93929190610d1a565b60405180910390f35b610182600480360381019061017d9190610e82565b61064e565b005b61018c6107e1565b6040516101999190610c77565b60405180910390f35b6101aa6107e7565b6040516101b79190610f08565b60405180910390f35b6101c861080a565b6040516101d6929190610f21565b60405180910390f35b6101f960048036038101906101f49190610f79565b610952565b6040516102069190610fbe565b60405180910390f35b610217610978565b005b6001600281111561022d5761022c610bdc565b5b5f60149054906101000a900460ff16600281111561024e5761024d610bdc565b5b14801561025d57506001544210155b801561026b57506002544211155b6102aa576040517f08c379a00000000000000000000000000000000000000000000000000000000081526004016102a190611021565b60405180910390fd5b60055f3373ffffffffffffffffffffffffffffffffffffffff1673ffffffffffffffffffffffffffffffffffffffff1681526020019081526020015f205f015f9054906101000a900460ff1615610336576040517f08c379a000000000000000000000000000000000000000000000000000000000815260040161032d90611089565b60405180910390fd5b5f8111801561034757506004548111155b610386576040517f08c379a000000000000000000000000000000000000000000000000000000000815260040161037d906110f1565b60405180910390fd5b600160055f3373ffffffffffffffffffffffffffffffffffffffff1673ffffffffffffffffffffffffffffffffffffffff1681526020019081526020015f205f015f6101000a81548160ff02191690831515021790555060035f8281526020019081526020015f206002015f8154809291906104019061113c565b91905055503373ffffffffffffffffffffffffffffffffffffffff167fd0e6c39f2e086dc49f1524b47725526a56945cd1ff661f37976f1725a1e569868260405161044c9190610c77565b60405180910390a250565b5f60149054906101000a900460ff1681565b5f8054906101000a900473ffffffffffffffffffffffffffffffffffffffff1673ffffffffffffffffffffffffffffffffffffffff163373ffffffffffffffffffffffffffffffffffffffff16146104f6576040517f08c379a00000000000000000000000000000000000000000000000000000000081526004016104ed906111cd565b60405180910390fd5b5f600281111561050957610508610bdc565b5b5f60149054906101000a900460ff16600281111561052a57610529610bdc565b5b1461056a576040517f08c379a00000000000000000000000000000000000000000000000000000000081526004016105619061125b565b60405180910390fd5b60015f60146101000a81548160ff0219169083600281111561058f5761058e610bdc565b5b0217905550565b60045481565b60025481565b6003602052805f5260405f205f91509050805f0154908060010180546105c7906112a6565b80601f01602080910402602001604051908101604052809291908181526020018280546105f3906112a6565b801561063e5780601f106106155761010080835404028352916020019161063e565b820191905f5260205f20905b81548152906001019060200180831161062157829003601f168201915b5050505050908060020154905083565b5f8054906101000a900473ffffffffffffffffffffffffffffffffffffffff1673ffffffffffffffffffffffffffffffffffffffff163373ffffffffffffffffffffffffffffffffffffffff16146106db576040517f08c379a00000000000000000000000000000000000000000000000000000000081526004016106d2906111cd565b60405180910390fd5b600160028111156106ef576106ee610bdc565b5b5f60149054906101000a900460ff1660028111156107105761070f610bdc565b5b14801561071f57506001544210155b801561072d57506002544211155b61076c576040517f08c379a000000000000000000000000000000000000000000000000000000000815260040161076390611021565b60405180910390fd5b60045f81548092919061077e9061113c565b9190505550604051806060016040528060045481526020018281526020015f81525060035f60045481526020019081526020015f205f820151815f015560208201518160010190816107d09190611473565b506040820151816002015590505050565b60015481565b5f8054906101000a900473ffffffffffffffffffffffffffffffffffffffff1681565b60605f6002808111156108205761081f610bdc565b5b5f60149054906101000a900460ff16600281111561084157610840610bdc565b5b14801561084f575060025442115b61088e576040517f08c379a00000000000000000000000000000000000000000000000000000000081526004016108859061158c565b60405180910390fd5b5f610897610b05565b905060035f8281526020019081526020015f2060010180546108b8906112a6565b80601f01602080910402602001604051908101604052809291908181526020018280546108e4906112a6565b801561092f5780601f106109065761010080835404028352916020019161092f565b820191905f5260205f20905b81548152906001019060200180831161091257829003601f168201915b5050505050925060035f8281526020019081526020015f20600201549150509091565b6005602052805f5260405f205f91509050805f015f9054906101000a900460ff16905081565b5f8054906101000a900473ffffffffffffffffffffffffffffffffffffffff1673ffffffffffffffffffffffffffffffffffffffff163373ffffffffffffffffffffffffffffffffffffffff1614610a05576040517f08c379a00000000000000000000000000000000000000000000000000000000081526004016109fc906111cd565b60405180910390fd5b60016002811115610a1957610a18610bdc565b5b5f60149054906101000a900460ff166002811115610a3a57610a39610bdc565b5b148015610a4957506001544210155b8015610a5757506002544211155b610a96576040517f08c379a0000000000000000000000000000000000000000000000000000000008152600401610a8d90611021565b60405180910390fd5b60025f60146101000a81548160ff02191690836002811115610abb57610aba610bdc565b5b02179055505f610ac9610b05565b90507f562cd572b2ba3b666cd989fc4ca98419ec81e75f04528df9d9d76fdb7807ee7181604051610afa9190610c77565b60405180910390a150565b5f805f90505f80600190505b6004548111610b64578260035f8381526020019081526020015f20600201541115610b515760035f8281526020019081526020015f206002015492508091505b8080610b5c9061113c565b915050610b11565b50809250505090565b5f604051905090565b5f80fd5b5f80fd5b5f819050919050565b610b9081610b7e565b8114610b9a575f80fd5b50565b5f81359050610bab81610b87565b92915050565b5f60208284031215610bc657610bc5610b76565b5b5f610bd384828501610b9d565b91505092915050565b7f4e487b71000000000000000000000000000000000000000000000000000000005f52602160045260245ffd5b60038110610c1a57610c19610bdc565b5b50565b5f819050610c2a82610c09565b919050565b5f610c3982610c1d565b9050919050565b610c4981610c2f565b82525050565b5f602082019050610c625f830184610c40565b92915050565b610c7181610b7e565b82525050565b5f602082019050610c8a5f830184610c68565b92915050565b5f81519050919050565b5f82825260208201905092915050565b5f5b83811015610cc7578082015181840152602081019050610cac565b5f8484015250505050565b5f601f19601f8301169050919050565b5f610cec82610c90565b610cf68185610c9a565b9350610d06818560208601610caa565b610d0f81610cd2565b840191505092915050565b5f606082019050610d2d5f830186610c68565b8181036020830152610d3f8185610ce2565b9050610d4e6040830184610c68565b949350505050565b5f80fd5b5f80fd5b7f4e487b71000000000000000000000000000000000000000000000000000000005f52604160045260245ffd5b610d9482610cd2565b810181811067ffffffffffffffff82111715610db357610db2610d5e565b5b80604052505050565b5f610dc5610b6d565b9050610dd18282610d8b565b919050565b5f67ffffffffffffffff821115610df057610def610d5e565b5b610df982610cd2565b9050602081019050919050565b828183375f83830152505050565b5f610e26610e2184610dd6565b610dbc565b905082815260208101848484011115610e4257610e41610d5a565b5b610e4d848285610e06565b509392505050565b5f82601f830112610e6957610e68610d56565b5b8135610e79848260208601610e14565b91505092915050565b5f60208284031215610e9757610e96610b76565b5b5f82013567ffffffffffffffff811115610eb457610eb3610b7a565b5b610ec084828501610e55565b91505092915050565b5f73ffffffffffffffffffffffffffffffffffffffff82169050919050565b5f610ef282610ec9565b9050919050565b610f0281610ee8565b82525050565b5f602082019050610f1b5f830184610ef9565b92915050565b5f6040820190508181035f830152610f398185610ce2565b9050610f486020830184610c68565b9392505050565b610f5881610ee8565b8114610f62575f80fd5b50565b5f81359050610f7381610f4f565b92915050565b5f60208284031215610f8e57610f8d610b76565b5b5f610f9b84828501610f65565b91505092915050565b5f8115159050919050565b610fb881610fa4565b82525050565b5f602082019050610fd15f830184610faf565b92915050565b7f566f74696e67206973206e6f742063757272656e746c7920616c6c6f776564005f82015250565b5f61100b601f83610c9a565b915061101682610fd7565b602082019050919050565b5f6020820190508181035f83015261103881610fff565b9050919050565b7f596f75206861766520616c726561647920766f746564000000000000000000005f82015250565b5f611073601683610c9a565b915061107e8261103f565b602082019050919050565b5f6020820190508181035f8301526110a081611067565b9050919050565b7f496e76616c69642063616e6469646174652049440000000000000000000000005f82015250565b5f6110db601483610c9a565b91506110e6826110a7565b602082019050919050565b5f6020820190508181035f830152611108816110cf565b9050919050565b7f4e487b71000000000000000000000000000000000000000000000000000000005f52601160045260245ffd5b5f61114682610b7e565b91507fffffffffffffffffffffffffffffffffffffffffffffffffffffffffffffffff82036111785761117761110f565b5b600182019050919050565b7f4f6e6c7920746865206f776e65722063616e20657865637574652074686973005f82015250565b5f6111b7601f83610c9a565b91506111c282611183565b602082019050919050565b5f6020820190508181035f8301526111e4816111ab565b9050919050565b7f566f74696e672068617320616c72656164792073746172746564206f7220656e5f8201527f6465640000000000000000000000000000000000000000000000000000000000602082015250565b5f611245602383610c9a565b9150611250826111eb565b604082019050919050565b5f6020820190508181035f83015261127281611239565b9050919050565b7f4e487b71000000000000000000000000000000000000000000000000000000005f52602260045260245ffd5b5f60028204905060018216806112bd57607f821691505b6020821081036112d0576112cf611279565b5b50919050565b5f819050815f5260205f209050919050565b5f6020601f8301049050919050565b5f82821b905092915050565b5f600883026113327fffffffffffffffffffffffffffffffffffffffffffffffffffffffffffffffff826112f7565b61133c86836112f7565b95508019841693508086168417925050509392505050565b5f819050919050565b5f61137761137261136d84610b7e565b611354565b610b7e565b9050919050565b5f819050919050565b6113908361135d565b6113a461139c8261137e565b848454611303565b825550505050565b5f90565b6113b86113ac565b6113c3818484611387565b505050565b5b818110156113e6576113db5f826113b0565b6001810190506113c9565b5050565b601f82111561142b576113fc816112d6565b611405846112e8565b81016020851015611414578190505b611428611420856112e8565b8301826113c8565b50505b505050565b5f82821c905092915050565b5f61144b5f1984600802611430565b1980831691505092915050565b5f611463838361143c565b9150826002028217905092915050565b61147c82610c90565b67ffffffffffffffff81111561149557611494610d5e565b5b61149f82546112a6565b6114aa8282856113ea565b5f60209050601f8311600181146114db575f84156114c9578287015190505b6114d38582611458565b86555061153a565b601f1984166114e9866112d6565b5f5b82811015611510578489015182556001820191506020850194506020810190506114eb565b8683101561152d5784890151611529601f89168261143c565b8355505b6001600288020188555050505b505050505050565b7f566f74696e6720706572696f6420686173206e6f7420656e64656400000000005f82015250565b5f611576601b83610c9a565b915061158182611542565b602082019050919050565b5f6020820190508181035f8301526115a38161156a565b905091905056fea2646970667358221220c01f2a3aa948b40af989b790c4f93f10bc325dba115472f76be5776821eacab764736f6c63430008140033",
					"opcodes": "PUSH1 0x80 PUSH1 0x40 MSTORE CALLVALUE DUP1 ISZERO PUSH3 0x10 JUMPI PUSH0 DUP1 REVERT JUMPDEST POP CALLER PUSH0 DUP1 PUSH2 0x100 EXP DUP2 SLOAD DUP2 PUSH20 0xFFFFFFFFFFFFFFFFFFFFFFFFFFFFFFFFFFFFFFFF MUL NOT AND SWAP1 DUP4 PUSH20 0xFFFFFFFFFFFFFFFFFFFFFFFFFFFFFFFFFFFFFFFF AND MUL OR SWAP1 SSTORE POP TIMESTAMP PUSH1 0x1 DUP2 SWAP1 SSTORE POP PUSH2 0x12C PUSH1 0x1 SLOAD PUSH3 0x69 SWAP2 SWAP1 PUSH3 0xD7 JUMP JUMPDEST PUSH1 0x2 DUP2 SWAP1 SSTORE POP PUSH0 DUP1 PUSH1 0x14 PUSH2 0x100 EXP DUP2 SLOAD DUP2 PUSH1 0xFF MUL NOT AND SWAP1 DUP4 PUSH1 0x2 DUP2 GT ISZERO PUSH3 0x96 JUMPI PUSH3 0x95 PUSH3 0x111 JUMP JUMPDEST JUMPDEST MUL OR SWAP1 SSTORE POP PUSH3 0x13E JUMP JUMPDEST PUSH0 DUP2 SWAP1 POP SWAP2 SWAP1 POP JUMP JUMPDEST PUSH32 0x4E487B7100000000000000000000000000000000000000000000000000000000 PUSH0 MSTORE PUSH1 0x11 PUSH1 0x4 MSTORE PUSH1 0x24 PUSH0 REVERT JUMPDEST PUSH0 PUSH3 0xE3 DUP3 PUSH3 0xA1 JUMP JUMPDEST SWAP2 POP PUSH3 0xF0 DUP4 PUSH3 0xA1 JUMP JUMPDEST SWAP3 POP DUP3 DUP3 ADD SWAP1 POP DUP1 DUP3 GT ISZERO PUSH3 0x10B JUMPI PUSH3 0x10A PUSH3 0xAA JUMP JUMPDEST JUMPDEST SWAP3 SWAP2 POP POP JUMP JUMPDEST PUSH32 0x4E487B7100000000000000000000000000000000000000000000000000000000 PUSH0 MSTORE PUSH1 0x21 PUSH1 0x4 MSTORE PUSH1 0x24 PUSH0 REVERT JUMPDEST PUSH2 0x15E0 DUP1 PUSH3 0x14C PUSH0 CODECOPY PUSH0 RETURN INVALID PUSH1 0x80 PUSH1 0x40 MSTORE CALLVALUE DUP1 ISZERO PUSH2 0xF JUMPI PUSH0 DUP1 REVERT JUMPDEST POP PUSH1 0x4 CALLDATASIZE LT PUSH2 0xB2 JUMPI PUSH0 CALLDATALOAD PUSH1 0xE0 SHR DUP1 PUSH4 0x462E91EC GT PUSH2 0x6F JUMPI DUP1 PUSH4 0x462E91EC EQ PUSH2 0x168 JUMPI DUP1 PUSH4 0x78E97925 EQ PUSH2 0x184 JUMPI DUP1 PUSH4 0x8DA5CB5B EQ PUSH2 0x1A2 JUMPI DUP1 PUSH4 0x8E7EA5B2 EQ PUSH2 0x1C0 JUMPI DUP1 PUSH4 0xA3EC138D EQ PUSH2 0x1DF JUMPI DUP1 PUSH4 0xC3403DDF EQ PUSH2 0x20F JUMPI PUSH2 0xB2 JUMP JUMPDEST DUP1 PUSH4 0x121B93F EQ PUSH2 0xB6 JUMPI DUP1 PUSH4 0xC3F6ACF EQ PUSH2 0xD2 JUMPI DUP1 PUSH4 0x1EC6B60A EQ PUSH2 0xF0 JUMPI DUP1 PUSH4 0x2D35A8A2 EQ PUSH2 0xFA JUMPI DUP1 PUSH4 0x3197CBB6 EQ PUSH2 0x118 JUMPI DUP1 PUSH4 0x3477EE2E EQ PUSH2 0x136 JUMPI JUMPDEST PUSH0 DUP1 REVERT JUMPDEST PUSH2 0xD0 PUSH1 0x4 DUP1 CALLDATASIZE SUB DUP2 ADD SWAP1 PUSH2 0xCB SWAP2 SWAP1 PUSH2 0xBB1 JUMP JUMPDEST PUSH2 0x219 JUMP JUMPDEST STOP JUMPDEST PUSH2 0xDA PUSH2 0x457 JUMP JUMPDEST PUSH1 0x40 MLOAD PUSH2 0xE7 SWAP2 SWAP1 PUSH2 0xC4F JUMP JUMPDEST PUSH1 0x40 MLOAD DUP1 SWAP2 SUB SWAP1 RETURN JUMPDEST PUSH2 0xF8 PUSH2 0x469 JUMP JUMPDEST STOP JUMPDEST PUSH2 0x102 PUSH2 0x596 JUMP JUMPDEST PUSH1 0x40 MLOAD PUSH2 0x10F SWAP2 SWAP1 PUSH2 0xC77 JUMP JUMPDEST PUSH1 0x40 MLOAD DUP1 SWAP2 SUB SWAP1 RETURN JUMPDEST PUSH2 0x120 PUSH2 0x59C JUMP JUMPDEST PUSH1 0x40 MLOAD PUSH2 0x12D SWAP2 SWAP1 PUSH2 0xC77 JUMP JUMPDEST PUSH1 0x40 MLOAD DUP1 SWAP2 SUB SWAP1 RETURN JUMPDEST PUSH2 0x150 PUSH1 0x4 DUP1 CALLDATASIZE SUB DUP2 ADD SWAP1 PUSH2 0x14B SWAP2 SWAP1 PUSH2 0xBB1 JUMP JUMPDEST PUSH2 0x5A2 JUMP JUMPDEST PUSH1 0x40 MLOAD PUSH2 0x15F SWAP4 SWAP3 SWAP2 SWAP1 PUSH2 0xD1A JUMP JUMPDEST PUSH1 0x40 MLOAD DUP1 SWAP2 SUB SWAP1 RETURN JUMPDEST PUSH2 0x182 PUSH1 0x4 DUP1 CALLDATASIZE SUB DUP2 ADD SWAP1 PUSH2 0x17D SWAP2 SWAP1 PUSH2 0xE82 JUMP JUMPDEST PUSH2 0x64E JUMP JUMPDEST STOP JUMPDEST PUSH2 0x18C PUSH2 0x7E1 JUMP JUMPDEST PUSH1 0x40 MLOAD PUSH2 0x199 SWAP2 SWAP1 PUSH2 0xC77 JUMP JUMPDEST PUSH1 0x40 MLOAD DUP1 SWAP2 SUB SWAP1 RETURN JUMPDEST PUSH2 0x1AA PUSH2 0x7E7 JUMP JUMPDEST PUSH1 0x40 MLOAD PUSH2 0x1B7 SWAP2 SWAP1 PUSH2 0xF08 JUMP JUMPDEST PUSH1 0x40 MLOAD DUP1 SWAP2 SUB SWAP1 RETURN JUMPDEST PUSH2 0x1C8 PUSH2 0x80A JUMP JUMPDEST PUSH1 0x40 MLOAD PUSH2 0x1D6 SWAP3 SWAP2 SWAP1 PUSH2 0xF21 JUMP JUMPDEST PUSH1 0x40 MLOAD DUP1 SWAP2 SUB SWAP1 RETURN JUMPDEST PUSH2 0x1F9 PUSH1 0x4 DUP1 CALLDATASIZE SUB DUP2 ADD SWAP1 PUSH2 0x1F4 SWAP2 SWAP1 PUSH2 0xF79 JUMP JUMPDEST PUSH2 0x952 JUMP JUMPDEST PUSH1 0x40 MLOAD PUSH2 0x206 SWAP2 SWAP1 PUSH2 0xFBE JUMP JUMPDEST PUSH1 0x40 MLOAD DUP1 SWAP2 SUB SWAP1 RETURN JUMPDEST PUSH2 0x217 PUSH2 0x978 JUMP JUMPDEST STOP JUMPDEST PUSH1 0x1 PUSH1 0x2 DUP2 GT ISZERO PUSH2 0x22D JUMPI PUSH2 0x22C PUSH2 0xBDC JUMP JUMPDEST JUMPDEST PUSH0 PUSH1 0x14 SWAP1 SLOAD SWAP1 PUSH2 0x100 EXP SWAP1 DIV PUSH1 0xFF AND PUSH1 0x2 DUP2 GT ISZERO PUSH2 0x24E JUMPI PUSH2 0x24D PUSH2 0xBDC JUMP JUMPDEST JUMPDEST EQ DUP1 ISZERO PUSH2 0x25D JUMPI POP PUSH1 0x1 SLOAD TIMESTAMP LT ISZERO JUMPDEST DUP1 ISZERO PUSH2 0x26B JUMPI POP PUSH1 0x2 SLOAD TIMESTAMP GT ISZERO JUMPDEST PUSH2 0x2AA JUMPI PUSH1 0x40 MLOAD PUSH32 0x8C379A000000000000000000000000000000000000000000000000000000000 DUP2 MSTORE PUSH1 0x4 ADD PUSH2 0x2A1 SWAP1 PUSH2 0x1021 JUMP JUMPDEST PUSH1 0x40 MLOAD DUP1 SWAP2 SUB SWAP1 REVERT JUMPDEST PUSH1 0x5 PUSH0 CALLER PUSH20 0xFFFFFFFFFFFFFFFFFFFFFFFFFFFFFFFFFFFFFFFF AND PUSH20 0xFFFFFFFFFFFFFFFFFFFFFFFFFFFFFFFFFFFFFFFF AND DUP2 MSTORE PUSH1 0x20 ADD SWAP1 DUP2 MSTORE PUSH1 0x20 ADD PUSH0 KECCAK256 PUSH0 ADD PUSH0 SWAP1 SLOAD SWAP1 PUSH2 0x100 EXP SWAP1 DIV PUSH1 0xFF AND ISZERO PUSH2 0x336 JUMPI PUSH1 0x40 MLOAD PUSH32 0x8C379A000000000000000000000000000000000000000000000000000000000 DUP2 MSTORE PUSH1 0x4 ADD PUSH2 0x32D SWAP1 PUSH2 0x1089 JUMP JUMPDEST PUSH1 0x40 MLOAD DUP1 SWAP2 SUB SWAP1 REVERT JUMPDEST PUSH0 DUP2 GT DUP1 ISZERO PUSH2 0x347 JUMPI POP PUSH1 0x4 SLOAD DUP2 GT ISZERO JUMPDEST PUSH2 0x386 JUMPI PUSH1 0x40 MLOAD PUSH32 0x8C379A000000000000000000000000000000000000000000000000000000000 DUP2 MSTORE PUSH1 0x4 ADD PUSH2 0x37D SWAP1 PUSH2 0x10F1 JUMP JUMPDEST PUSH1 0x40 MLOAD DUP1 SWAP2 SUB SWAP1 REVERT JUMPDEST PUSH1 0x1 PUSH1 0x5 PUSH0 CALLER PUSH20 0xFFFFFFFFFFFFFFFFFFFFFFFFFFFFFFFFFFFFFFFF AND PUSH20 0xFFFFFFFFFFFFFFFFFFFFFFFFFFFFFFFFFFFFFFFF AND DUP2 MSTORE PUSH1 0x20 ADD SWAP1 DUP2 MSTORE PUSH1 0x20 ADD PUSH0 KECCAK256 PUSH0 ADD PUSH0 PUSH2 0x100 EXP DUP2 SLOAD DUP2 PUSH1 0xFF MUL NOT AND SWAP1 DUP4 ISZERO ISZERO MUL OR SWAP1 SSTORE POP PUSH1 0x3 PUSH0 DUP3 DUP2 MSTORE PUSH1 0x20 ADD SWAP1 DUP2 MSTORE PUSH1 0x20 ADD PUSH0 KECCAK256 PUSH1 0x2 ADD PUSH0 DUP2 SLOAD DUP1 SWAP3 SWAP2 SWAP1 PUSH2 0x401 SWAP1 PUSH2 0x113C JUMP JUMPDEST SWAP2 SWAP1 POP SSTORE POP CALLER PUSH20 0xFFFFFFFFFFFFFFFFFFFFFFFFFFFFFFFFFFFFFFFF AND PUSH32 0xD0E6C39F2E086DC49F1524B47725526A56945CD1FF661F37976F1725A1E56986 DUP3 PUSH1 0x40 MLOAD PUSH2 0x44C SWAP2 SWAP1 PUSH2 0xC77 JUMP JUMPDEST PUSH1 0x40 MLOAD DUP1 SWAP2 SUB SWAP1 LOG2 POP JUMP JUMPDEST PUSH0 PUSH1 0x14 SWAP1 SLOAD SWAP1 PUSH2 0x100 EXP SWAP1 DIV PUSH1 0xFF AND DUP2 JUMP JUMPDEST PUSH0 DUP1 SLOAD SWAP1 PUSH2 0x100 EXP SWAP1 DIV PUSH20 0xFFFFFFFFFFFFFFFFFFFFFFFFFFFFFFFFFFFFFFFF AND PUSH20 0xFFFFFFFFFFFFFFFFFFFFFFFFFFFFFFFFFFFFFFFF AND CALLER PUSH20 0xFFFFFFFFFFFFFFFFFFFFFFFFFFFFFFFFFFFFFFFF AND EQ PUSH2 0x4F6 JUMPI PUSH1 0x40 MLOAD PUSH32 0x8C379A000000000000000000000000000000000000000000000000000000000 DUP2 MSTORE PUSH1 0x4 ADD PUSH2 0x4ED SWAP1 PUSH2 0x11CD JUMP JUMPDEST PUSH1 0x40 MLOAD DUP1 SWAP2 SUB SWAP1 REVERT JUMPDEST PUSH0 PUSH1 0x2 DUP2 GT ISZERO PUSH2 0x509 JUMPI PUSH2 0x508 PUSH2 0xBDC JUMP JUMPDEST JUMPDEST PUSH0 PUSH1 0x14 SWAP1 SLOAD SWAP1 PUSH2 0x100 EXP SWAP1 DIV PUSH1 0xFF AND PUSH1 0x2 DUP2 GT ISZERO PUSH2 0x52A JUMPI PUSH2 0x529 PUSH2 0xBDC JUMP JUMPDEST JUMPDEST EQ PUSH2 0x56A JUMPI PUSH1 0x40 MLOAD PUSH32 0x8C379A000000000000000000000000000000000000000000000000000000000 DUP2 MSTORE PUSH1 0x4 ADD PUSH2 0x561 SWAP1 PUSH2 0x125B JUMP JUMPDEST PUSH1 0x40 MLOAD DUP1 SWAP2 SUB SWAP1 REVERT JUMPDEST PUSH1 0x1 PUSH0 PUSH1 0x14 PUSH2 0x100 EXP DUP2 SLOAD DUP2 PUSH1 0xFF MUL NOT AND SWAP1 DUP4 PUSH1 0x2 DUP2 GT ISZERO PUSH2 0x58F JUMPI PUSH2 0x58E PUSH2 0xBDC JUMP JUMPDEST JUMPDEST MUL OR SWAP1 SSTORE POP JUMP JUMPDEST PUSH1 0x4 SLOAD DUP2 JUMP JUMPDEST PUSH1 0x2 SLOAD DUP2 JUMP JUMPDEST PUSH1 0x3 PUSH1 0x20 MSTORE DUP1 PUSH0 MSTORE PUSH1 0x40 PUSH0 KECCAK256 PUSH0 SWAP2 POP SWAP1 POP DUP1 PUSH0 ADD SLOAD SWAP1 DUP1 PUSH1 0x1 ADD DUP1 SLOAD PUSH2 0x5C7 SWAP1 PUSH2 0x12A6 JUMP JUMPDEST DUP1 PUSH1 0x1F ADD PUSH1 0x20 DUP1 SWAP2 DIV MUL PUSH1 0x20 ADD PUSH1 0x40 MLOAD SWAP1 DUP2 ADD PUSH1 0x40 MSTORE DUP1 SWAP3 SWAP2 SWAP1 DUP2 DUP2 MSTORE PUSH1 0x20 ADD DUP3 DUP1 SLOAD PUSH2 0x5F3 SWAP1 PUSH2 0x12A6 JUMP JUMPDEST DUP1 ISZERO PUSH2 0x63E JUMPI DUP1 PUSH1 0x1F LT PUSH2 0x615 JUMPI PUSH2 0x100 DUP1 DUP4 SLOAD DIV MUL DUP4 MSTORE SWAP2 PUSH1 0x20 ADD SWAP2 PUSH2 0x63E JUMP JUMPDEST DUP3 ADD SWAP2 SWAP1 PUSH0 MSTORE PUSH1 0x20 PUSH0 KECCAK256 SWAP1 JUMPDEST DUP2 SLOAD DUP2 MSTORE SWAP1 PUSH1 0x1 ADD SWAP1 PUSH1 0x20 ADD DUP1 DUP4 GT PUSH2 0x621 JUMPI DUP3 SWAP1 SUB PUSH1 0x1F AND DUP3 ADD SWAP2 JUMPDEST POP POP POP POP POP SWAP1 DUP1 PUSH1 0x2 ADD SLOAD SWAP1 POP DUP4 JUMP JUMPDEST PUSH0 DUP1 SLOAD SWAP1 PUSH2 0x100 EXP SWAP1 DIV PUSH20 0xFFFFFFFFFFFFFFFFFFFFFFFFFFFFFFFFFFFFFFFF AND PUSH20 0xFFFFFFFFFFFFFFFFFFFFFFFFFFFFFFFFFFFFFFFF AND CALLER PUSH20 0xFFFFFFFFFFFFFFFFFFFFFFFFFFFFFFFFFFFFFFFF AND EQ PUSH2 0x6DB JUMPI PUSH1 0x40 MLOAD PUSH32 0x8C379A000000000000000000000000000000000000000000000000000000000 DUP2 MSTORE PUSH1 0x4 ADD PUSH2 0x6D2 SWAP1 PUSH2 0x11CD JUMP JUMPDEST PUSH1 0x40 MLOAD DUP1 SWAP2 SUB SWAP1 REVERT JUMPDEST PUSH1 0x1 PUSH1 0x2 DUP2 GT ISZERO PUSH2 0x6EF JUMPI PUSH2 0x6EE PUSH2 0xBDC JUMP JUMPDEST JUMPDEST PUSH0 PUSH1 0x14 SWAP1 SLOAD SWAP1 PUSH2 0x100 EXP SWAP1 DIV PUSH1 0xFF AND PUSH1 0x2 DUP2 GT ISZERO PUSH2 0x710 JUMPI PUSH2 0x70F PUSH2 0xBDC JUMP JUMPDEST JUMPDEST EQ DUP1 ISZERO PUSH2 0x71F JUMPI POP PUSH1 0x1 SLOAD TIMESTAMP LT ISZERO JUMPDEST DUP1 ISZERO PUSH2 0x72D JUMPI POP PUSH1 0x2 SLOAD TIMESTAMP GT ISZERO JUMPDEST PUSH2 0x76C JUMPI PUSH1 0x40 MLOAD PUSH32 0x8C379A000000000000000000000000000000000000000000000000000000000 DUP2 MSTORE PUSH1 0x4 ADD PUSH2 0x763 SWAP1 PUSH2 0x1021 JUMP JUMPDEST PUSH1 0x40 MLOAD DUP1 SWAP2 SUB SWAP1 REVERT JUMPDEST PUSH1 0x4 PUSH0 DUP2 SLOAD DUP1 SWAP3 SWAP2 SWAP1 PUSH2 0x77E SWAP1 PUSH2 0x113C JUMP JUMPDEST SWAP2 SWAP1 POP SSTORE POP PUSH1 0x40 MLOAD DUP1 PUSH1 0x60 ADD PUSH1 0x40 MSTORE DUP1 PUSH1 0x4 SLOAD DUP2 MSTORE PUSH1 0x20 ADD DUP3 DUP2 MSTORE PUSH1 0x20 ADD PUSH0 DUP2 MSTORE POP PUSH1 0x3 PUSH0 PUSH1 0x4 SLOAD DUP2 MSTORE PUSH1 0x20 ADD SWAP1 DUP2 MSTORE PUSH1 0x20 ADD PUSH0 KECCAK256 PUSH0 DUP3 ADD MLOAD DUP2 PUSH0 ADD SSTORE PUSH1 0x20 DUP3 ADD MLOAD DUP2 PUSH1 0x1 ADD SWAP1 DUP2 PUSH2 0x7D0 SWAP2 SWAP1 PUSH2 0x1473 JUMP JUMPDEST POP PUSH1 0x40 DUP3 ADD MLOAD DUP2 PUSH1 0x2 ADD SSTORE SWAP1 POP POP POP JUMP JUMPDEST PUSH1 0x1 SLOAD DUP2 JUMP JUMPDEST PUSH0 DUP1 SLOAD SWAP1 PUSH2 0x100 EXP SWAP1 DIV PUSH20 0xFFFFFFFFFFFFFFFFFFFFFFFFFFFFFFFFFFFFFFFF AND DUP2 JUMP JUMPDEST PUSH1 0x60 PUSH0 PUSH1 0x2 DUP1 DUP2 GT ISZERO PUSH2 0x820 JUMPI PUSH2 0x81F PUSH2 0xBDC JUMP JUMPDEST JUMPDEST PUSH0 PUSH1 0x14 SWAP1 SLOAD SWAP1 PUSH2 0x100 EXP SWAP1 DIV PUSH1 0xFF AND PUSH1 0x2 DUP2 GT ISZERO PUSH2 0x841 JUMPI PUSH2 0x840 PUSH2 0xBDC JUMP JUMPDEST JUMPDEST EQ DUP1 ISZERO PUSH2 0x84F JUMPI POP PUSH1 0x2 SLOAD TIMESTAMP GT JUMPDEST PUSH2 0x88E JUMPI PUSH1 0x40 MLOAD PUSH32 0x8C379A000000000000000000000000000000000000000000000000000000000 DUP2 MSTORE PUSH1 0x4 ADD PUSH2 0x885 SWAP1 PUSH2 0x158C JUMP JUMPDEST PUSH1 0x40 MLOAD DUP1 SWAP2 SUB SWAP1 REVERT JUMPDEST PUSH0 PUSH2 0x897 PUSH2 0xB05 JUMP JUMPDEST SWAP1 POP PUSH1 0x3 PUSH0 DUP3 DUP2 MSTORE PUSH1 0x20 ADD SWAP1 DUP2 MSTORE PUSH1 0x20 ADD PUSH0 KECCAK256 PUSH1 0x1 ADD DUP1 SLOAD PUSH2 0x8B8 SWAP1 PUSH2 0x12A6 JUMP JUMPDEST DUP1 PUSH1 0x1F ADD PUSH1 0x20 DUP1 SWAP2 DIV MUL PUSH1 0x20 ADD PUSH1 0x40 MLOAD SWAP1 DUP2 ADD PUSH1 0x40 MSTORE DUP1 SWAP3 SWAP2 SWAP1 DUP2 DUP2 MSTORE PUSH1 0x20 ADD DUP3 DUP1 SLOAD PUSH2 0x8E4 SWAP1 PUSH2 0x12A6 JUMP JUMPDEST DUP1 ISZERO PUSH2 0x92F JUMPI DUP1 PUSH1 0x1F LT PUSH2 0x906 JUMPI PUSH2 0x100 DUP1 DUP4 SLOAD DIV MUL DUP4 MSTORE SWAP2 PUSH1 0x20 ADD SWAP2 PUSH2 0x92F JUMP JUMPDEST DUP3 ADD SWAP2 SWAP1 PUSH0 MSTORE PUSH1 0x20 PUSH0 KECCAK256 SWAP1 JUMPDEST DUP2 SLOAD DUP2 MSTORE SWAP1 PUSH1 0x1 ADD SWAP1 PUSH1 0x20 ADD DUP1 DUP4 GT PUSH2 0x912 JUMPI DUP3 SWAP1 SUB PUSH1 0x1F AND DUP3 ADD SWAP2 JUMPDEST POP POP POP POP POP SWAP3 POP PUSH1 0x3 PUSH0 DUP3 DUP2 MSTORE PUSH1 0x20 ADD SWAP1 DUP2 MSTORE PUSH1 0x20 ADD PUSH0 KECCAK256 PUSH1 0x2 ADD SLOAD SWAP2 POP POP SWAP1 SWAP2 JUMP JUMPDEST PUSH1 0x5 PUSH1 0x20 MSTORE DUP1 PUSH0 MSTORE PUSH1 0x40 PUSH0 KECCAK256 PUSH0 SWAP2 POP SWAP1 POP DUP1 PUSH0 ADD PUSH0 SWAP1 SLOAD SWAP1 PUSH2 0x100 EXP SWAP1 DIV PUSH1 0xFF AND SWAP1 POP DUP2 JUMP JUMPDEST PUSH0 DUP1 SLOAD SWAP1 PUSH2 0x100 EXP SWAP1 DIV PUSH20 0xFFFFFFFFFFFFFFFFFFFFFFFFFFFFFFFFFFFFFFFF AND PUSH20 0xFFFFFFFFFFFFFFFFFFFFFFFFFFFFFFFFFFFFFFFF AND CALLER PUSH20 0xFFFFFFFFFFFFFFFFFFFFFFFFFFFFFFFFFFFFFFFF AND EQ PUSH2 0xA05 JUMPI PUSH1 0x40 MLOAD PUSH32 0x8C379A000000000000000000000000000000000000000000000000000000000 DUP2 MSTORE PUSH1 0x4 ADD PUSH2 0x9FC SWAP1 PUSH2 0x11CD JUMP JUMPDEST PUSH1 0x40 MLOAD DUP1 SWAP2 SUB SWAP1 REVERT JUMPDEST PUSH1 0x1 PUSH1 0x2 DUP2 GT ISZERO PUSH2 0xA19 JUMPI PUSH2 0xA18 PUSH2 0xBDC JUMP JUMPDEST JUMPDEST PUSH0 PUSH1 0x14 SWAP1 SLOAD SWAP1 PUSH2 0x100 EXP SWAP1 DIV PUSH1 0xFF AND PUSH1 0x2 DUP2 GT ISZERO PUSH2 0xA3A JUMPI PUSH2 0xA39 PUSH2 0xBDC JUMP JUMPDEST JUMPDEST EQ DUP1 ISZERO PUSH2 0xA49 JUMPI POP PUSH1 0x1 SLOAD TIMESTAMP LT ISZERO JUMPDEST DUP1 ISZERO PUSH2 0xA57 JUMPI POP PUSH1 0x2 SLOAD TIMESTAMP GT ISZERO JUMPDEST PUSH2 0xA96 JUMPI PUSH1 0x40 MLOAD PUSH32 0x8C379A000000000000000000000000000000000000000000000000000000000 DUP2 MSTORE PUSH1 0x4 ADD PUSH2 0xA8D SWAP1 PUSH2 0x1021 JUMP JUMPDEST PUSH1 0x40 MLOAD DUP1 SWAP2 SUB SWAP1 REVERT JUMPDEST PUSH1 0x2 PUSH0 PUSH1 0x14 PUSH2 0x100 EXP DUP2 SLOAD DUP2 PUSH1 0xFF MUL NOT AND SWAP1 DUP4 PUSH1 0x2 DUP2 GT ISZERO PUSH2 0xABB JUMPI PUSH2 0xABA PUSH2 0xBDC JUMP JUMPDEST JUMPDEST MUL OR SWAP1 SSTORE POP PUSH0 PUSH2 0xAC9 PUSH2 0xB05 JUMP JUMPDEST SWAP1 POP PUSH32 0x562CD572B2BA3B666CD989FC4CA98419EC81E75F04528DF9D9D76FDB7807EE71 DUP2 PUSH1 0x40 MLOAD PUSH2 0xAFA SWAP2 SWAP1 PUSH2 0xC77 JUMP JUMPDEST PUSH1 0x40 MLOAD DUP1 SWAP2 SUB SWAP1 LOG1 POP JUMP JUMPDEST PUSH0 DUP1 PUSH0 SWAP1 POP PUSH0 DUP1 PUSH1 0x1 SWAP1 POP JUMPDEST PUSH1 0x4 SLOAD DUP2 GT PUSH2 0xB64 JUMPI DUP3 PUSH1 0x3 PUSH0 DUP4 DUP2 MSTORE PUSH1 0x20 ADD SWAP1 DUP2 MSTORE PUSH1 0x20 ADD PUSH0 KECCAK256 PUSH1 0x2 ADD SLOAD GT ISZERO PUSH2 0xB51 JUMPI PUSH1 0x3 PUSH0 DUP3 DUP2 MSTORE PUSH1 0x20 ADD SWAP1 DUP2 MSTORE PUSH1 0x20 ADD PUSH0 KECCAK256 PUSH1 0x2 ADD SLOAD SWAP3 POP DUP1 SWAP2 POP JUMPDEST DUP1 DUP1 PUSH2 0xB5C SWAP1 PUSH2 0x113C JUMP JUMPDEST SWAP2 POP POP PUSH2 0xB11 JUMP JUMPDEST POP DUP1 SWAP3 POP POP POP SWAP1 JUMP JUMPDEST PUSH0 PUSH1 0x40 MLOAD SWAP1 POP SWAP1 JUMP JUMPDEST PUSH0 DUP1 REVERT JUMPDEST PUSH0 DUP1 REVERT JUMPDEST PUSH0 DUP2 SWAP1 POP SWAP2 SWAP1 POP JUMP JUMPDEST PUSH2 0xB90 DUP2 PUSH2 0xB7E JUMP JUMPDEST DUP2 EQ PUSH2 0xB9A JUMPI PUSH0 DUP1 REVERT JUMPDEST POP JUMP JUMPDEST PUSH0 DUP2 CALLDATALOAD SWAP1 POP PUSH2 0xBAB DUP2 PUSH2 0xB87 JUMP JUMPDEST SWAP3 SWAP2 POP POP JUMP JUMPDEST PUSH0 PUSH1 0x20 DUP3 DUP5 SUB SLT ISZERO PUSH2 0xBC6 JUMPI PUSH2 0xBC5 PUSH2 0xB76 JUMP JUMPDEST JUMPDEST PUSH0 PUSH2 0xBD3 DUP5 DUP3 DUP6 ADD PUSH2 0xB9D JUMP JUMPDEST SWAP2 POP POP SWAP3 SWAP2 POP POP JUMP JUMPDEST PUSH32 0x4E487B7100000000000000000000000000000000000000000000000000000000 PUSH0 MSTORE PUSH1 0x21 PUSH1 0x4 MSTORE PUSH1 0x24 PUSH0 REVERT JUMPDEST PUSH1 0x3 DUP2 LT PUSH2 0xC1A JUMPI PUSH2 0xC19 PUSH2 0xBDC JUMP JUMPDEST JUMPDEST POP JUMP JUMPDEST PUSH0 DUP2 SWAP1 POP PUSH2 0xC2A DUP3 PUSH2 0xC09 JUMP JUMPDEST SWAP2 SWAP1 POP JUMP JUMPDEST PUSH0 PUSH2 0xC39 DUP3 PUSH2 0xC1D JUMP JUMPDEST SWAP1 POP SWAP2 SWAP1 POP JUMP JUMPDEST PUSH2 0xC49 DUP2 PUSH2 0xC2F JUMP JUMPDEST DUP3 MSTORE POP POP JUMP JUMPDEST PUSH0 PUSH1 0x20 DUP3 ADD SWAP1 POP PUSH2 0xC62 PUSH0 DUP4 ADD DUP5 PUSH2 0xC40 JUMP JUMPDEST SWAP3 SWAP2 POP POP JUMP JUMPDEST PUSH2 0xC71 DUP2 PUSH2 0xB7E JUMP JUMPDEST DUP3 MSTORE POP POP JUMP JUMPDEST PUSH0 PUSH1 0x20 DUP3 ADD SWAP1 POP PUSH2 0xC8A PUSH0 DUP4 ADD DUP5 PUSH2 0xC68 JUMP JUMPDEST SWAP3 SWAP2 POP POP JUMP JUMPDEST PUSH0 DUP2 MLOAD SWAP1 POP SWAP2 SWAP1 POP JUMP JUMPDEST PUSH0 DUP3 DUP3 MSTORE PUSH1 0x20 DUP3 ADD SWAP1 POP SWAP3 SWAP2 POP POP JUMP JUMPDEST PUSH0 JUMPDEST DUP4 DUP2 LT ISZERO PUSH2 0xCC7 JUMPI DUP1 DUP3 ADD MLOAD DUP2 DUP5 ADD MSTORE PUSH1 0x20 DUP2 ADD SWAP1 POP PUSH2 0xCAC JUMP JUMPDEST PUSH0 DUP5 DUP5 ADD MSTORE POP POP POP POP JUMP JUMPDEST PUSH0 PUSH1 0x1F NOT PUSH1 0x1F DUP4 ADD AND SWAP1 POP SWAP2 SWAP1 POP JUMP JUMPDEST PUSH0 PUSH2 0xCEC DUP3 PUSH2 0xC90 JUMP JUMPDEST PUSH2 0xCF6 DUP2 DUP6 PUSH2 0xC9A JUMP JUMPDEST SWAP4 POP PUSH2 0xD06 DUP2 DUP6 PUSH1 0x20 DUP7 ADD PUSH2 0xCAA JUMP JUMPDEST PUSH2 0xD0F DUP2 PUSH2 0xCD2 JUMP JUMPDEST DUP5 ADD SWAP2 POP POP SWAP3 SWAP2 POP POP JUMP JUMPDEST PUSH0 PUSH1 0x60 DUP3 ADD SWAP1 POP PUSH2 0xD2D PUSH0 DUP4 ADD DUP7 PUSH2 0xC68 JUMP JUMPDEST DUP2 DUP2 SUB PUSH1 0x20 DUP4 ADD MSTORE PUSH2 0xD3F DUP2 DUP6 PUSH2 0xCE2 JUMP JUMPDEST SWAP1 POP PUSH2 0xD4E PUSH1 0x40 DUP4 ADD DUP5 PUSH2 0xC68 JUMP JUMPDEST SWAP5 SWAP4 POP POP POP POP JUMP JUMPDEST PUSH0 DUP1 REVERT JUMPDEST PUSH0 DUP1 REVERT JUMPDEST PUSH32 0x4E487B7100000000000000000000000000000000000000000000000000000000 PUSH0 MSTORE PUSH1 0x41 PUSH1 0x4 MSTORE PUSH1 0x24 PUSH0 REVERT JUMPDEST PUSH2 0xD94 DUP3 PUSH2 0xCD2 JUMP JUMPDEST DUP2 ADD DUP2 DUP2 LT PUSH8 0xFFFFFFFFFFFFFFFF DUP3 GT OR ISZERO PUSH2 0xDB3 JUMPI PUSH2 0xDB2 PUSH2 0xD5E JUMP JUMPDEST JUMPDEST DUP1 PUSH1 0x40 MSTORE POP POP POP JUMP JUMPDEST PUSH0 PUSH2 0xDC5 PUSH2 0xB6D JUMP JUMPDEST SWAP1 POP PUSH2 0xDD1 DUP3 DUP3 PUSH2 0xD8B JUMP JUMPDEST SWAP2 SWAP1 POP JUMP JUMPDEST PUSH0 PUSH8 0xFFFFFFFFFFFFFFFF DUP3 GT ISZERO PUSH2 0xDF0 JUMPI PUSH2 0xDEF PUSH2 0xD5E JUMP JUMPDEST JUMPDEST PUSH2 0xDF9 DUP3 PUSH2 0xCD2 JUMP JUMPDEST SWAP1 POP PUSH1 0x20 DUP2 ADD SWAP1 POP SWAP2 SWAP1 POP JUMP JUMPDEST DUP3 DUP2 DUP4 CALLDATACOPY PUSH0 DUP4 DUP4 ADD MSTORE POP POP POP JUMP JUMPDEST PUSH0 PUSH2 0xE26 PUSH2 0xE21 DUP5 PUSH2 0xDD6 JUMP JUMPDEST PUSH2 0xDBC JUMP JUMPDEST SWAP1 POP DUP3 DUP2 MSTORE PUSH1 0x20 DUP2 ADD DUP5 DUP5 DUP5 ADD GT ISZERO PUSH2 0xE42 JUMPI PUSH2 0xE41 PUSH2 0xD5A JUMP JUMPDEST JUMPDEST PUSH2 0xE4D DUP5 DUP3 DUP6 PUSH2 0xE06 JUMP JUMPDEST POP SWAP4 SWAP3 POP POP POP JUMP JUMPDEST PUSH0 DUP3 PUSH1 0x1F DUP4 ADD SLT PUSH2 0xE69 JUMPI PUSH2 0xE68 PUSH2 0xD56 JUMP JUMPDEST JUMPDEST DUP2 CALLDATALOAD PUSH2 0xE79 DUP5 DUP3 PUSH1 0x20 DUP7 ADD PUSH2 0xE14 JUMP JUMPDEST SWAP2 POP POP SWAP3 SWAP2 POP POP JUMP JUMPDEST PUSH0 PUSH1 0x20 DUP3 DUP5 SUB SLT ISZERO PUSH2 0xE97 JUMPI PUSH2 0xE96 PUSH2 0xB76 JUMP JUMPDEST JUMPDEST PUSH0 DUP3 ADD CALLDATALOAD PUSH8 0xFFFFFFFFFFFFFFFF DUP2 GT ISZERO PUSH2 0xEB4 JUMPI PUSH2 0xEB3 PUSH2 0xB7A JUMP JUMPDEST JUMPDEST PUSH2 0xEC0 DUP5 DUP3 DUP6 ADD PUSH2 0xE55 JUMP JUMPDEST SWAP2 POP POP SWAP3 SWAP2 POP POP JUMP JUMPDEST PUSH0 PUSH20 0xFFFFFFFFFFFFFFFFFFFFFFFFFFFFFFFFFFFFFFFF DUP3 AND SWAP1 POP SWAP2 SWAP1 POP JUMP JUMPDEST PUSH0 PUSH2 0xEF2 DUP3 PUSH2 0xEC9 JUMP JUMPDEST SWAP1 POP SWAP2 SWAP1 POP JUMP JUMPDEST PUSH2 0xF02 DUP2 PUSH2 0xEE8 JUMP JUMPDEST DUP3 MSTORE POP POP JUMP JUMPDEST PUSH0 PUSH1 0x20 DUP3 ADD SWAP1 POP PUSH2 0xF1B PUSH0 DUP4 ADD DUP5 PUSH2 0xEF9 JUMP JUMPDEST SWAP3 SWAP2 POP POP JUMP JUMPDEST PUSH0 PUSH1 0x40 DUP3 ADD SWAP1 POP DUP2 DUP2 SUB PUSH0 DUP4 ADD MSTORE PUSH2 0xF39 DUP2 DUP6 PUSH2 0xCE2 JUMP JUMPDEST SWAP1 POP PUSH2 0xF48 PUSH1 0x20 DUP4 ADD DUP5 PUSH2 0xC68 JUMP JUMPDEST SWAP4 SWAP3 POP POP POP JUMP JUMPDEST PUSH2 0xF58 DUP2 PUSH2 0xEE8 JUMP JUMPDEST DUP2 EQ PUSH2 0xF62 JUMPI PUSH0 DUP1 REVERT JUMPDEST POP JUMP JUMPDEST PUSH0 DUP2 CALLDATALOAD SWAP1 POP PUSH2 0xF73 DUP2 PUSH2 0xF4F JUMP JUMPDEST SWAP3 SWAP2 POP POP JUMP JUMPDEST PUSH0 PUSH1 0x20 DUP3 DUP5 SUB SLT ISZERO PUSH2 0xF8E JUMPI PUSH2 0xF8D PUSH2 0xB76 JUMP JUMPDEST JUMPDEST PUSH0 PUSH2 0xF9B DUP5 DUP3 DUP6 ADD PUSH2 0xF65 JUMP JUMPDEST SWAP2 POP POP SWAP3 SWAP2 POP POP JUMP JUMPDEST PUSH0 DUP2 ISZERO ISZERO SWAP1 POP SWAP2 SWAP1 POP JUMP JUMPDEST PUSH2 0xFB8 DUP2 PUSH2 0xFA4 JUMP JUMPDEST DUP3 MSTORE POP POP JUMP JUMPDEST PUSH0 PUSH1 0x20 DUP3 ADD SWAP1 POP PUSH2 0xFD1 PUSH0 DUP4 ADD DUP5 PUSH2 0xFAF JUMP JUMPDEST SWAP3 SWAP2 POP POP JUMP JUMPDEST PUSH32 0x566F74696E67206973206E6F742063757272656E746C7920616C6C6F77656400 PUSH0 DUP3 ADD MSTORE POP JUMP JUMPDEST PUSH0 PUSH2 0x100B PUSH1 0x1F DUP4 PUSH2 0xC9A JUMP JUMPDEST SWAP2 POP PUSH2 0x1016 DUP3 PUSH2 0xFD7 JUMP JUMPDEST PUSH1 0x20 DUP3 ADD SWAP1 POP SWAP2 SWAP1 POP JUMP JUMPDEST PUSH0 PUSH1 0x20 DUP3 ADD SWAP1 POP DUP2 DUP2 SUB PUSH0 DUP4 ADD MSTORE PUSH2 0x1038 DUP2 PUSH2 0xFFF JUMP JUMPDEST SWAP1 POP SWAP2 SWAP1 POP JUMP JUMPDEST PUSH32 0x596F75206861766520616C726561647920766F74656400000000000000000000 PUSH0 DUP3 ADD MSTORE POP JUMP JUMPDEST PUSH0 PUSH2 0x1073 PUSH1 0x16 DUP4 PUSH2 0xC9A JUMP JUMPDEST SWAP2 POP PUSH2 0x107E DUP3 PUSH2 0x103F JUMP JUMPDEST PUSH1 0x20 DUP3 ADD SWAP1 POP SWAP2 SWAP1 POP JUMP JUMPDEST PUSH0 PUSH1 0x20 DUP3 ADD SWAP1 POP DUP2 DUP2 SUB PUSH0 DUP4 ADD MSTORE PUSH2 0x10A0 DUP2 PUSH2 0x1067 JUMP JUMPDEST SWAP1 POP SWAP2 SWAP1 POP JUMP JUMPDEST PUSH32 0x496E76616C69642063616E646964617465204944000000000000000000000000 PUSH0 DUP3 ADD MSTORE POP JUMP JUMPDEST PUSH0 PUSH2 0x10DB PUSH1 0x14 DUP4 PUSH2 0xC9A JUMP JUMPDEST SWAP2 POP PUSH2 0x10E6 DUP3 PUSH2 0x10A7 JUMP JUMPDEST PUSH1 0x20 DUP3 ADD SWAP1 POP SWAP2 SWAP1 POP JUMP JUMPDEST PUSH0 PUSH1 0x20 DUP3 ADD SWAP1 POP DUP2 DUP2 SUB PUSH0 DUP4 ADD MSTORE PUSH2 0x1108 DUP2 PUSH2 0x10CF JUMP JUMPDEST SWAP1 POP SWAP2 SWAP1 POP JUMP JUMPDEST PUSH32 0x4E487B7100000000000000000000000000000000000000000000000000000000 PUSH0 MSTORE PUSH1 0x11 PUSH1 0x4 MSTORE PUSH1 0x24 PUSH0 REVERT JUMPDEST PUSH0 PUSH2 0x1146 DUP3 PUSH2 0xB7E JUMP JUMPDEST SWAP2 POP PUSH32 0xFFFFFFFFFFFFFFFFFFFFFFFFFFFFFFFFFFFFFFFFFFFFFFFFFFFFFFFFFFFFFFFF DUP3 SUB PUSH2 0x1178 JUMPI PUSH2 0x1177 PUSH2 0x110F JUMP JUMPDEST JUMPDEST PUSH1 0x1 DUP3 ADD SWAP1 POP SWAP2 SWAP1 POP JUMP JUMPDEST PUSH32 0x4F6E6C7920746865206F776E65722063616E2065786563757465207468697300 PUSH0 DUP3 ADD MSTORE POP JUMP JUMPDEST PUSH0 PUSH2 0x11B7 PUSH1 0x1F DUP4 PUSH2 0xC9A JUMP JUMPDEST SWAP2 POP PUSH2 0x11C2 DUP3 PUSH2 0x1183 JUMP JUMPDEST PUSH1 0x20 DUP3 ADD SWAP1 POP SWAP2 SWAP1 POP JUMP JUMPDEST PUSH0 PUSH1 0x20 DUP3 ADD SWAP1 POP DUP2 DUP2 SUB PUSH0 DUP4 ADD MSTORE PUSH2 0x11E4 DUP2 PUSH2 0x11AB JUMP JUMPDEST SWAP1 POP SWAP2 SWAP1 POP JUMP JUMPDEST PUSH32 0x566F74696E672068617320616C72656164792073746172746564206F7220656E PUSH0 DUP3 ADD MSTORE PUSH32 0x6465640000000000000000000000000000000000000000000000000000000000 PUSH1 0x20 DUP3 ADD MSTORE POP JUMP JUMPDEST PUSH0 PUSH2 0x1245 PUSH1 0x23 DUP4 PUSH2 0xC9A JUMP JUMPDEST SWAP2 POP PUSH2 0x1250 DUP3 PUSH2 0x11EB JUMP JUMPDEST PUSH1 0x40 DUP3 ADD SWAP1 POP SWAP2 SWAP1 POP JUMP JUMPDEST PUSH0 PUSH1 0x20 DUP3 ADD SWAP1 POP DUP2 DUP2 SUB PUSH0 DUP4 ADD MSTORE PUSH2 0x1272 DUP2 PUSH2 0x1239 JUMP JUMPDEST SWAP1 POP SWAP2 SWAP1 POP JUMP JUMPDEST PUSH32 0x4E487B7100000000000000000000000000000000000000000000000000000000 PUSH0 MSTORE PUSH1 0x22 PUSH1 0x4 MSTORE PUSH1 0x24 PUSH0 REVERT JUMPDEST PUSH0 PUSH1 0x2 DUP3 DIV SWAP1 POP PUSH1 0x1 DUP3 AND DUP1 PUSH2 0x12BD JUMPI PUSH1 0x7F DUP3 AND SWAP2 POP JUMPDEST PUSH1 0x20 DUP3 LT DUP2 SUB PUSH2 0x12D0 JUMPI PUSH2 0x12CF PUSH2 0x1279 JUMP JUMPDEST JUMPDEST POP SWAP2 SWAP1 POP JUMP JUMPDEST PUSH0 DUP2 SWAP1 POP DUP2 PUSH0 MSTORE PUSH1 0x20 PUSH0 KECCAK256 SWAP1 POP SWAP2 SWAP1 POP JUMP JUMPDEST PUSH0 PUSH1 0x20 PUSH1 0x1F DUP4 ADD DIV SWAP1 POP SWAP2 SWAP1 POP JUMP JUMPDEST PUSH0 DUP3 DUP3 SHL SWAP1 POP SWAP3 SWAP2 POP POP JUMP JUMPDEST PUSH0 PUSH1 0x8 DUP4 MUL PUSH2 0x1332 PUSH32 0xFFFFFFFFFFFFFFFFFFFFFFFFFFFFFFFFFFFFFFFFFFFFFFFFFFFFFFFFFFFFFFFF DUP3 PUSH2 0x12F7 JUMP JUMPDEST PUSH2 0x133C DUP7 DUP4 PUSH2 0x12F7 JUMP JUMPDEST SWAP6 POP DUP1 NOT DUP5 AND SWAP4 POP DUP1 DUP7 AND DUP5 OR SWAP3 POP POP POP SWAP4 SWAP3 POP POP POP JUMP JUMPDEST PUSH0 DUP2 SWAP1 POP SWAP2 SWAP1 POP JUMP JUMPDEST PUSH0 PUSH2 0x1377 PUSH2 0x1372 PUSH2 0x136D DUP5 PUSH2 0xB7E JUMP JUMPDEST PUSH2 0x1354 JUMP JUMPDEST PUSH2 0xB7E JUMP JUMPDEST SWAP1 POP SWAP2 SWAP1 POP JUMP JUMPDEST PUSH0 DUP2 SWAP1 POP SWAP2 SWAP1 POP JUMP JUMPDEST PUSH2 0x1390 DUP4 PUSH2 0x135D JUMP JUMPDEST PUSH2 0x13A4 PUSH2 0x139C DUP3 PUSH2 0x137E JUMP JUMPDEST DUP5 DUP5 SLOAD PUSH2 0x1303 JUMP JUMPDEST DUP3 SSTORE POP POP POP POP JUMP JUMPDEST PUSH0 SWAP1 JUMP JUMPDEST PUSH2 0x13B8 PUSH2 0x13AC JUMP JUMPDEST PUSH2 0x13C3 DUP2 DUP5 DUP5 PUSH2 0x1387 JUMP JUMPDEST POP POP POP JUMP JUMPDEST JUMPDEST DUP2 DUP2 LT ISZERO PUSH2 0x13E6 JUMPI PUSH2 0x13DB PUSH0 DUP3 PUSH2 0x13B0 JUMP JUMPDEST PUSH1 0x1 DUP2 ADD SWAP1 POP PUSH2 0x13C9 JUMP JUMPDEST POP POP JUMP JUMPDEST PUSH1 0x1F DUP3 GT ISZERO PUSH2 0x142B JUMPI PUSH2 0x13FC DUP2 PUSH2 0x12D6 JUMP JUMPDEST PUSH2 0x1405 DUP5 PUSH2 0x12E8 JUMP JUMPDEST DUP2 ADD PUSH1 0x20 DUP6 LT ISZERO PUSH2 0x1414 JUMPI DUP2 SWAP1 POP JUMPDEST PUSH2 0x1428 PUSH2 0x1420 DUP6 PUSH2 0x12E8 JUMP JUMPDEST DUP4 ADD DUP3 PUSH2 0x13C8 JUMP JUMPDEST POP POP JUMPDEST POP POP POP JUMP JUMPDEST PUSH0 DUP3 DUP3 SHR SWAP1 POP SWAP3 SWAP2 POP POP JUMP JUMPDEST PUSH0 PUSH2 0x144B PUSH0 NOT DUP5 PUSH1 0x8 MUL PUSH2 0x1430 JUMP JUMPDEST NOT DUP1 DUP4 AND SWAP2 POP POP SWAP3 SWAP2 POP POP JUMP JUMPDEST PUSH0 PUSH2 0x1463 DUP4 DUP4 PUSH2 0x143C JUMP JUMPDEST SWAP2 POP DUP3 PUSH1 0x2 MUL DUP3 OR SWAP1 POP SWAP3 SWAP2 POP POP JUMP JUMPDEST PUSH2 0x147C DUP3 PUSH2 0xC90 JUMP JUMPDEST PUSH8 0xFFFFFFFFFFFFFFFF DUP2 GT ISZERO PUSH2 0x1495 JUMPI PUSH2 0x1494 PUSH2 0xD5E JUMP JUMPDEST JUMPDEST PUSH2 0x149F DUP3 SLOAD PUSH2 0x12A6 JUMP JUMPDEST PUSH2 0x14AA DUP3 DUP3 DUP6 PUSH2 0x13EA JUMP JUMPDEST PUSH0 PUSH1 0x20 SWAP1 POP PUSH1 0x1F DUP4 GT PUSH1 0x1 DUP2 EQ PUSH2 0x14DB JUMPI PUSH0 DUP5 ISZERO PUSH2 0x14C9 JUMPI DUP3 DUP8 ADD MLOAD SWAP1 POP JUMPDEST PUSH2 0x14D3 DUP6 DUP3 PUSH2 0x1458 JUMP JUMPDEST DUP7 SSTORE POP PUSH2 0x153A JUMP JUMPDEST PUSH1 0x1F NOT DUP5 AND PUSH2 0x14E9 DUP7 PUSH2 0x12D6 JUMP JUMPDEST PUSH0 JUMPDEST DUP3 DUP2 LT ISZERO PUSH2 0x1510 JUMPI DUP5 DUP10 ADD MLOAD DUP3 SSTORE PUSH1 0x1 DUP3 ADD SWAP2 POP PUSH1 0x20 DUP6 ADD SWAP5 POP PUSH1 0x20 DUP2 ADD SWAP1 POP PUSH2 0x14EB JUMP JUMPDEST DUP7 DUP4 LT ISZERO PUSH2 0x152D JUMPI DUP5 DUP10 ADD MLOAD PUSH2 0x1529 PUSH1 0x1F DUP10 AND DUP3 PUSH2 0x143C JUMP JUMPDEST DUP4 SSTORE POP JUMPDEST PUSH1 0x1 PUSH1 0x2 DUP9 MUL ADD DUP9 SSTORE POP POP POP JUMPDEST POP POP POP POP POP POP JUMP JUMPDEST PUSH32 0x566F74696E6720706572696F6420686173206E6F7420656E6465640000000000 PUSH0 DUP3 ADD MSTORE POP JUMP JUMPDEST PUSH0 PUSH2 0x1576 PUSH1 0x1B DUP4 PUSH2 0xC9A JUMP JUMPDEST SWAP2 POP PUSH2 0x1581 DUP3 PUSH2 0x1542 JUMP JUMPDEST PUSH1 0x20 DUP3 ADD SWAP1 POP SWAP2 SWAP1 POP JUMP JUMPDEST PUSH0 PUSH1 0x20 DUP3 ADD SWAP1 POP DUP2 DUP2 SUB PUSH0 DUP4 ADD MSTORE PUSH2 0x15A3 DUP2 PUSH2 0x156A JUMP JUMPDEST SWAP1 POP SWAP2 SWAP1 POP JUMP INVALID LOG2 PUSH5 0x6970667358 0x22 SLT KECCAK256 0xC0 0x1F 0x2A GASPRICE 0xA9 BASEFEE 0xB4 EXP 0xF9 DUP10 0xB7 SWAP1 0xC4 0xF9 EXTCODEHASH LT 0xBC ORIGIN 0x5D 0xBA GT SLOAD PUSH19 0xF76BE5776821EACAB764736F6C634300081400 CALLER "
				},
				"gasEstimates": {
					"creation": {
						"codeDepositCost": "1120000",
						"executionCost": "infinite",
						"totalCost": "infinite"
					},
					"external": {
						"addCandidate(string)": "infinite",
						"candidates(uint256)": "infinite",
						"candidatesCount()": "2492",
						"currentState()": "2627",
						"endTime()": "2514",
						"endVoting()": "infinite",
						"getWinner()": "infinite",
						"owner()": "2549",
						"startTime()": "2447",
						"startVoting()": "28949",
						"vote(uint256)": "infinite",
						"voters(address)": "2944"
					},
					"internal": {
						"getWinningCandidate()": "infinite"
					}
				},
				"methodIdentifiers": {
					"addCandidate(string)": "462e91ec",
					"candidates(uint256)": "3477ee2e",
					"candidatesCount()": "2d35a8a2",
					"currentState()": "0c3f6acf",
					"endTime()": "3197cbb6",
					"endVoting()": "c3403ddf",
					"getWinner()": "8e7ea5b2",
					"owner()": "8da5cb5b",
					"startTime()": "78e97925",
					"startVoting()": "1ec6b60a",
					"vote(uint256)": "0121b93f",
					"voters(address)": "a3ec138d"
				}
			},
			"storageLayout": {
				"storage": [
					{
						"astId": 3,
						"contract": "voting.sol:VotingContract",
						"label": "owner",
						"offset": 0,
						"slot": "0",
						"type": "t_address"
					},
					{
						"astId": 10,
						"contract": "voting.sol:VotingContract",
						"label": "currentState",
						"offset": 20,
						"slot": "0",
						"type": "t_enum(State)7"
					},
					{
						"astId": 12,
						"contract": "voting.sol:VotingContract",
						"label": "startTime",
						"offset": 0,
						"slot": "1",
						"type": "t_uint256"
					},
					{
						"astId": 14,
						"contract": "voting.sol:VotingContract",
						"label": "endTime",
						"offset": 0,
						"slot": "2",
						"type": "t_uint256"
					},
					{
						"astId": 26,
						"contract": "voting.sol:VotingContract",
						"label": "candidates",
						"offset": 0,
						"slot": "3",
						"type": "t_mapping(t_uint256,t_struct(Candidate)21_storage)"
					},
					{
						"astId": 28,
						"contract": "voting.sol:VotingContract",
						"label": "candidatesCount",
						"offset": 0,
						"slot": "4",
						"type": "t_uint256"
					},
					{
						"astId": 36,
						"contract": "voting.sol:VotingContract",
						"label": "voters",
						"offset": 0,
						"slot": "5",
						"type": "t_mapping(t_address,t_struct(Voter)31_storage)"
					}
				],
				"types": {
					"t_address": {
						"encoding": "inplace",
						"label": "address",
						"numberOfBytes": "20"
					},
					"t_bool": {
						"encoding": "inplace",
						"label": "bool",
						"numberOfBytes": "1"
					},
					"t_enum(State)7": {
						"encoding": "inplace",
						"label": "enum VotingContract.State",
						"numberOfBytes": "1"
					},
					"t_mapping(t_address,t_struct(Voter)31_storage)": {
						"encoding": "mapping",
						"key": "t_address",
						"label": "mapping(address => struct VotingContract.Voter)",
						"numberOfBytes": "32",
						"value": "t_struct(Voter)31_storage"
					},
					"t_mapping(t_uint256,t_struct(Candidate)21_storage)": {
						"encoding": "mapping",
						"key": "t_uint256",
						"label": "mapping(uint256 => struct VotingContract.Candidate)",
						"numberOfBytes": "32",
						"value": "t_struct(Candidate)21_storage"
					},
					"t_string_storage": {
						"encoding": "bytes",
						"label": "string",
						"numberOfBytes": "32"
					},
					"t_struct(Candidate)21_storage": {
						"encoding": "inplace",
						"label": "struct VotingContract.Candidate",
						"members": [
							{
								"astId": 16,
								"contract": "voting.sol:VotingContract",
								"label": "id",
								"offset": 0,
								"slot": "0",
								"type": "t_uint256"
							},
							{
								"astId": 18,
								"contract": "voting.sol:VotingContract",
								"label": "name",
								"offset": 0,
								"slot": "1",
								"type": "t_string_storage"
							},
							{
								"astId": 20,
								"contract": "voting.sol:VotingContract",
								"label": "voteCount",
								"offset": 0,
								"slot": "2",
								"type": "t_uint256"
							}
						],
						"numberOfBytes": "96"
					},
					"t_struct(Voter)31_storage": {
						"encoding": "inplace",
						"label": "struct VotingContract.Voter",
						"members": [
							{
								"astId": 30,
								"contract": "voting.sol:VotingContract",
								"label": "hasVoted",
								"offset": 0,
								"slot": "0",
								"type": "t_bool"
							}
						],
						"numberOfBytes": "32"
					},
					"t_uint256": {
						"encoding": "inplace",
						"label": "uint256",
						"numberOfBytes": "32"
					}
				}
			},
			"userdoc": {
				"kind": "user",
				"methods": {},
				"version": 1
			}
		}
	}
}